:020000040800F2
:10000000880F0020D5000008A52C00084D2C000802
:1000100000000000000000000000000000000000E0
:10002000000000000000000000000000A92C0008F3
:100030000000000000000000A72C0008AB2C000806
:100040000501000805010008050100080501000878
:100050000501000805010008050100080501000868
:100060000501000805010008050100080501000858
:100070000501000805010008050100080501000848
:100080000501000800000000000000000501000854
:100090000000000005010008050100080501000836
:1000A0000000000005010008050100080501000826
:1000B000050100080000000005010008ED480008E7
:1000C0000348854600F072F800480047194F0008C1
:1000D000880F00200C4880F308880C480168090E3E
:1000E0000B4A914205D10B480B4901600B480C4962
:1000F00001600C4880470C480047FEE7FEE7FEE73A
:10010000FEE7FEE7FEE70000880F00200400000085
:100110001F00000018100240010000000000014014
:1001200000000000392D0008C100000810B5431A76
:10013000934209D28318881803E0401E01785B1EA1
:100140001970521EF9D210BD03460B439B0703D012
:1001500009E008C9121F08C0042AFAD203E00B788C
:100160000370401C491C521EF9D210BD70B50446E4
:10017000002903D000202022012310E0002801D014
:100180000020C043C046C0460DE02546D5408D4204
:1001900005D30D469540641B1D46954040191546F4
:1001A000521E002DF1DC214670BD00001CB509482F
:1001B00000900948019005460126009C05E0E3688F
:1001C00007CC33430C3C98471034AC42F7D3FFF7CD
:1001D0007BFF0000C8650008E865000870B58C1852
:1001E0000578401C6B075B0F01D10378401C2A1176
:1001F00006D10278401C03E006780E70401C491CB2
:100200005B1EF9D12B0705D40023521E0DD40B70B1
:10021000491CFAE70378401CCB1A921C03E01D78B6
:100220000D70491C5B1C521EF9D5A142D8D3002089
:1002300070BDEFF3108072B6FEE70000F0B581B03C
:10024000044600F0E9FA0546F54E3068C00715D1BE
:100250003068800601D5202030603068C00605D4A3
:100260003068400702D4002001B0F0BD3068C006FD
:1002700016D40020316849071BD421E00320002C4C
:1002800020D0611C20D13068C007E1D03068C007A1
:10029000DED03068C007DBD03068C007F3D1D7E7C5
:1002A000DE48C16902220A43C26110203168490751
:1002B00006D5DA49CA6901231343CB6104210843F7
:1002C0003060012001B0F0BD074600F0A5FA401BE8
:1002D000A04203D83068C007F7D1B9E7384601B06B
:1002E000F0BDC046B0B5044600F096FA0546601C65
:1002F00002D004480078241800F08EFA401BA04277
:10030000FAD3B0BD00000020F0B583B00546C34E5F
:10031000307E012802D1022003B0F0BD00910120FF
:10032000074630762C68BF48FFF788FF012C06D1BE
:10033000002838460AD00021317603B0F0BD0028ED
:1003400019D038460021317603B0F0BD0020F061AD
:10035000294C20680425284320602068402101435F
:100360002160B048FFF76AFF2168A943216000219E
:10037000317603B0F0BD00200290C14300980160C7
:100380006C68A8688002001984423846D3D201956F
:10039000194F35460298F0613868022630433860BC
:1003A0007C6038684021014339609E48FFF746FF72
:1003B0003968B143396000280FD101208002241828
:1003C0000199486889688902081884422E46E0D35A
:1003D00002980021317603B0F0BD00990C602E46E2
:1003E0000021317603B0F0BD0348016880220A4342
:1003F000026000207047C04610200240F0B587B070
:10040000864D2C7E012C03D10224204607B0F0BD7E
:10041000059206910490039301242C7600F0FCF9D8
:1004200007467F4D2868C00708D07E4E00F0F4F9DB
:10043000C01BB0426DD82868C007F7D12868800675
:1004400001D5202028602868C006744B4AD428684B
:10045000400747D400200290D861686801273843DC
:10046000686006980599018000F0D6F9044628686E
:10047000C00708D06B4E00F0CFF9001BB0422ED859
:100480002868C007F7D12868800601D52020286099
:100490002868C0060498614B00D5A4E02968490784
:1004A00000D5A0E069680122914369600024012819
:1004B00000D1AEE0DC616868019210436860059885
:1004C000000C0699488000F0A7F906462868C00786
:1004D00022D000F0A1F9801B52498842F6D90324AA
:1004E0004E4B93E02868C00604D4002029684907D1
:1004F00008D40CE0D86902210143D9611020296891
:10050000490704D5D9692143D961042108432860EA
:100510007FE00324414B7CE028688006039801D5E6
:10052000202129602968C90604993C4B5BD42A68BC
:10053000520758D46A68019EB2436A600222D243CD
:10054000C91E914265D8049105920024DC61696856
:10055000314369600699888000F05EF90646286894
:10056000C00706D000F058F9801B2E498842F6D902
:10057000B5E72868800601D5202028602868C006D5
:100580000398264B2FD4296849072CD46968019A0F
:10059000914369600599049E8E423AD80024DC613B
:1005A000696811436960000C0699C88000F034F94D
:1005B00006462868C00706D000F02EF9801B1949AE
:1005C0008842F6D98BE72868800601D5202028606C
:1005D0002868C006114B06D42868400703D4686811
:1005E0000199884314E02868C006029904D5D869A7
:1005F00002210143D96110212868400704D5D86938
:100600003843D8610420014329603C466868B843F8
:10061000686000201876204607B0F0BD600B00200F
:100620000C20024050C300000648C168090601D4EE
:10063000002070470449016004490160C068C0B2ED
:10064000C00970470420024023016745AB89EFCD04
:10065000F0B58CB002900C68002C00D1C3E0634868
:10066000029A824201D0052000E002200090203250
:10067000019200231D460A9309910CE032433A602F
:100680005B1C0C682046D8400A9A121D0A92AD1CC9
:10069000002800D1A7E0012706979F403C4007941F
:1006A000EED0039303200246AA40D2432B464D6866
:1006B0002E460640741E012C0595049313D808920B
:1006C000029A9068089C2040CC689C400443946047
:1006D000E806C00F039B98405468BC431746089A2D
:1006E00004437C6007E0032E029F039B03D1064670
:1006F0000599049D1FE0F868104009998C68049DD5
:10070000AC400443FC60022E059914D11C200A99C8
:1007100008400F218140DC08A400019E36598E4319
:100720000892099A11698140314301980151516839
:10073000089A03260E40AE403868104030433860B7
:100740008803800F09999BD05D490868069C204367
:100750000860086820400B9003201E4686430B98D3
:10076000244831580920C006029A824205D0224806
:100770008242009F02D1274600E000270C200A9AFF
:1007800010400F248440A1431A4AB41887400F43F5
:100790002760174FBA6809994868C40210D5079EA8
:1007A0003243BA60FA68840210D4B243FA607A68BD
:1007B000840310D4B2437A603A68C00311D55DE770
:1007C000079EB243BA60FA688402EED53243FA60FB
:1007D0007A688403EED532437A603A68C00300D564
:1007E0004CE7B2434BE70CB0F0BDC04600080048F0
:1007F000000401400800014000040048006908406E
:10080000411E88417047002A02D01822815070474B
:100810002822815070470000054800687047C04694
:100820001B48007802490A68101808607047C046E3
:10083000800B002080B50648016810220A43026040
:10084000032000F007F800F027F8002080BDC04624
:100850000020024070B504467D20C0000C4E317867
:10086000FFF784FC01460B480068FFF77FFC01F0AE
:10087000DFFA0125032C08D8002806D10025E8431B
:1008800021462A4600F02AF87460284670BDC0460A
:1008900000000020A000002082B009480168012269
:1008A00011430160016811400191019911074268EB
:1008B0000A434260406808400090009802B07047C8
:1008C00018100240002805D41F2108400121814052
:1008D000014801607047C04600E100E0002805D4EF
:1008E0000322034693430A4A9A1803E00C2202406B
:1008F000064BD2188007C00E8901C9B28140FF2380
:1009000083401068984308431060704714ED00E07E
:1009100000E400E0F0B502685423D15A01242143D9
:10092000D15217214D0100214155D65A0227374394
:10093000D752401984600846F0BD704710B50C06C8
:100940000FD428244C4300192D21C9004018002A37
:100950000FD003811B0C01210A2283520173002056
:1009600010BD0724214028244C4300192830002AB8
:10097000EFD10021062283520173002010BD80B503
:100980002F221201835828224A438018C26B18462E
:1009900002F0C8FC80BD80B52F22120183582822A6
:1009A0004A4380185F2292008258184602F025FDC3
:1009B00080BD10B54BB22822002B134601D42D2345
:1009C000DB00C31807240C4062439C549A18C909E1
:1009D00051705521C900435C012B01D1022010BD8B
:1009E0004418012121700068114603F031FA0020FB
:1009F000207010BDB0B50F220A4043689A4201D959
:100A00000120B0BD4BB22822002B134601D42D2368
:100A1000DB00C31807240C4062439C549A1800243E
:100A20009470C90951705521C900435C012B01D153
:100A30000220B0BD4518012129700068114603F05D
:100A400085FA2C702046B0BD70B50C464DB22821F9
:100A5000002D0D4601D42D25ED0045190726264011
:100A600071436E5469180A61E2094A70CB70022B17
:100A700001D100220A715522D200835C012B01D1E1
:100A8000022070BD841801222270006803F0C4F8AF
:100A90000020207070BDB0B507240C4028216143B0
:100AA00041182D25ED004C55491900240D461435EB
:100AB0001CC54C70006803F09BFA2046B0BDB0B571
:100AC00007220A4043689A4201D90120B0BD4CB2C6
:100AD000002C134600D40B4628256B43002C01D470
:100AE0002D24E5004419E254E21801239370C9094A
:100AF00051705521C900445C012C01D10220B0BDC8
:100B0000441823700068114603F054FA0020207046
:100B1000B0BDF0B581B007240C40282529466143BB
:100B200041184C2601278F554C5500240D463C3565
:100B30001CC58B6428314F70006803F059FA2046B9
:100B400001B0F0BDF0B58FB00746006839462431DA
:100B50000C9103F0D3FE01041ED4FE49891F084204
:100B600022D05520C0003C1838684421425AFA4B24
:100B700013404352384600F031FD2078012811D04F
:100B800000250C980570012020703868294603F074
:100B900000FF25700FB0F0BD386844210E91415E12
:100BA000002920D40FB0F0BD410400D59DE381049D
:100BB00000D5A3E3172149017A18C10400D5A5E3A4
:100BC000010500D5BFE3010600D5D5E3810500D5B9
:100BD000E2E3C005E6D538684421425ADF4B1340B2
:100BE00043520FB0F0BD2D21C90079180B91014679
:100BF00044312B221201BA1805920C9A121D099247
:100C00000123DA030D921A020892DA0204920322F7
:100C10001203029201939A0307920A9720E050214F
:100C2000415ACC4A821851180B9C2278D2008B5A18
:100C3000CB490B40E361E288059903F062FE386816
:100C40000188C84A114080220A430280384600F0D9
:100C500004FD38680E99425E01464431002AA1D550
:100C60000A880F24144007D0A100425E95B2002AE2
:100C700031D42806EDD53DE10021415ED20662D493
:100C8000B84A11400D9A11430180B2490918502207
:100C9000805A08180C9C2179C9004018001F008850
:100CA000AF4908407864F96B0818F86300263846A5
:100CB0003146FFF764FE20780028CAD0386C00283F
:100CC000C7D10C9B187880210143C8B239684C22E7
:100CD00088521E70BDE741180A88A24B1A40802333
:100CE00013430B80282161430B9A5618317B00294E
:100CF00072D0F17802297CD15021415A0A183178FA
:100D0000CB009B18B269079F3D4200D08CE0914F09
:100D1000DF5B934B1F40D31B00D3A7E00023B361DD
:100D2000BA4200D9A6E08A000692835A8E4A13403E
:100D30008E4A5340069A83526A0600D49DE0002FE3
:100D400000D0B4E0B9E00A0500D568E7002900D476
:100D50007FE70188834A114080220A4302807D494F
:100D600041185024025B89180B9D2A78D2008B5AB7
:100D70007B490B40EB6110D02A46696900290CD0F1
:100D80001546D28803F0BDFDE869696908186861F5
:100D900000213846FFF7FFFD38680188049A1142A8
:100DA00000D056E7029A1140914200D151E7015B11
:100DB000684A8218535A6A4C234053520B9B1B6952
:100DC0003F2B00D2CFE1DC065B09002C00D15B1E7B
:100DD0009C028B5A234337E25021415A5D4A8218C4
:100DE00051183278D2008F5A5D490F4065D0F28891
:100DF0005EE031788A00835A5A4F3B400D9FFB18C2
:100E0000C0338352835AC9000A185021415A564FA1
:100E1000F1373B4245D04F4B9A185118091F0F88A4
:100E20004F490F403BD148E04A4FFB181B1F1F881A
:100E30004B4B1F40D31B2BD20023B361BA422AD89D
:100E40008A000692835A484A1340484A5340069AF9
:100E500083526A0621D58900425A424B1A400D9BA3
:100E60009A18C0324252002F19D126E0B361BA421B
:100E700000D858E76A0600D561E78900425A394B25
:100E80001A400D9B9A18C0324252002F0FD114E025
:100E9000B361BA42D4D96A06DDD4002F0DD03289AD
:100EA00006E02C4BD218575A2D490F4005D07289B5
:100EB00071693B4603F025FD00E00027F069C01989
:100EC000F0617069C0197061B069002802D03069A2
:100ED000B84207D931780A9F3846FFF75CFD2806EB
:100EE00008D4B6E60A9F3868314603F081F8280630
:100EF00000D4AEE6600041003868425A194B1A40EF
:100F00000D9B1A43425228216143099A5618F178E1
:100F100001292DD10021B161327B002A00D11DE1D0
:100F20006A0600D588E07278012A00D103E1002A20
:100F300000D013E15021415A064A801840183178F8
:100F4000C900425A064B1A404252425A0D9B1A435C
:100F5000425203E106040000FFFB0000FFFE000018
:100F6000FF0300000F0F00000F3F000080A00000F3
:100F700008990D421DD15021415AFD4A12185218AC
:100F80003178CB00D218121F1288FA4B1A40B3697D
:100F90009C1A00D20024B461934200D8DFE071694A
:100FA00089187161F1698918F161314603F020F8FF
:100FB0004FE65021445A3178CA001718B3690246E7
:100FC000503206926A0650D4F24ABA180392175B5E
:100FD000E84A1740DA1B00D20022B261BB4273D943
:100FE000079A154206D18900425AFC4B1A40FD4B24
:100FF0001A4342522421715C012900D068E17169D1
:10100000C9197161F269D219F2613369346A9C427B
:1010100000D3DBE0334624330022002C00D122E150
:101020001A70326223467278012A00D0D4E0069A00
:101030001288039CA3523FE17278012A00D183E019
:10104000002A00D08AE05021415AE74A101840187F
:101050003178C9004018001F0188DF4A1140018023
:1010600001880D9A1143018078E0DF4AD7193A1FB1
:101070000392145BD84A14401A1B00D20022B261BA
:10108000A3423FD9079A154206D08900425AD34B52
:101090001A40D44B1A4342522421715C012900D0DA
:1010A00016E1716909197161F2691219F261376902
:1010B000336ABB4200D3A7E03246243200251570C4
:1010C000002B00D0A2E0A3E07078012854D00028C3
:1010D0000A9F5BD10698028803988218131F1A880A
:1010E000BD4C22401A801A880D9C22431A80069A11
:1010F0001388C25AB84C2240C252C25A0D9C224395
:10110000C25243E07078012847D000284CD106989D
:1011100004880398025BB04B1A400253025B0D9B9C
:101120001A430253069800883A5AAB4C22403A526E
:101130003A5A1A4337E05022825AAB4BC0188018F3
:101140003278D200815209E05022825AA64B1818F8
:1011500080183278D2008018001F0180317838461C
:10116000FFF70DFC75E5002B6DD0545A5D08019E0C
:101170003340EB189B0268E0069B1888039C2018FC
:10118000001F00220280188822520A9F3846FFF76B
:10119000F6FB079805420ED09AE0069B18880022BD
:1011A000039C225218883A520A98FFF7E8FB0798E6
:1011B000054200D18CE00A98006831788900425AD3
:1011C000864B1A40874B1A43425281E0E21A326240
:1011D0007278012A00D12AE7002A6DD1069A128876
:1011E000039FBC5A7C4D2C40BC523F2B41D3DD06A3
:1011F0005C09002D00D1641EA402039FBD5A254343
:101200000D9C2543BD5257E0DD1B3B4635621C4615
:101210007278012A22D0002A56D1069A1288039F9A
:10122000BB5A6D4D2B40BB523F2C31D3E5066309B1
:10123000002D00D15B1E9B02039FBD5A1D430D9BD9
:101240001D43BD5240E0535A0D9C23435352018825
:10125000634A1140654A51400180FAE4069A1288B7
:10126000039B9C5230E01A703B467278012AB3D13E
:10127000DDE6002B1BD0039CA55A06951D46019F59
:101280003D405F087D19AD02069F3D43A55213E026
:10129000002C14D0039B9D5A06952546019F3D4086
:1012A00067087D19AD02069F3D439D520CE0039FE8
:1012B000BC5A0D9D2C43BC5272899BB206E0039F21
:1012C000BB5A0D9D2B43BB523289A3B203F06AFB7C
:1012D0000A9F386831788900425A404B30331340B6
:1012E0000D9AB0325A404252B3E438684421425A0F
:1012F0003F4B813B134043520FB0F0BD386844214F
:10130000425A3C4B134043520FB0F0BD3868402165
:10131000435A0424A3434352435A0824A343435249
:101320001078012804D1002111703846FFF705FB21
:10133000384600F065F938684421425A2E4B134074
:1013400043520FB0F0BD38684021425A082313437E
:101350004352024640329388284C1C409480425AA3
:10136000042313434352384600F0AEF90FB0F0BDEA
:1013700006040000FF0300003868403081888023A5
:10138000994381801178002911D0384600F09CF9EA
:101390000FB0F0BD0604000038684421425A184BD3
:1013A00013404352384600F03DF90FB0F0BD0188BC
:1013B00004230B430380018808230B43038001218E
:1013C0001170808A80083C23034053603846FFF741
:1013D000B4FA0FB0F0BDC046FF0300000F0F0000CD
:1013E0000F3F000080C000000604000080B0000035
:1013F00080C0FFFFFFDF0000FFEF0000FFF70000ED
:10140000FFFD0000F0B58BB0002800D1C0E004461D
:101410005520C00025186878002804D100202870C5
:10142000204600F0B9F820462430059003200695A8
:1014300009906870206802F07FFD079460680A9048
:10144000002800D182E0079B283300263746089603
:1014500028204743DE55DC19089921616161A161AB
:10146000E1700122627034461443E7B20A9DBD4226
:101470002AD94743DC55DC19002727616761A7613A
:10148000E770627002243443E5B20A99A9421BD97D
:1014900045435C555C1927616761A761E77062701D
:1014A000344609990C43E5B20A99A9420CD945433F
:1014B0005C555C1927616761A761E7706270361D32
:1014C000F7B20A99B942C3D808922D21C900079BE7
:1014D0005B180026374635464743DD55D9190E615E
:1014E0004E618E61CE704E702C4608990C43E1B26D
:1014F0000A9F8F422AD941435C54591800270F6133
:101500004F618F61CF704F7002242C43E1B20A9A71
:101510008A421BD941435C5459180F614F618F6156
:10152000CF704F702C4609990C43E1B20A9A8A4257
:101530000CD941435C5459180F614F618F61CF70D2
:101540004F702D1DEFB20A99B942C5D8079DA86802
:101550000990EB6829696C692F461837C4CF286851
:101560000091019402A9C4C10A99099A02F0DAFC17
:101570000020059908700121069A5170E969012936
:1015800004D104462846FFF7C5F920460BB0F0BD4C
:1015900001200BB0F0BD000010B582B000680D490D
:1015A000884201D002B010BD0120C0050A490A6876
:1015B00002430A6009680140019101981F2400213B
:1015C00020460A46FFF78AF92046FFF77BF902B06A
:1015D00010BDC046005C00401C100240B0B504467F
:1015E0008068022801D0FEF724FE2F2005016059F3
:1015F000012102F004F8605901F0BCFFB0BD000009
:1016000010B504468069002806D0374801680622D4
:101610009143016001F04DFB2F200001205801F0A3
:10162000D6FF10BD80B52F210901405801F0D9FF28
:1016300080BD10B55522D200835C012B01D1022060
:1016400010BD8418024624321170012222700068F5
:1016500003F09FF90020207010BD80B52F210901F3
:1016600042582B2109014118104601F0DBFF80BDD3
:10167000B0B55521C900425C012A01D10220B0BD9C
:1016800044180121217001680546084603F022F93B
:10169000286802F035FC00202070B0BDB0B555219F
:1016A000C900425C012A01D10220B0BD44180121C9
:1016B000217001680546084602F03EFC286802F0E9
:1016C00027FC00202070B0BD10B504462F2000017B
:1016D000205802F011F8A069002804D002480168DF
:1016E00006220A43026010BD10ED00E0F0B587B09D
:1016F00004468078C007474F4FD00120059001076E
:101700003A1F10680840049006D110680843106022
:101710001068084006900698029203913E4F386880
:10172000C00512D405980602386830433860FFF7C8
:1017300073F805463868304207D1FFF76DF8401B53
:101740006428F7D9032007B0F0BD03200190000200
:10175000304F3968014012D06268024091420ED089
:101760000598000439683A6802433A603A6882434F
:101770003A600846294A10403860C8073AD13868AC
:10178000264908406168014339600498002804D163
:10179000029A10680399884310602168C80708D12D
:1017A00088060ED4880314D4002049051AD407B043
:1017B000F0BD386903229043A26802433A6188066B
:1017C000F0D5386910229043E26802433A618803F9
:1017D000EAD5386980229043626902433A61002069
:1017E0004905E4D539694022914322690A433A61A7
:1017F00007B0F0BDFFF710F80546614E3868800766
:10180000BDD4FFF709F8401BB042F7D9019807B0E3
:10181000F0BDC0462010024000700040FFFCFFFFFA
:10182000F0B581B0002842D00D460446524B1868EE
:1018300001210840854208D91A68012082432A43C1
:101840001A601A680240AA4251D1206882074B4EA2
:101850000CD5420704D507221202336813433360C4
:101860003268F0239A43A36813433360C00721D141
:10187000414A1168012001408D4205D2116881431F
:1018800011601168C90732D1217849073B4F06D54D
:10189000072109023A688A43E168114339603B68CD
:1018A0001907890F374A022912D2144655E0012040
:1018B00001B0F0BD6268032A14D0022A2F4B0BD06E
:1018C000181F012A15D10068800308460FD514E0BF
:1018D00003292CD12C4C40E0181F006880010846D9
:1018E00005D50AE0254B186B8003084605D401B0E6
:1018F000F0BD006880070846F9D5186803210091FB
:10190000884310431860FEF787FF06461C4F1B48AC
:1019100000680C210140606880008142A8D0FEF779
:101920007BFF801BB842F2D9009801B0F0BD0321C3
:10193000CD0399022B40090F144C645CB96A0F2641
:101940000E401349895DAB4203D000048342104628
:1019500000E00D48FEF70AFC444338680006000F1B
:101960000C49085CC4400C4804600320FEF772FF79
:10197000002001B0F0BDC04600200240041002402B
:101980008813000000127A00006CDC022665000853
:101990003665000816650008A0000020F0B587B085
:1019A00004460120002C00D13CE204902078C007BE
:1019B000F64E05940CD071680C200140042900D02B
:1019C0008FE03068800303D56068002800D131E1E2
:1019D0002078800721D570680007800F0ED07068CE
:1019E0000C210140082900D098E00320C003716851
:1019F00001400120C003814200D08FE030688007A1
:101A0000059C03D5E068012800D013E13068F82177
:101A100088432169C90001433160059C2078000793
:101A200024D42078400736D42078C00600D4CEE0F5
:101A3000706B059949694A1D00D1BDE0012900D0AC
:101A40003EE1042108437063706B0121014371631F
:101A5000FEF7E2FE0546706B800700D5AFE0FEF7AB
:101A6000DBFE411B03200229F5D9DBE1706AE16945
:101A700000297ED0012108437062FEF7CDFE0546A5
:101A8000706A8007CDD4FEF7C7FE401B0228F7D945
:101A9000032007B0F0BD012003900107F069084062
:101AA000029006D1F0690843F061F06908400690A1
:101AB00006980191DC4F3868C00546D403980402AB
:101AC000386820433860FEF7A7FE05463868204294
:101AD0003BD1FEF7A1FE401B6428F7D9032007B0D5
:101AE000F0BD71680140082908D10320C003716866
:101AF000014001200004814200D162E76268306841
:101B000001214F04002A00D129E1052A00D11FE15B
:101B1000012A00D03CE1090408433FE13068059CFC
:101B2000E168002937D0012108433060FEF774FED8
:101B300005463068800700D568E7FEF76DFE401B5C
:101B40000228F6D9032007B0F0BD05988168306AF5
:101B5000B64F002900D1DDE0052900D1C5E00129FB
:101B600000D1C6E0039988433062306A042188437B
:101B7000C1E0012188437062FEF74EFE0546706A9F
:101B8000800700D44DE7FEF747FE401B0228F6D938
:101B9000032007B0F0BD012188433060FEF73CFE12
:101BA00005463068800700D437E7FEF735FE411B55
:101BB00003200229F5D935E1042188437063706B55
:101BC000F821884305998969C90001437163059823
:101BD000007880060BD571680C2001400C294DD18E
:101BE000706B800303D50598006A012822D10598FF
:101BF000446A002C1BD070680C21014008291CD1BC
:101C0000012C17D00320C20370680240F16A059CC2
:101C1000A36A9A420ED10F221140236B994209D137
:101C200091040840E16A8842049800D0FAE000205C
:101C300007B0F0BD049807B0F0BD0120020631687E
:101C40000492914331604706FEF7E6FD0546022CFB
:101C50000AD13068384200D1C3E0FEF7DDFD411BF8
:101C600003200229F5D9DDE030683842DFD0FEF7E5
:101C7000D3FD411B03200229F6D9D3E0716801404E
:101C8000082905D10320C003716801408142A7D013
:101C9000706B0599096A002900D18FE001210A04BF
:101CA000104370634C04FEF7B7FD0546706B20428D
:101CB0009DD1FEF7B1FD411B03200229F6D9B1E009
:101CC000042108437063706B012188437063FEF741
:101CD000A3FD0546706B800700D478E7FEF79CFDF6
:101CE000411B03200229F5D99CE0042108433062FE
:101CF000306A039908433062FEF78EFD0546306A6C
:101D000080071BD4FEF788FD401BB842F7D903209B
:101D100007B0F0BD039988433062306A04218843DC
:101D20003062FEF779FD0546306A800706D5FEF77A
:101D300073FD411B0320B942F6D973E002980028D5
:101D4000059C00D070E6F06901998843F0616BE66C
:101D50008A04104330600904306808431EE00A0416
:101D6000904330608804316881433160FEF754FD50
:101D70000546059C3068384200D129E6FEF74CFD47
:101D8000411B03206429F5D94CE0C04600100240F5
:101D90000A04904330608904306888433060FEF75D
:101DA0003BFD05463068384200D011E6FEF734FDB1
:101DB000401B6428F6D9032007B0F0BD01210A04B6
:101DC000904370634C04FEF727FD0546706B20427C
:101DD00000D10CE7FEF720FD411B03200229F5D9B5
:101DE00020E0F06A0F218843059A116B0143F162EC
:101DF0007B20C00371688143D06A0843916A014324
:101E000071603068049908433060FEF705FD0446B0
:101E10003068384200D00AE7FEF7FEFC011B0320C1
:101E20000229F5D907B0F0BD00700040881300000A
:101E3000401E010E01D0012070470749074A50603B
:101E4000074803680B4003218907591801600020E7
:101E50009060072111607047FFFFFF0010E000E075
:101E600020ED00E070B53C22825C012A01D1022005
:101E700070BD03463C3300221A703F231B02CC681E
:101E80009C430F239D028E68AE432643DB024C68C1
:101E90009C43344307231B030D689D4325430323C1
:101EA0005B030C699C432C434B6923430124A4032B
:101EB000A343C969194300684164104670BD00001E
:101EC000B0B53C22825C012A01D10220B0BD02469D
:101ED0003C3202235370006843687024A3430D68AA
:101EE0001D438468456001239D07A84205D0B34D7A
:101EF000A84202D0374DA84204D18025AC4349689E
:101F000021438160002010705370B0BD70B500286F
:101F100028D005463C356978002905D10021297073
:101F2000044600F061F820460221697002681668D4
:101F300001218C07A24205D0A04B9A4202D0254B2A
:101F40009A4211D170239E4383683343224EB2429A
:101F50000EDCA24215D01F4CA24212D0214CA2424C
:101F60000FD034E0012070BD33461B4EB242F0DD8D
:101F7000924CA24205D0194CA24202D0184CA24267
:101F800025D103242402A34304691C4380239C43DA
:101F9000836923431360C368D36243689362874BAA
:101FA0009A4205D00D4B9A4202D00D4B9A4201D174
:101FB000406910635161A972A970E9702971697152
:101FC000A971E971297269726970002070BD1C469F
:101FD000DCE7C04600040040FF2B01400048014000
:101FE000004401400020004081B0006873498842ED
:101FF00001D001B070470120C00205490A680243C0
:102000000A60096801400091009801B07047C0461D
:1020100018100240F0B53C22825C012A01D1022056
:10202000F0BD02463C3202235370504E3346773B9C
:102030000468A0681840A0600D6800234F2D1FDCC5
:102040001F2D36DD202D38D0302D36D0402D00D03C
:1020500087E0206A256A0126B5432562A569F02636
:10206000B543CE6836012E43A6610A25A8434968C8
:1020700001432162A06847210143302081436AE087
:102080006F2D26DD01204703BD4257D00003854256
:1020900018461AD0702D64D1A06830404D688E6803
:1020A000C9682E43090231430143A160A06877212A
:1020B00050E0002D01D0102D53D1A068702188432D
:1020C000054307202843A060184613700121517072
:1020D000F0BD502D1BD0602D43D11020C043256A88
:1020E000054025620F252D03A669AE43CD682D035B
:1020F0003543266AA561A025AE43496809013143ED
:102100002162A16867250D430540A56024E0206A8F
:10211000256A0126B5432562A569F026B543CE6838
:1021200036012E43A6610A25A8434968014321626E
:10213000A06857210143202081430CE0A568354069
:102140004E688F68C9683743090239432943A16043
:102150008003A1680143A1601846137001215170EA
:10216000F0BD0120137001215170F0BDFF00FFFF91
:1021700010B586B00021059104910391029101915F
:102180000068DD4A904201D006B010BD0120420433
:102190000B4B1C6814431C601B6813400093022205
:1021A0000592049103910292000201900920C00659
:1021B000009901A9FEF74CFA06B010BD002C0140B1
:1021C00014100240F0B582B03C23C35C012B02D155
:1021D000022002B0F0BD03463C330224E241032A50
:1021E00071D8C0467A441279520097440156233A76
:1021F0000268106A0125A8431062106AA0438E6825
:10220000064350680C6801949569BB4FBA4206D0EA
:10221000BC4CA24203D0BC4CA24200D0BDE00C2476
:10222000A643CC680427BC43B34F3443BA4200D022
:10223000B6E0BBE0012425020268106AA8431062E0
:102240006002146A844388680702274350680C6858
:102250000194D569A84CA2423AD03E46A24243D14D
:1022600048E0012425030268106AA8431062156A39
:1022700050688E6801960E680096D7699E4EB242ED
:1022800005D0A04EB24202D09F4EB24269D1A60301
:10229000B0434E69B601064364E00268106A102438
:1022A000A0431062106A2024A0438C6827010743D2
:1022B00050680C68019494698F4DAA4223D03E4621
:1022C000AA422AD12FE001200021197002B0F0BDEE
:1022D0000326B602B743554CFF3CCE683602264073
:1022E000854C3E43A24205D0864CA24202D0864C89
:1022F000A24221D103242403A0434C698F692743C0
:102300003C01044319E0C026B743CE68360140259E
:10231000AE43794D3E43AA4205D07A4DAA4202D03F
:10232000794DAA424AD10325AD02A8434D698F6970
:102330002F43BD00054342E0044610461C30546064
:102340007324A543019C2543D5614C68D463166270
:10235000D46908252543D561D4690425AC43D461EB
:102360005AE0064610461C30566073263602B743C4
:10237000009E36023E43D6614E6816646603B5433E
:10238000019E36032E431662E502D6692E43D661BE
:10239000A402D569A543D56127E03446BA4205D0E9
:1023A000584EB24202D0584EB24221D103263602D4
:1023B000B0434E698F6906433E431AE00546104616
:1023C0001830556073252D02AC43019D2D02254325
:1023D00095614C68946316620124E50296692E4368
:1023E0009661A4029569A54395610969090214E003
:1023F00006461046183056607326B543019E354395
:1024000095614D685563146294690825254395616B
:1024100094690425AC439461096902680A43026027
:1024200000200021197002B0F0BDC046FFFBFFFF85
:1024300070B5002828D005463C356978002905D1BB
:1024400000212970044600F063F8204602216970DB
:102450000268166801218C07A24205D0264B9A42D9
:1024600002D0264B9A4211D170239E438368334396
:10247000234EB2420EDCA24215D0204CA24212D012
:10248000224CA2420FD034E0012070BD33461C4ED6
:10249000B242F0DD184CA24205D01A4CA24202D042
:1024A000194CA24225D103242402A34304691C43EE
:1024B00080239C43836923431360C368D3624368CA
:1024C00093620D4B9A4205D00E4B9A4202D00E4BAE
:1024D0009A4201D1406910635161A972A970E970F3
:1024E00029716971A971E971297269726970002095
:1024F00070BD1C46DCE7C046002C014000040040D3
:10250000FF2B0140004801400044014000200040F2
:102510007047000070B50023042815D1002913D09E
:10252000002A11D0234DAC8A002C0FD0944200D346
:1025300014462A463832084611462246FDF7F6FD73
:102540000020A882204670BD184670BD032A1C4694
:102550002ED304220A7000244C70174800780028FB
:1025600005D02879431E984100012B780DE0287989
:10257000002805D0AB79581E83411020224604E084
:10258000EB78581E8341002002462C78661EB44129
:1025900064001043184320432A7C531E9A41D20002
:1025A0000243E879002801D0802002438A70032486
:1025B000204670BD9801002092010020F0B581B046
:1025C000042800D0DFE2002900D1DCE2002A00D19B
:1025D000D9E20878022A04D3042802D14878521E8E
:1025E000491CA12800D950E1830001A4E3589F466B
:1025F000792800089F2800089F2800089F280008C5
:102600009F2800089F2800089F2800089F2800088E
:102610009F2800089F2800089F2800089F2800087E
:102620009F2800089F2800089F2800089F2800086E
:10263000CD290008472900089F2800089F28000886
:102640009F2800089F2800089F2800089F2800084E
:102650009F2800089F2800089F2800089F2800083E
:102660009F2800089F2800089F2800089F2800082E
:102670002729000899290008B1280008FD2800082A
:10268000E1280008272A0008832900089F2800085D
:102690009F2800089F2800089F2800089F280008FE
:1026A0009F2800089F2800089F2800089F280008EE
:1026B000452A000879290008B92900089F28000840
:1026C0009F2800089F2800089F2800089F280008CE
:1026D0009F2800089F2800089F2800089F280008BE
:1026E0009F2800089F2800089F2800089F280008AE
:1026F000692A0008592A0008792A0008D128000808
:10270000AD2A00081D290008F72800089F280008A6
:102710009F2800089F2800089F2800089F2800087D
:102720009F2800089F2800089F2800089F2800086D
:102730009F2800089F2800089F2800089F2800085D
:102740009F2800089F2800089F2800089F2800084D
:102750009F2800089F2800089F2800089F2800083D
:102760009F2800089F2800089F2800089F2800082D
:102770009F2800089F2800089F2800089F2800081D
:102780009F2800089F2800089F2800089F2800080D
:102790009F2800089F2800089F2800089F280008FD
:1027A0009F2800089F2800089F2800089F280008ED
:1027B0009F2800089F2800089F2800089F280008DD
:1027C0009F2800089F2800089F2800089F280008CD
:1027D0009F2800089F2800089F2800089F280008BD
:1027E0009F2800089F2800089F2800089F280008AD
:1027F0009F2800089F2800089F2800089F2800089D
:102800009F2800089F2800089F2800089F2800088C
:102810009F2800089F2800089F2800089F2800087C
:102820009F2800089F2800089F2800089F2800086C
:102830009F2800089F2800089F2800089F2800085C
:102840009F2800089F2800089F2800089F2800084C
:102850009F2800089F2800089F2800089F2800083C
:102860009F2800089F2800089F2800089F2800082C
:10287000032A0008892A0008F34C2546383502F05F
:10288000DDF8A870042020877AE1F02807D1EE480F
:10289000BE498163812149008187062071E1382189
:1028A000E94A042353543832FF219170507067E194
:1028B00090B2022800D200E14878411E8841B44914
:1028C000887202F0EBF8E048012101740020F5E085
:1028D000DD48B84901873830AD49C97A81704FE188
:1028E00090B2022800D2ECE002F0D8F8D6480121DC
:1028F00001740020E6E0D448A849D9E090B202284B
:1029000000D2E2E04878411E8841A149C87202F035
:10291000C5F8CD48012101740020D7E0CA48A34979
:102920000187C179E9E090B2022800D2D1E048786D
:10293000411E88419649087202F0B0F8C248012150
:1029400001740020C6E090B203280ED3487801221B
:1029500000240F28134600D8D2E08978C9B2012993
:1029600000D8D3E0134300D1D4E0B74889490187A8
:1029700038300121817003E102F04AF9B249924AEC
:1029800064E090B2022800D2A7E002F087F8AE48D7
:10299000012101740020A1E090B2022800D2A0E041
:1029A0004878411E88417A49487202F077F8A64873
:1029B00001210174002095E002F0A0F8A248014630
:1029C000383100228A707F490187D9E092B2012014
:1029D000072A00D2CFE04A780F2A00D9CBE08B78C3
:1029E000012B00D9C7E0D000694A10180E30CA7810
:1029F0000124002B00D1AEE0061D07230625052784
:102A0000ADE07848006890490A463832D07000231B
:102A10009370754B0B87010E9171010C5171000A77
:102A200010710720ADE090B202285ED34978864A43
:102A300001201074002090724B1E9941D171544AAC
:102A4000117353E002F09AF97F49604A0A87012224
:102A5000424038318A7093E07B48584901873830CA
:102A60004B49497A81708BE0774855490187383066
:102A70004749097A817083E073484F4901873830AC
:102A80004349897A81707BE090B2052831D3487838
:102A90008A7812021018CA78120480180979090677
:102AA000401802F013FA0121414023E066483D49F5
:102AB000018738300021817062E001206249454A77
:102AC0005BE001206049384A57E001205E49404AF6
:102AD00053E001205C49414A4FE001205A49304A05
:102AE0004BE0012058493C4A47E001205649304A12
:102AF00043E0022154483A4A0287383081703FE06F
:102B000023468978C9B2012900D92BE7224613430D
:102B100000D02AE7C2001E4B9A180E32002905D0B9
:102B2000131D009307260625052403E0032602252E
:102B300001240092444F174B3B87935D3837FB715C
:102B4000535DBB71125D7A71009A12783A71F97017
:102B5000B870082015E00323022506462746327088
:102B60000A79C2554A7942558979C15401F096FFD4
:102B70003548047400203449074A0A873831887080
:102B800003203149888201B0F0BDC04604F0200125
:102B90004C04002004110000041000000446000052
:102BA0000426000004440000042400000445000042
:102BB000042500000443000004420000044100001A
:102BC0000440000004320000043100000430000022
:102BD000042300000422000004210000042000005F
:102BE00004A10000007C000804A00000F0B581B042
:102BF000032815D1002913D0002A11D00D78032DF8
:102C000002D1012A0CD04D780E4E3078002809D020
:102C1000012805D10C4800214172A907C90F017094
:102C200001B0F0BD084F01247C722C400920C00681
:102C300008212246FDF7E7FDBC7130780128E9D074
:102C4000EEE7C0469201002098010020FEE7000058
:102C500010B511481149002200F02CFB002801D0CA
:102C6000FDF7E7FA0C480E4900F076FD002801D088
:102C7000FDF7DFFA084800F086FD002801D0FDF7D7
:102C8000D8FA054C204600F0B3FF6420FDF72AFB7C
:102C9000204600F078FD10BDE00400200800002070
:102CA000B8000020FEE77047704780B5FDF7B8FD1B
:102CB00080BDB0B598B000250E950F951295119571
:102CC00010950D950C950120139022210B911795CD
:102CD000022414940E9001051691C0031590102043
:102CE0000F9005950495039502950BA8FEF756FEE7
:102CF000002803D0EFF3108072B6FEE70A9509951D
:102D000008940720079007A801242146FEF788FDB4
:102D1000002803D0EFF3108072B6FEE7069560043A
:102D2000019001A8FEF7E2FC002803D0EFF3108029
:102D300072B6FEE718B0B0BD704780B5AD22920004
:102D4000825852689047002080BD10B513460A464D
:102D50000024214600F0FEFB204610BD10B51346AE
:102D60000A460024214600F0D1FC204610BD10B5D3
:102D70000446802100F08CFC0021204600F088FCF5
:102D800010BDB0B513460A46572189004350A5240B
:102D9000A4000325055141184B600024214600F092
:102DA000D9FB2046B0BD10B5A521890005224250AF
:102DB000002421462246234600F0CCFB204610BDCD
:102DC00010B513460A46A521890002244450C36168
:102DD00003620024214600F099FC204610BD10B586
:102DE000A521890004224250002421462246234680
:102DF00000F08CFC204610BD10B50A4603A02B4CF9
:102E0000214600F0DDF8204610BDC0464849442068
:102E1000436F6E66696700001220088000487047A3
:102E2000A400002010B50A4603A0204C214600F063
:102E3000C7F8204610BDC04648494420496E746515
:102E400072666163650000000420088000487047D6
:102E50007401002010B50A4603A0144C214600F06E
:102E6000AFF8204610BDC0464875656E736F6C2084
:102E7000496E632E0000000010B50A4603A00B4CFB
:102E8000214600F09DF8204610BDC0464C696E6B8F
:102E900020506C7573204163636573736962696C5C
:102EA000697479204B65797061640000F401002039
:102EB00010B51A200880404801688268521879D0FD
:102EC00041683E4800234376C3754375C374437419
:102ED000C3734373C3724372C3714371C3700F23CF
:102EE00013401407640F052C01D3373300E030334F
:102EF0000374540F130F052C01D3373300E0303324
:102F000083704C0F0B0F052C01D3373300E03033A7
:102F1000837413065C0F1B0F052C01D3373300E0BD
:102F20003033837313055C0F1B0F052C01D337332C
:102F300000E03033037313045C0F1B0F052C01D327
:102F4000373300E03033837213035C0F1B0F052C03
:102F500001D3373300E03033037213025C0F1B0FD1
:102F6000052C01D3373300E0303383711201530F46
:102F7000120F052B01D3373200E0303202710A0301
:102F8000530F120F052B01D3373200E03032027697
:102F90000A02530F120F052B01D3373200E03032F3
:102FA000827509014A0F090F052A01D3373100E064
:102FB00030310175014810BDACF7FF1F78010020CA
:102FC000B0B5002851D00378002B14D0041D002385
:102FD000E51E2D78002D10D0A51E2D78002D0ED0C9
:102FE000651E2D78002D0CD0251D1B1D2478002C6E
:102FF0002C46EDD107E0002305E0012402E0022485
:1030000000E003242343DBB25B009B1C13800322FC
:103010004A700B700378002B27D0021D0220C4B227
:103020000B550C1900236370D41E2478002C1CD07F
:10303000851CEDB24C554C196370941E2478002CFD
:1030400013D0051DEDB24C554C196370541E2478F5
:10305000002C0AD0851DEDB24C554C196370141D1F
:1030600008301378002B2246D9D1B0BD5721C900B2
:103070004158002008737047B0B50446812100F024
:1030800041F90025E5625720C1006058002803D0AF
:10309000641800F0BBFD25600020B0BD10B55721BD
:1030A000C9004158002914D00C464E34E07803285A
:1030B00007D002280AD12288A0780D31FFF796FDAB
:1030C00004E02288A0780D31FFF778FA00206080B4
:1030D0002080002010BD00000A21018000487047B8
:1030E000440100202221018000487047F0000020A8
:1030F0002221018000487047140100202221018014
:10310000004870475001002010B504468121032279
:10311000052300F00BFA0120E062542000F078FD56
:103120005721C9006050002807D04E21002242528A
:1031300002734E304280104610BD022010BD10B503
:1031400013460A46A7218900445C032C04D1411888
:10315000C9690C7B002C01D0002010BD01240C7328
:10316000812100F0D3FA002010BD0000F0B581B03D
:103170000C46A72189004118CD696A4600231380B7
:103180002678602232401FD0202A4FD16178491E14
:103190000A294BD87944097949008F44054E2D47B7
:1031A000474747475C6E570006461F46A0780D35D7
:1031B00040222946FFF7AEF9002803D00246E088F6
:1031C00082426BD9304631E062780B2A2ED8C04655
:1031D0007A4412795200974405292929292913296B
:1031E00029290B210978032920D16946022226E0EA
:1031F000097803291AD1083501221C4629461FE007
:10320000E1780902090A21293CD022290ED11D4664
:10321000E2887C2A00D37C22254939E009780329F9
:1032200004D1A078A860184601B0F0BD2146FFF790
:103230009EFD0223184601B0F0BD291D01221C4647
:10324000FFF7BEFD2346184601B0F0BDA078286008
:10325000184601B0F0BD1E4629464E31E28863880B
:103260004B80402A00D340220A800D352946FFF7C3
:1032700088FD3346184601B0F0BDE0786860184616
:1032800001B0F0BD1D46E288092A00D30922074992
:10329000FFF796FD2B46184601B0F0BD3046294693
:1032A000FFF78EFD3B46184601B0F0BD3801002007
:1032B0002400002010B5002811D0A7239B00C318BC
:1032C0009C69002C01D000249C61002900D0596128
:1032D00002700121197000F0DDF8002010BD0220FD
:1032E00010BD000080B50B2292018058FDF782FBD3
:1032F000042802D30220C0B280BDC100F448C840F7
:10330000C0B280BD80B50B2292018058FDF751FB01
:10331000042802D30220C0B280BDC100F548C840D5
:10332000C0B280BDF0B581B0A5239B00C718AD2306
:103330009B00C418002909D0226853690222002B7F
:1033400026D03C7A032C23D1984724E03968002901
:1033500016D0042914D0022915D1016A466AB14257
:103360001DD9891B01628BB2044611461A46FFF72C
:10337000F5FC002120460A460B4600F0EBF802E07F
:10338000802100F085F9387B012804D100223A73AE
:10339000104601B0F0BD0022104601B0F0BD009013
:1033A000C56928463146FCF7E1FEB54213D3002932
:1033B00011D1786885420ED20025009C204629460E
:1033C0002A46FFF7CBFC7D60204629462A462B463D
:1033D00000F0C0F8D7E72068C168002904D0387A27
:1033E000032801D1009888478021009C204600F0E6
:1033F0004FF92046FFF7D7FCC5E7F0B581B0A5230C
:103400009B00C518AD239B00C41800290CD022686E
:1034100092690223002A04D02C7A032C01D1904710
:103420000023184601B0F0BD2968052918D00023F3
:103430000329F6D10B2149014618376871688F427C
:1034400017D91C467B1A33608B4200D30B469BB2C4
:1034500011461A46FFF779FC2346184601B0F0BD25
:1034600000242C60214600F013F92346184601B0D1
:10347000F0BD1E4621680969002905D02A7A032A71
:1034800002D1044688472046FFF7A9FC3346184678
:1034900001B0F0BDB0B50B218A01174981502F232F
:1034A0001B01C85000238B61CB610B6202230B61AF
:1034B0000824124D0D604C608B6085180846FDF79E
:1034C000A1FF002801D0FCF7B4FE286800241823CF
:1034D00021462246FDF732FA2868802158232246E9
:1034E000FDF72CFA286801210B0281212246FDF705
:1034F00025FA2046B0BDC046A4070020005C00406D
:103500000B22920180584AB2002A07D428224A434B
:103510008018B52149004018007870477F2211407B
:1035200028224A4380182A300078704710B5144684
:103530000B22920180581A462346FDF785FA04288B
:1035400002D30220C0B210BDC1007848C840C0B24A
:1035500010BDC04610B50B24A4010059FDF79BFA1D
:10356000042802D30220C0B210BDC1006F48C84079
:10357000C0B210BDF0B581B00646002440252146FA
:1035800022462B46FFF7D2FF2B20C00001273750E1
:103590003018C5608021304622462B46FFF7C6FF13
:1035A000A5218900745071180F727562B7610C61A2
:1035B0007460AD21890071184A68002A04D0096836
:1035C0004A68002130469047002001B0F0BDA72195
:1035D0008900425C042A02D1401841780170002021
:1035E000704780B5A7218900425C032A05D14118A4
:1035F0008969C969002900D08847002080BD01740D
:103600000020704780B50B2292018058FEF711F818
:10361000042802D30220C0B280BDC1004348C84084
:10362000C0B280BDF0B581B00546A5208600AF19B7
:103630003C461434204600F07BF80121A951798BD7
:103640007960397D1F220A40022A11D0012A08D050
:10365000002A14D12846214600F09AF8002001B033
:10366000F0BD2846214600F099FA002001B0F0BDD7
:103670002846214600F0F0F9002001B0F0BD80227C
:103680001140284600F004F8002001B0F0BD000011
:1036900080B50B2292018058FDF711FA042802D35D
:1036A0000220C0B280BDC1002048C840C0B280BD69
:1036B00080B50B2189014058FDF7DAFF042802D3B9
:1036C0000220C0B280BDC1001848C840C0B280BD51
:1036D0000002010280B50B2189014058FDF7DEFF91
:1036E000042802D30220C0B280BDC1000F48C840E8
:1036F000C0B280BD00020102A7218900425C042300
:1037000043544018427000207047000010B50B244D
:10371000A4010059FDF7FDF9042802D30220C0B22C
:1037200010BDC1000148C840C0B210BD0002010276
:103730000A7802704A7842708A78CB781B029A180D
:1037400042800A794B791B029A1882808A79C9795A
:1037500009028918C1807047002904D0AD22920067
:103760008150002070470220704780B5AD22920042
:103770008258002A05D012689047411E88414000B7
:1037800080BD022080BD80B5FFF792FF002080BD84
:1037900070B582B0A722920085180A785206920F5F
:1037A000531E022B05D2AA6992689047002002B0EE
:1037B00070BD002A00D03DE14A78092A00D939E1DC
:1037C0005200C0467A44928852009744090025006E
:1037D0003301440033014E006E00330118002F0006
:1037E0002A78521E022A00D924E1C988022900D071
:1037F00020E1A968002900D1BDE00321BCE0C9880F
:10380000012900D016E129784A1E022A64D200213B
:1038100081600146083163E02A78521E022A00D9ED
:1038200008E149880129C1D1002118E04988894E61
:103830003170C9B2022900D3FCE02A78032A55D09E
:10384000022A00D072E0002900D1BDE003222A70D4
:1038500041600446B0E049880129A7D10121A9604F
:10386000FFF7BDFA002002B070BD8A88002A00D0A0
:10387000E0E0CA88002A00D0DCE04E887F2E00D924
:10388000D8E02978032900D1D4E0AE70F1B2044623
:10389000FFF7B8FE2046FFF7A2FA002E00D1D4E0D1
:1038A00002202870002002B070BD01AA00231380FE
:1038B0004A88130A5B1E062B00D9BBE07B441B79A8
:1038C0005B009F44032B1DB7B7424C000E460446D5
:1038D000007C69690A688FE0032900D0AAE0011D15
:1038E0000122FFF76DFA002002B070BD00294CD014
:1038F0004168012958D1FFF772FA002002B070BD6B
:10390000D2B2052A00D995E07A4412795200974440
:1039100002696366606C6A69526868E00E46A9696C
:103920000446007C002838D0C96A37E0802104466C
:10393000FFF7AEFE00212046FFF7AAFE31782046B1
:10394000FFF7FBF9002002B070BD027C002A71D1A4
:103950000E460446A869416B01A888474EE0027CE8
:10396000002A67D10E460446A869016B01A8884762
:103970000146072016E00121C16001460C310222F8
:10398000FFF71EFA002002B070BD00224260022242
:103990002A700446FFF7D1F915E0896A01A8884723
:1039A0000146022048702AE0C9B20546FFF7C5F972
:1039B000317869602C462846FFF7D7FE022802D1ED
:1039C0008021204638E02046FFF709FA002002B0A7
:1039D00070BD6A6952690AE06A69D26807E06A697B
:1039E000126904E06A69926801E06A699269002AD2
:1039F00020D00E460446007C01A99047014601A84C
:103A00000288002A0CD0F088002809D0354682426E
:103A100000D3024601A802802046FFF7D1F92E46C6
:103A2000F088002800D0C1E62046FFF7D8F9002032
:103A300002B070BD80210446FFF72AFE0021204617
:103A4000FFF726FE002002B070BD01202870002084
:103A500002B070BDF001002070B5A722920082185C
:103A60000C78602323405C09651E022D04D2926904
:103A700092689047002070BD002C63D1202B03D1A9
:103A800092699268904770BD0C4609792346647824
:103A9000002C27D0012C15D0032C53D11278032AE7
:103AA00013D15A88002A09D17F220A4006D0DA8829
:103AB000002A03D10446FFF7EBFD2046FFF78FF9FC
:103AC000002070BD1278032A17D0022A3AD14A0684
:103AD00038D00446FFF7DCFD80212046FFF7D8FDF3
:103AE000002070BD1278032A15D0022A2AD14A0676
:103AF00028D1090648D5142148E05A880025002A13
:103B000029D14A0603D00446FFF7ECFB2046FFF715
:103B100066F9284670BD0F220A4014235343C21889
:103B2000802903D22B23DB00D25800E09269002ABF
:103B300008D01422802910D37F230B405A438418C5
:103B400014340FE080210446FFF7A2FD0025204633
:103B50002946FFF79DFD284670BD4A43821855232C
:103B60009B00D41800224B06164606D00546FFF7E8
:103B7000C7FC02462846511E8A4122600222214685
:103B8000FFF71EF9304670BD5521890000244450CE
:103B900041180222FFF714F9204670BDB0B50A782B
:103BA00060231340602B0AD0A7229200821813785A
:103BB0005B1E022B03D88B881B065B0E09D080216D
:103BC0000446FFF765FD00212046FFF761FD002058
:103BD000B0BD9269926804460D469047E988002975
:103BE000F5D10028F3D12046FFF7F9F80020B0BD49
:103BF00010B50446AD208000205842682179204647
:103C000090472046FFF766FD002010BD704700007A
:103C100000487047F4030020F0B587B00F78BB0070
:103C2000C45A834A2240CD78032D069512D8002429
:103C30000594C0467D442D796D00AF4401030D0706
:103C4000012404E07B4C1219521C05E00324640299
:103C5000224301E001240594774D2A43C252C25AFF
:103C6000D04C22403A432A43C2520125AA02049270
:103C70000E7B724A002E06D0069C022C03953C4611
:103C800024D0164623E05026865B0296CE88AE43AB
:103C9000FA0001922A463D464F78002F7AD00499C7
:103CA0004118019A8918029D4E53C15A4906634A28
:103CB00004D5C15A214051184031C152C15A303443
:103CC0000C400699012960D02032ACE05C4EC75A06
:103CD0005C4D3D403543C5525025465B049A8718DC
:103CE000E200BA18039CE7431C460B893B40935300
:103CF000435BD2184B893B4093802546035BBA4E09
:103D00003246F1321A40497800291BD0002A2B464E
:103D1000A44C04D0C15A2140784A0A43C252C15A25
:103D20004906464A069D04D5C15A214051184031E2
:103D3000C152C15A30340C40012D22D011462031DD
:103D40004C401FE0002A2B46964C04D0C15A21401B
:103D50006A4A0A43C252C15A4906384D04D5C15A6B
:103D6000214069184031C152C15A3140364A4A4057
:103D7000C252C15A30340C402C43C452059807B08B
:103D8000F0BD1443C452C45A34401443C45205987D
:103D900007B0F0BD0392009507465037049A1518F6
:103DA000019AAA180692029A069DAD18AE80069A4C
:103DB000921D3F88D55B1F4E2E40D653164609698B
:103DC0003F290BD3CA064909002A1C4D00D1491EC0
:103DD0008902BA5B0A43803D15430EE00029174D66
:103DE00008D0F55B039A0A404908891889022943DB
:103DF0000D4602E0F15B803D0D43F553C25A7A490E
:103E00000D46F1352A4204D0C25A22403B4C14439D
:103E1000C452009A002A03D0C25A0A400B4C02E056
:103E200002880A40084C5440C452059807B0F0BDBF
:103E30008F89FFFFFF0300008080FFFF808000006C
:103E40008081FFFF0F0E000080B0FFFF80A0FFFF0A
:103E5000F0B50A789200855A4C780E7B514B264972
:103E6000002E28D0604F3E46F1363540002C2BD036
:103E70004F4E002D03D0845A1C4034438452845A40
:103E800064061D463035002C3C4603D5875A1F403A
:103E90000F438752875A1F40374387520E46403E92
:103EA000835A2B4033438352835A2340C9184039E5
:103EB00081520020F0BD002C16D01C4630346D0617
:103EC0001D460E46ECD4EFE7002D04D0845A1C406A
:103ED0000A4D25438552845A65061C463034002D10
:103EE0000E463D46D2D4D5E73F4C2646F136354204
:103EF000DAD02F4E1D46D3E7C080000080C0FFFF00
:103F00005821425A0123DB031343435200207047D8
:103F10005821425A024B1340435200207047C0467A
:103F2000FF7F000040220121815200218152403058
:103F300081800182084670474021425A024B13405B
:103F4000435200207047C0467F400000B0B50A7B56
:103F5000002A01D00020B0BD0A789200855A4B7823
:103F6000002B0DD06B060F4B0F4C04D5855A1D400E
:103F7000651920358552C9780129EBD030330BE023
:103F8000194B1946F131094C0D4205D0815A054DA6
:103F90000D40074969188152815A19406140815288
:103FA0000020B0BD0F0F0000A080000080B0000016
:103FB00080C0000010B54B78002B04D0094A002BBC
:103FC00004D1094B03E0064A002BFAD0074B0978CD
:103FD0008900445A1C4054404452002010BDC04641
:103FE0008090FFFF9080FFFF0F3F00003F0F000019
:103FF000F0B58AB007464C78012C56D18D690C6912
:10400000A54200D325460A7B002A7ED00B6AC878D9
:10401000022800D0D7E006950D78AA00B85A3E468F
:10402000FD4F07400794A342089200D836E1FB48B1
:104030000743B752069FD81B05900862B05A50221A
:10404000B35A4006BAB20392EC00324650320492A0
:10405000012292020028099600D590E196193019A4
:104060000190C018478048690290039A002A3D4693
:1040700000D134E308893718501C430803241C403E
:10408000581E002C00D101E200900396029E307869
:104090007278120210183880012C00D0FAE1B41C9A
:1040A000BF1C00980346039EFEE2087B002852D006
:1040B000CA78012A00D1B7E0022A00D0EBE00E78DE
:1040C000002C00D09FE25020385A38180122069266
:1040D000920207928018851C0896F300E85ADC4A81
:1040E0001040E8520E6909975037DA4C3F2E00D243
:1040F0007CE1F0067409002800D1641EA0025A5B1E
:104100000243D44CB03C144352E2012290022B04EF
:10411000089000D128E109973B18CC881B19ACB254
:10412000641C6608032737404C69701E002F00D1BD
:10413000FEE0079020786278120210181880012F94
:1041400000D041E1A41C9B1C07980646099F032848
:1041500000D3F0E008E15020385A099738180125BB
:10416000AA028018831D08780890C400185BB84A1A
:1041700002401A530F698E69F21B14D200228A6121
:10418000BE4213D23F2E14D3F00671090028099FB6
:1041900000D1491E089E8802E15A0143AE48B0385A
:1041A0000843E05272E28A61BE42EBD33E463F2EA4
:1041B000EAD2002E099F00D111E1185B3540710849
:1041C000491989020EE1581B08620878820008929A
:1041D000BA5A5023FC5A5606ABB2C200B81800199E
:1041E000012292028018002E00D582E045809B4C6F
:1041F000984D002B00D199E0B8180A898518581CF1
:10420000430803261E4049695C1E002E00D161E16F
:1042100008784A78120210182880012E00D00CE18C
:10422000891CAD1C234655E10A698B699D1A07D28A
:1042300000258D61934206D20E78002C08D025E22D
:104240008D619342F8D313460E78002C00D01DE206
:104250005020385A38180124A102079140183146DD
:10426000861C0891C900705A794A1040705209970B
:104270003D465035774F3F2B069400D2C1E0D8061B
:104280005C09002800D1641EA0028A5B02433C4600
:10429000B03C1443CFE101200AB0F0BD6E4838189D
:1042A0003038B052E80030185022B25A801801223B
:1042B0009202801843801804684C664D374635D00A
:1042C000B8180A89851898B2401C430803261E4076
:1042D00049695C1E002E00D122E108784A7812025A
:1042E00010182880012E00D0BAE0891CAD1C23468E
:1042F00016E1C580594C574D002B17D0B8184A8984
:104300008518581C430803261E4049695C1E002E70
:1043100000D12BE108784A78120210182880012E6B
:1043200000D0A8E0891CAD1C23461FE108995FE27C
:10433000099F032818D32078627812021018188079
:10434000A078E2781202101858802079627912025F
:1043500010189880A079E27912021018D880361FC0
:1043600008340833002EE6D15020385A089AD21962
:1043700010180978CA0080184580890036E296191D
:1043800030190190C018C78048690290039A002A2A
:104390003D4600D1FEE148893718501C43080324EC
:1043A0001C40581E002C73D000900396029E30785B
:1043B0007278120210183880012C77D1B41CBF1CFF
:1043C00000980346039ECAE1A078E2781202101812
:1043D0005880022F24D1B61E241D1B1D28E0185B17
:1043E0001D49B03901431953089E4FE1002E00D1F9
:1043F000DBE0E85A3246069C22407408A218940278
:10440000D5E0002B00D112E1705A1A4622405C0818
:10441000A21894020EE1C0460F0E00008081000039
:1044200020796279120210189880F61EA41D9B1D37
:10443000099F0798032897D37DE78878CA781202E6
:1044400010186880022E3DD19B1E091D2D1D41E0D4
:10445000FF030000B0800000B080FFFF3F0F0000AE
:104460008878CA78120210186880022E50D19B1EDC
:10447000091D2D1D54E08878CA7812021018688032
:10448000022E6BD19B1E091D2D1D6FE0029C0BE1BE
:10449000029C64E1B078F278120210187880022C45
:1044A00000D0F7E09B1E341D3F1DFBE0B078F27892
:1044B000120210187880022C00D046E19B1E341D99
:1044C0003F1D4AE108794A7912021018A880DB1EC4
:1044D000891DAD1D032C00D287E1FA4C08784A787B
:1044E0001202101828808878CA7812021018688082
:1044F00008794A7912021018A8808879CA791202BC
:104500001018E8801B1F08310835002BE6D14AE05F
:1045100008794A7912021018A880DB1E891DAD1D8A
:10452000032C00D261E1E74C08784A781202101897
:1045300028808878CA7812021018688008794A7929
:1045400012021018A8808879CA7912021018E8801F
:104550001B1F08310835002BE6D124E008794A7981
:1045600012021018A880DB1E891DAD1D032C00D27D
:104570003BE1D44C08784A781202101828808878D9
:10458000CA7812021018688008794A791202101845
:10459000A8808879CA7912021018E8801B1F083198
:1045A0000835002BE6D1089921E1E85AB03C0443D4
:1045B000EC520998079A10183A888018851DE85A15
:1045C000BD4A1040E8523F2E0DD3F0067409002872
:1045D00000D1641E099F089EA0025A5B0243B74C9B
:1045E000B03C14430EE0002E06D0E85A069C34403E
:1045F00072081219940202E0E85AB04CB03C04432D
:10460000099F089EEC52C86900283FD0B1007B5A30
:10461000AB480340834201D0002B37D1785AA94AD6
:10462000303A0240A8481018103078522EE0705AE4
:104630003C46B03C044374520998079A10182A88E3
:104640008018851D685A9C4A104068523F2B0CD335
:10465000D8065B090028089E00D15B1E98024A5BC1
:104660000243B03F17434F530FE0002B089E08D082
:10467000685A069C1C405A081219920202436A5258
:1046800003E0685AB03F07436F52099FB1008F4D56
:104690008F4CADE03079727912021018B880DB1EB1
:1046A000B41DBF1D039E0098032818D3207862789C
:1046B000120210183880A078E27812021018788060
:1046C0002079627912021018B880A079E27912027A
:1046D0001018F8801B1F08340837002BE6D1029809
:1046E00047194F610798059B834201D8002200E0DB
:1046F0005A1B049C0A62834200D81D462088019AF6
:104700001018C580AAB2002A6ED048893118501CF2
:10471000430803251D405C1E002D00D182E038783F
:104720007A78120210180880012D03D1BF1C891C51
:10473000234677E0B878FA78120210184880022DE4
:1047400068D19B1E3F1D091D6CE030797279120201
:104750001018B880DB1EB41DBF1D039E00980328EF
:1047600018D320786278120210183880A078E27886
:104770001202101878802079627912021018B8801D
:10478000A079E27912021018F8801B1F083408374C
:10479000002BE6D1029847194F610798059B834289
:1047A00001D8002200E05A1B049C0A62834200D810
:1047B0001D462088019A10184580AAB2002A13D0FD
:1047C00008893118501C430803251D405C1E002D2C
:1047D0004ED038787A78120210180880012D0ED148
:1047E000BF1C891C234643E0099F0899354C334D73
:1047F000785A20406840785200200AB0F0BDB8785E
:10480000FA78120210184880022D29D19B1E3F1DF4
:10481000091D2DE038797A79120210188880DB1E84
:10482000BF1D891D254D032C25D3264C38787A7859
:10483000120210180880B878FA781202101848800E
:1048400038797A79120210188880B879FA791202C8
:104850001018C8801B1F08370831002BE6D128E04C
:1048600038797A79120210188880DB1EBF1D891DE5
:10487000124D032C03D2099F0899124CB8E7114C32
:1048800038787A78120210180880B878FA7812020C
:104890001018488038797A79120210188880B8790F
:1048A000FA7912021018C8801B1F08370831002B34
:1048B000E6D1099F08999BE7FF030000B080000044
:1048C000404000003F0F0000B080FFFF80B00000BC
:1048D0000F3F000002464032002191804022024BEF
:1048E000835208467047C04680BF000080B502482A
:1048F000FCF728F980BDC046A40700204421405A97
:10490000704770B58018012292028018022B31D3B3
:104910005A0803251540541E002D14D006880E7029
:10492000360A4E70012D05D1891C801C2246032CAD
:104930000BD21FE046888E70360ACE70022D1ED133
:10494000921E091D001D032C14D304880C70240A28
:104950004C7044888C70240ACC7084880C71240AB2
:104960004C71C4888C71240ACC710830121F083134
:10497000002AEAD1DA0701D00088087070BD858866
:104980000D712D0A4D71D21E891D801D032CDCD2A4
:10499000F0E7002901D0002070474C2180224252CC
:1049A0000020704770B5002B3CD080180122920285
:1049B00080185A1C520803241440531E002C16D091
:1049C0000D784E78360275190580012C05D1891CA9
:1049D000801C1A46032B0CD224E08D78CE78360248
:1049E00075194580022C1ED1921E091D001D032B36
:1049F00018D30B784C782402E31803808B78CC789A
:104A00002402E31843800B794C792402E318838055
:104A10008B79CC792402E318C380121F0831083047
:104A2000002AE6D170BD0C794D792D022C198480B5
:104A3000D21E891D801D032BDBD2F3E7B0B5CD4814
:104A40000078002807D0CA490879421E9041000129
:104A5000097804220EE0C6480179002905D0817941
:104A6000481E81410022102004E0C178481E814187
:104A700000200246BE4B1C78651EAC4164000A4310
:104A80002243197C4C1EA141C90011430143D8792E
:104A9000002801D080200143C8B2B0BDF0B581B07C
:104AA000B24900254D73B24A1572087B022800D323
:104AB00028460873D071087A421E9041AD4A1070A2
:104AC0004E7A701E8641AA48C6708C7A601E2246B5
:104AD0008241A7480271CF7A781E8741A448477166
:104AE0000E31A5488022FBF721FBA1484572002C1E
:104AF00000D13746877101B0F0BDC046F0B5A5B012
:104B00008C20ED4C00272750EC48ED490126216010
:104B10006060A6602773677320468C30476020462C
:104B20000E303A498022FBF701FB6846902521466A
:104B30002A46FBF7FBFA249738466946CA5D821875
:104B4000C8194178511882788918C2788918027971
:104B500089184279891882798918C2798918027A64
:104B60008918427A8918827A8918C27A8918027B50
:104B70008918427B8918827B8918C27B8918027C3C
:104B80008918427C8918827C8918C27C8918027D28
:104B90008918427D8918827D8918C27D8918027E14
:104BA0008918427E8918827E8918C27E8918027F00
:104BB0008918427F8918827F8918C27F891820222C
:104BC000825C89182122825C89182222825C8918E1
:104BD0002322825C89182422805C08182537942FB0
:104BE000ABD1605163480670B74D0027AF80EF70BE
:104BF000EF71A7812F72604804498022FBF796FA73
:104C00002E746F72AF7125B0F0BDC04648650008C4
:104C1000F0B5A7B0AB490A680020A94B9A4200D072
:104C20009DE08A88022A00D099E0C988942900D0A2
:104C300095E04D48066802A8A24990242246FBF759
:104C400075FA00202690014602AA135CCB181118B1
:104C50004A789A188B78D218CB78D2180B79D21858
:104C60004B79D2188B79D218CB79D2180B7AD2180B
:104C70004B7AD2188B7AD218CB7AD2180B7BD218F7
:104C80004B7BD2188B7BD218CB7BD2180B7CD218E3
:104C90004B7CD2188B7CD218CB7CD2180B7DD218CF
:104CA0004B7DD2188B7DD218CB7DD2180B7ED218BB
:104CB0004B7ED2188B7ED218CB7ED2180B7FD218A7
:104CC0004B7FD2188B7FD218CB7FD2182023CB5C9E
:104CD000D2182123CB5CD2182223CB5CD2182323F9
:104CE000CB5CD2182423C95C511825309428ABD151
:104CF000B14236D1704D734928462246FBF716FA69
:104D00002E5100266E7370490E72287B022800D344
:104D100030462873C871287A411E884115490870A9
:104D20006C7A601E84416848C470A97A0191481E5B
:104D3000814165480171EF7A781E87416248477169
:104D40000E350D4880222946FBF7F0F95E480674BF
:104D500046720199002900D127468771012027B0AA
:104D6000F0BD002027B0F0BD907800084C04002072
:104D70009801002092010020E00A0020F0B5CDB09B
:104D800003AD4D49942428462246FBF7CFF94B4802
:104D900004904B48039028A890222946FBF7C6F9B7
:104DA00000204C90014628AA135CCB1811184A78B1
:104DB0009A188B78D218CB78D2180B79D2184B79F5
:104DC000D2188B79D218CB79D2180B7AD2184B7AA9
:104DD000D2188B7AD218CB7AD2180B7BD2184B7B95
:104DE000D2188B7BD218CB7BD2180B7CD2184B7C81
:104DF000D2188B7CD218CB7CD2180B7DD2184B7D6D
:104E0000D2188B7DD218CB7DD2180B7ED2184B7E58
:104E1000D2188B7ED218CB7ED2180B7FD2184B7F44
:104E2000D2188B7FD218CB7FD2182023CB5CD2181C
:104E30002123CB5CD2182223CB5CD2182323CB5C5A
:104E4000D2182423C95C511825309428ABD127915E
:104E500000250295FBF7E8FB01262A96194F2997B2
:104E6000289528A802A9FBF74FFA002804D0FBF7E1
:104E7000BBFA28464DB0F0BD01969320C64303A867
:104E800080190259F1199431022000252B46FBF7B5
:104E9000B5FA0028EBD1361DF1D1FBF7A5FA06488B
:104EA00003A99422FBF742F9074800210174019DF0
:104EB00028464DB0F0BDC0464C04002002009400CE
:104EC000EFBEFFC0007800089801002070B584B0E4
:104ED000054600240094FBF7A7FB012003900D4E2C
:104EE0000296019401A86946FBF70EFA002804D047
:104EF000FBF77AFA204604B070BD02200023314649
:104F00002A46FBF77BFA44424441FBF76DFA204600
:104F100004B070BD007C000800B5BFB0FBF78AFC90
:104F200000261D961E96219620961F961C961B966F
:104F30000120229022241A94269601052591C1036E
:104F40002491022523951D9010201E9011961096F5
:104F50000F960E961AA8FCF721FD002803D0EFF358
:104F6000108072B6FEE70A941996189617950727CF
:104F7000169716A801242146FCF752FC002803D0FE
:104F8000EFF3108072B6FEE7059707951296650459
:104F90000D950DA8FCF7AAFB002803D0EFF31080B5
:104FA00072B6FEE71E961D961C961B961A96A105D4
:104FB000B64802680A43026002680A400D920D99E1
:104FC000016829430160016829400D910D99A104F0
:104FD00002680A430260006808400D900D9809209D
:104FE0000390C5060A21089128463246FBF70BFCC0
:104FF0001F200101A6483246FBF705FC1C961B96B4
:10500000052009901A901AAF28463946FBF720FB75
:105010001D961C961B9408981A9028463946FBF753
:1050200017FB07981C901B96C0201A900C952846D9
:105030003946FBF70DFB07981C901B961A94944D6C
:1050400028463946FBF704FB1C961B9607981A90D6
:1050500028463946FBF7FCFA1D961C961B94FF2543
:105060005E35284693301A9089483946FBF7F0FAA6
:10507000EF48F0493022F04B036042608660C16027
:1050800006614661866119961896179615961496CC
:105090002096FCF73BFF002803D0EFF3108072B698
:1050A000FEE70B9520031690E14816A9FCF7B2FF26
:1050B000002803D0EFF3108072B6FEE7DC48FDF75E
:1050C000B7F9002803D0EFF3108072B6FEE7D84896
:1050D00014A9FCF7F5FE002803D0EFF3108072B698
:1050E000FEE70F96D5480E9060200D901096119611
:1050F00012961396CE480DA93246FDF763F80028A4
:1051000003D0EFF3108072B6FEE71E961D961C9634
:105110001B961A96219660031F90C5481AA9FCF7A2
:10512000A1FE002803D0EFF3108072B6FEE70494CE
:10513000BF48FDF71DF8C2480168C24A914200D03D
:10514000A8E08188022900D0A4E0C088942800D07B
:10515000A0E0BD4805681AA8B94990273A46FAF771
:10516000E5FF00203E9001460A9C1AAA135CCB186A
:1051700011184A789A188B78D218CB78D2180B79F4
:10518000D2184B79D2188B79D218CB79D2180B7AE6
:10519000D2184B7AD2188B7AD218CB7AD2180B7BD2
:1051A000D2184B7BD2188B7BD218CB7BD2180B7CBE
:1051B000D2184B7CD2188B7CD218CB7CD2180B7DAA
:1051C000D2184B7DD2188B7DD218CB7DD2180B7E96
:1051D000D2184B7ED2188B7ED218CB7ED2180B7F82
:1051E000D2184B7FD2188B7FD218CB7FD2182023B6
:1051F000CB5CD2182123CB5CD2180B5DD2182323B1
:10520000CB5CD2182423C95C511825309428ACD12A
:10521000A9428C4A3ED1C54E894930463A46FAF7F2
:1052200085FFF551C2480021017471730A91017222
:10523000307B022800D30A983073BD4AD071317A8E
:10524000481E06918141BB480170F57A681E854170
:105250005571B77A781E394681411171747A601E92
:105260008441D4700E36B44880223146FAF75EFF8E
:105270000A98AF494872002F00D12546AC48857185
:105280000698464246412E4086E0C0461410024031
:10529000000400488C20A54F3E50A84801253A60E4
:1052A0007860BD603E737E7338468C304660384609
:1052B0000E30BB498022FAF739FF1AA890243946EC
:1052C0002246FAF733FF3E9630460A9B1AA98A5DBA
:1052D000821888194178511882788918C2788918FB
:1052E000027989184279891882798918C2798918CE
:1052F000027A8918427A8918827A8918C27A8918BA
:10530000027B8918427B8918827B8918C27B8918A5
:10531000027C8918427C8918827C8918C27C891891
:10532000027D8918427D8918827D8918C27D89187D
:10533000027E8918427E8918827E8918C27E891869
:10534000027F8918427F8918827F8918C27F891855
:105350002022825C89182122825C8918C25C89180B
:105360002322825C89182422805C08182536942E1A
:10537000ACD138516F4805706D4C0026A680E670A0
:10538000E671BE8126726C4885498022FAF7CEFE0E
:10539000049820746672A6712420654D012106913F
:1053A00029540020A881A87028800A90A861079835
:1053B000687408210C9801913246FBF724FAFDF736
:1053C00047FCA7208400B04E305D032805D00A209A
:1053D000FAF788FF305D0328F9D1574C089E04E0A6
:1053E000022100223846FBF70EFAE879002812D095
:1053F00000F008FFA97B8842099F00D081E0E97B8B
:10540000CAB2032A00D3CDE0491CE973A97A022A63
:1054100000D07AE07AE000F0F1FC6873582800D9F7
:10542000FDE1012109A24000105A40008744C04616
:10543000980A00200F270000002C0140871300006D
:1054400000780008EFBEFFC090780008FC01F7016B
:10545000F701F701F701F701F701F701F701F7018C
:10546000F701F701F701F701F701F701F701F7017C
:10547000F701F701F701F701F701F701F701F7016C
:10548000F701F701F701F701F701F701F701F7015C
:10549000F701F701F701F701F701F701F701F7014C
:1054A000F7016700F701BE01F701F701F701F70106
:1054B000F701F701F701F701F701F701F701F7012C
:1054C000F701F701F701F701F701F701F701F7011C
:1054D000AF01F70197019B01F701F701B101B3019A
:1054E000BB01B90195019D019901F701F701F70190
:1054F0009301B501F701B701F701F701BD010321E0
:1055000054E10699E973A873A97A084600294CD199
:1055100000284AD0A8722B382D2800D919E1012182
:1055200007A24000105A40008744C0464C040020A7
:105530009801002092010020E00A0020020094005F
:1055400038001301E60113011301130113011301C4
:1055500013011301130113011301130113011301AB
:105560001301130113011301130113011301D101DD
:105570001301DF01E10113011301D301D701D901A7
:10558000E501E301B901D501130113011301CF01B5
:10559000B7011301DB0113011301DD010321ABE1AD
:1055A00048650008A97A0029B2D000292DD000282A
:1055B0002BD164480278504250414D29049900D1C2
:1055C000014601291ED10A9CAC74294611310222E0
:1055D0002D4F3846FDF7B3FD1E263046FAF782FE02
:1055E00025202C5428462530C47084704470564CB5
:1055F0002946243108223846FDF7A1FD3046089E91
:10560000FAF770FE0A98A872B8E1002900D1B8E153
:10561000002800D1B5E1884200D1B2E1494A1378AF
:105620005A425A414D29049900D1114601291FD1EE
:105630000A9CAC7429461131022202901248FDF7EF
:105640007EFD1E263046FAF74DFE25202C542846B6
:105650002530C470847044703B4C294624310822A4
:105660000948FDF76CFD3046089EFAF73BFE0298AC
:10567000A8722B382D28059A039B6AD8800003A1B5
:10568000095806988F46C046E00400204D57000890
:10569000535700084B5D0008535700085357000844
:1056A0005357000853570008535700085357000832
:1056B0005357000853570008535700085357000822
:1056C0005357000853570008535700085357000812
:1056D0005357000853570008535700085357000802
:1056E0005357000853570008295D00085357000816
:1056F0004F5D0008555D00085357000853570008D8
:105700002D5D0008375D00083D5D00085F5D000805
:10571000595D0008015D0008335D0008535700081B
:105720005357000853570008235D0008FD5C00082C
:1057300053570008435D00085357000853570008AB
:10574000495D000892010020E00A00200320C0000B
:10575000D3E0A87CF3E0062128E0042126E008211C
:1057600024E0052122E0092120E0F8480178012900
:1057700000D06EE125200021295428462530C17033
:1057800081704170287801214140297047E00A2149
:105790000CE00B210AE00C2108E0072106E00221C1
:1057A00004E00E2102E00D2100E00F21C8002018C6
:1057B000F2490978002910D0297800290DD0C17943
:1057C000002922D0252100226A5429462531CA7099
:1057D0008A704A708079A87421E0C17800290AD0C3
:1057E000252100226A5429462531CA708A704A70E0
:1057F0008078A87413E00021A9742A462432037823
:1058000053701171D170407808E00021A9742A46C4
:105810002432037953701171D17040799070012056
:1058200028739620FAF75EFD287B012800D0A8E0B7
:10583000A87C002810D02C4611340226D04F3846C0
:1058400021463246FDF77BFC1E20FAF74BFD002077
:10585000A8743846214615E02F4624370826C84C40
:10586000204639463246FDF76AFC1E20FAF73AFD1B
:1058700025200021295428462530C17081704170AF
:10588000204639463246FDF75AFC1E20FAF72AFD1B
:1058900000202873089EBB4C73E007212CE0B7481A
:1058A0000078012800D12FE22979012903D1A979B3
:1058B0004A424A41AA710A996972002800D16EE2EF
:1058C0002878002800D065E269E2062114E00A2168
:1058D00012E00B2110E005210EE00C210CE00D215F
:1058E0000AE0022108E00F2106E0082104E0092176
:1058F00002E0042100E00E21C80020189F49097829
:1059000000290FD0297800290CD0C17900291FD097
:1059100025210A9A6A5429462531CA708A704A702C
:1059200080790BE0C17800290FD025210A9A6A54AA
:1059300029462531CA708A704A708078A874002878
:1059400013D029461131022212E00121024601E062
:10595000021D05210A9CAC742B46243312785A7020
:105960001C71DC70405C9870864C294624310822FA
:105970008348FDF7E4FB1E20FAF7B4FC1E20FAF77B
:10598000B1FC687A002811D17C48007801280C9875
:1059900001D12A7807E02979012901D1AA7900E00B
:1059A000EA78511E8A410821FAF72DFFFAF734FFF1
:1059B000E861A969411A642900D216E5A861A878AE
:1059C000012817D0002800D08DE002216E48FAF798
:1059D00015FF002800D086E068480078002811D024
:1059E000287800280ED07F20205C00284FD0204649
:1059F0007E300DE002216448FAF700FF00280A9883
:105A000070D170E07B20205C00281DD020467A30C9
:105A100025210A9F6F5429462531CF708F704F7012
:105A20000078A874002840D02C4611340226F24891
:105A300021463246FDF783FB1E20FAF753FCAF7474
:105A4000ED482146324645E02046793021467831FE
:105A500021E02879012803D1A87942424241AA7164
:105A600000206872002900D109E12978002900D1BD
:105A700005E1E179002900D1AFE1252168542946EB
:105A80002531C87088704870A079A874C7E6204690
:105A90007D3021467C310A9FAF742A462432097832
:105AA00051701771D770007890702E4624360824F4
:105AB000D14831462246FDF742FB1E20FAF712FC80
:105AC00025202F5428462530C77087704770CA4854
:105AD00031462246FDF733FB1E20FAF703FC012076
