:020000040800F2
:10000000E00E0020D50000081D2D0008C52C0008BA
:1000100000000000000000000000000000000000E0
:10002000000000000000000000000000212D00087A
:1000300000000000000000001F2D0008232D000814
:100040000501000805010008050100080501000878
:100050000501000805010008050100080501000868
:100060000501000805010008050100080501000858
:100070000501000805010008050100080501000848
:100080000501000800000000000000000501000854
:100090000000000005010008050100080501000836
:1000A0000000000005010008050100080501000826
:1000B000050100080000000005010008654900086E
:1000C0000348854600F064F8004800475955000889
:1000D000E00E00200C4880F308880C480168090EE7
:1000E0000B4A914205D10B480B4901600B480C4962
:1000F00001600C4880470C480047FEE7FEE7FEE73A
:10010000FEE7FEE7FEE70000E00E0020040000002E
:100110001F00000018100240010000000000014014
:1001200000000000B12D0008C100000803460B4389
:100130009B0703D009E008C9121F08C0042AFAD29D
:1001400003E00B780370401C491C521EF9D2704723
:1001500070B50446002903D000202022012310E0BE
:10016000002801D00020C043C046C0460DE025460F
:10017000D5408D4205D30D469540641B1D469540E4
:1001800040191546521E002DF1DC214670BD0000BD
:100190001CB5094800900948019005460126009CBD
:1001A00005E0E36807CC33430C3C98471034AC427D
:1001B000F7D3FFF789FF0000546300087463000859
:1001C00070B58C180578401C6B075B0F01D1037864
:1001D000401C2A1106D10278401C03E006780E70FC
:1001E000401C491C5B1EF9D12B0705D40023521E6D
:1001F0000DD40B70491CFAE70378401CCB1A921CF3
:1002000003E01D780D70491C5B1C521EF9D5A142FC
:10021000D8D3002070BDEFF3108072B6FEE7000067
:10022000F0B581B0044600F0E9FA0546F54E3068B5
:10023000C00715D13068800601D5202030603068B5
:10024000C00605D43068400702D4002001B0F0BDDC
:100250003068C00616D40020316849071BD421E05D
:100260000320002C20D0611C20D13068C007E1D0D1
:100270003068C007DED03068C007DBD03068C00708
:10028000F3D1D7E7DE48C16902220A43C2611020D8
:100290003168490706D5DA49CA6901231343CB619E
:1002A000042108433060012001B0F0BD074600F092
:1002B000A5FA401BA04203D83068C007F7D1B9E7C0
:1002C000384601B0F0BDC046B0B5044600F096FA1D
:1002D0000546601C02D004480078241800F08EFA0D
:1002E000401BA042FAD3B0BD08000020F0B583B097
:1002F0000546C34E307E012802D1022003B0F0BD76
:1003000000910120074630762C68BF48FFF788FF30
:10031000012C06D1002838460AD00021317603B0DE
:10032000F0BD002819D038460021317603B0F0BD69
:100330000020F061294C20680425284320602068B3
:10034000402101432160B048FFF76AFF2168A943BB
:1003500021600021317603B0F0BD00200290C1433E
:10036000009801606C68A8688002001984423846D1
:10037000D3D20195194F35460298F06138680226AC
:10038000304338607C6038684021014339609E48C2
:10039000FFF746FF3968B143396000280FD10120CB
:1003A00080022418019948688968890208188442E3
:1003B0002E46E0D302980021317603B0F0BD0099BB
:1003C0000C602E460021317603B0F0BD0348016871
:1003D00080220A43026000207047C046102002407D
:1003E000F0B587B0864D2C7E012C03D10224204627
:1003F00007B0F0BD059206910490039301242C767A
:1004000000F0FCF907467F4D2868C00708D07E4EF3
:1004100000F0F4F9C01BB0426DD82868C007F7D1CE
:100420002868800601D5202028602868C006744B03
:100430004AD42868400747D400200290D8616868F1
:1004400001273843686006980599018000F0D6F9C5
:1004500004462868C00708D06B4E00F0CFF9001B97
:10046000B0422ED82868C007F7D12868800601D589
:10047000202028602868C0060498614B00D5A4E0BD
:100480002968490700D5A0E06968012291436960A5
:100490000024012800D1AEE0DC61686801921043BD
:1004A00068600598000C0699488000F0A7F9064698
:1004B0002868C00722D000F0A1F9801B5249884269
:1004C000F6D903244E4B93E02868C00604D40020DC
:1004D0002968490708D40CE0D86902210143D96191
:1004E00010202968490704D5D9692143D96104211D
:1004F000084328607FE00324414B7CE028688006A5
:10050000039801D5202129602968C90604993C4B2C
:100510005BD42A68520758D46A68019EB2436A6065
:100520000222D243C91E914265D80491059200244B
:10053000DC616968314369600699888000F05EF982
:1005400006462868C00706D000F058F9801B2E49DF
:100550008842F6D9B5E72868800601D520202860B2
:100560002868C0060398264B2FD4296849072CD445
:100570006968019A914369600599049E8E423AD850
:100580000024DC61696811436960000C0699C88029
:1005900000F034F906462868C00706D000F02EF9AE
:1005A000801B19498842F6D98BE72868800601D557
:1005B000202028602868C006114B06D42868400710
:1005C00003D468680199884314E02868C00602993A
:1005D00004D5D86902210143D96110212868400758
:1005E00004D5D8693843D8610420014329603C46CA
:1005F0006868B843686000201876204607B0F0BDF0
:10060000B80A00200C20024050C300000648C16810
:10061000090601D4002070470449016004490160C3
:10062000C068C0B2C009704704200240230167457A
:10063000AB89EFCDF0B58CB002900C68002C00D1E6
:10064000C3E06348029A824201D0052000E0022004
:1006500000902032019200231D460A9309910CE07C
:1006600032433A605B1C0C682046D8400A9A121D3F
:100670000A92AD1C002800D1A7E0012706979F40F1
:100680003C400794EED0039303200246AA40D24395
:100690002B464D682E460640741E012C059504938A
:1006A00013D80892029A9068089C2040CC689C401D
:1006B00004439460E806C00F039B98405468BC4311
:1006C0001746089A04437C6007E0032E029F039BB1
:1006D00003D106460599049D1FE0F868104009996A
:1006E0008C68049DAC400443FC60022E059914D133
:1006F0001C200A9908400F218140DC08A400019EBB
:1007000036598E430892099A116981403143019804
:1007100001515168089A03260E40AE4038681040D7
:10072000304338608803800F09999BD05D49086881
:10073000069C20430860086820400B9003201E465A
:1007400086430B98244831580920C006029A8242F9
:1007500005D022488242009F02D1274600E00027B0
:100760000C200A9A10400F248440A1431A4AB4185E
:1007700087400F432760174FBA6809994868C40239
:1007800010D5079E3243BA60FA68840210D4B2438F
:10079000FA607A68840310D4B2437A603A68C0037E
:1007A00011D55DE7079EB243BA60FA688402EED5C0
:1007B0003243FA607A688403EED532437A603A684D
:1007C000C00300D54CE7B2434BE70CB0F0BDC046C8
:1007D00000080048000401400800014000040048EF
:1007E00000690840411E88417047002A02D0182243
:1007F00081507047282281507047000005480068EA
:100800007047C0461B48007802490A681018086003
:100810007047C046D80A002080B5064801681022FB
:100820000A430260032000F007F800F027F80020D8
:1008300080BDC0460020024070B504467D20C00047
:100840000C4E3178FFF784FC01460B480068FFF737
:100850007FFC01F0DFFA0125032C08D8002806D11F
:100860000025E84321462A4600F02AF8746028460D
:1008700070BDC04608000020A800002082B00948D2
:100880000168012211430160016811400191019941
:10089000110742680A43426040680840009000988F
:1008A00002B0704718100240002805D41F210840EC
:1008B00001218140014801607047C04600E100E02D
:1008C000002805D40322034693430A4A9A1803E0FA
:1008D0000C220240064BD2188007C00E8901C9B213
:1008E0008140FF238340106898430843106070479D
:1008F00014ED00E000E400E0F0B502685423D15AA2
:1009000001242143D15217214D0100214155D65ACE
:1009100002273743D752401984600846F0BD70471C
:1009200010B50C060FD428244C4300192D21C90002
:100930004018002A0FD003811B0C01210A22835288
:100940000173002010BD0724214028244C430019C6
:100950002830002AEFD100210622835201730020A3
:1009600010BD80B52F221201835828224A438018D7
:10097000C26B184602F012FD80BD80B52F22120115
:10098000835828224A4380185F22920082581846D2
:1009900002F06FFD80BD10B54BB22822002B13462C
:1009A00001D42D23DB00C31807240C4062439C5460
:1009B0009A18C90951705521C900435C012B01D116
:1009C000022010BD4418012121700068114603F077
:1009D0007BFA0020207010BDB0B50F220A4043689A
:1009E0009A4201D90120B0BD4BB22822002B1346F8
:1009F00001D42D23DB00C31807240C4062439C5410
:100A00009A1800249470C90951705521C900435C9B
:100A1000012B01D10220B0BD4518012129700068C9
:100A2000114603F0CFFA2C702046B0BD70B50C46CD
:100A30004DB22821002D0D4601D42D25ED0045197C
:100A40000726264071436E5469180A61E2094A700C
:100A5000CB70022B01D100220A715522D200835C97
:100A6000012B01D1022070BD841801222270006880
:100A700003F00EF90020207070BDB0B507240C40C3
:100A80002821614341182D25ED004C5549190024BA
:100A90000D4614351CC54C70006803F0E5FA20467D
:100AA000B0BDB0B507220A4043689A4201D901207F
:100AB000B0BD4CB2002C134600D40B4628256B4326
:100AC000002C01D42D24E5004419E254E21801233E
:100AD0009370C90951705521C900445C012C01D1A2
:100AE0000220B0BD441823700068114603F09EFA3E
:100AF00000202070B0BDF0B581B007240C4028253F
:100B00002946614341184C2601278F554C55002436
:100B10000D463C351CC58B6428314F70006803F0CE
:100B2000A3FA204601B0F0BDF0B58FB007460068CB
:100B3000394624310C9103F01DFF01041ED4FE49F7
:100B4000891F084222D05520C0003C183868442133
:100B5000425AFA4B13404352384600F031FD207898
:100B6000012811D000250C980570012020703868EC
:100B7000294603F04AFF25700FB0F0BD38684421C4
:100B80000E91415E002920D40FB0F0BD410400D584
:100B90009DE3810400D5A3E3172149017A18C1041C
:100BA00000D5A5E3010500D5BFE3010600D5D5E3D7
:100BB000810500D5E2E3C005E6D538684421425AF4
:100BC000DF4B134043520FB0F0BD2D21C9007918FF
:100BD0000B91014644312B221201BA1805920C9A4E
:100BE000121D09920123DA030D921A020892DA0209
:100BF000049203221203029201939A0307920A9726
:100C000020E05021415ACC4A821851180B9C22787E
:100C1000D2008B5ACB490B40E361E288059903F07F
:100C2000ACFE38680188C84A114080220A4302801D
:100C3000384600F004FD38680E99425E01464431A2
:100C4000002AA1D50A880F24144007D0A100425ED3
:100C500095B2002A31D42806EDD53DE10021415E50
:100C6000D20662D4B84A11400D9A11430180B249AC
:100C700009185022805A08180C9C2179C900401884
:100C8000001F0088AF4908407864F96B0818F863C2
:100C9000002638463146FFF764FE20780028CAD087
:100CA000386C0028C7D10C9B187880210143C8B24A
:100CB00039684C2288521E70BDE741180A88A24B41
:100CC0001A40802313430B80282161430B9A561846
:100CD000317B002972D0F17802297CD15021415A10
:100CE0000A183178CB009B18B269079F3D4200D0AB
:100CF0008CE0914FDF5B934B1F40D31B00D3A7E0E9
:100D00000023B361BA4200D9A6E08A000692835A52
:100D10008E4A13408E4A5340069A83526A0600D484
:100D20009DE0002F00D0B4E0B9E00A0500D568E7E7
:100D3000002900D47FE70188834A114080220A43BA
:100D400002807D4941185024025B89180B9D2A7846
:100D5000D2008B5A7B490B40EB6110D02A4669695F
:100D600000290CD01546D28803F007FEE8696969AE
:100D70000818686100213846FFF7FFFD38680188D0
:100D8000049A114200D056E7029A1140914200D1D4
:100D900051E7015B684A8218535A6A4C2340535208
:100DA0000B9B1B693F2B00D2CFE1DC065B09002CBB
:100DB00000D15B1E9C028B5A234337E25021415ADB
:100DC0005D4A821851183278D2008F5A5D490F401F
:100DD00065D0F2885EE031788A00835A5A4F3B40F2
:100DE0000D9FFB18C0338352835AC9000A18502143
:100DF000415A564FF1373B4245D04F4B9A18511844
:100E0000091F0F884F490F403BD148E04A4FFB185C
:100E10001B1F1F884B4B1F40D31B2BD20023B361DA
:100E2000BA422AD88A000692835A484A1340484A4E
:100E30005340069A83526A0621D58900425A424B92
:100E40001A400D9B9A18C0324252002F19D126E049
:100E5000B361BA4200D858E76A0600D561E7890055
:100E6000425A394B1A400D9B9A18C0324252002FF9
:100E70000FD114E0B361BA42D4D96A06DDD4002F91
:100E80000DD0328906E02C4BD218575A2D490F400D
:100E900005D0728971693B4603F06FFD00E00027C1
:100EA000F069C019F0617069C0197061B0690028FB
:100EB00002D03069B84207D931780A9F3846FFF727
:100EC0005CFD280608D4B6E60A9F3868314603F070
:100ED000CBF8280600D4AEE6600041003868425ADC
:100EE000194B1A400D9B1A43425228216143099A1B
:100EF0005618F17801292DD10021B161327B002AE9
:100F000000D11DE16A0600D588E07278012A00D17F
:100F100003E1002A00D013E15021415A064A80180B
:100F200040183178C900425A064B1A404252425A80
:100F30000D9B1A43425203E106040000FFFB000030
:100F4000FFFE0000FF0300000F0F00000F3F000036
:100F500080A0000008990D421DD15021415AFD4A40
:100F6000121852183178CB00D218121F1288FA4B7F
:100F70001A40B3699C1A00D20024B461934200D88D
:100F8000DFE0716989187161F1698918F161314691
:100F900003F06AF84FE65021445A3178CA00171816
:100FA000B3690246503206926A0650D4F24ABA1821
:100FB0000392175BE84A1740DA1B00D20022B261A5
:100FC000BB4273D9079A154206D18900425AFC4B9D
:100FD0001A40FD4B1A4342522421715C012900D072
:100FE00068E17169C9197161F269D219F2613369F5
:100FF000346A9C4200D3DBE0334624330022002CC9
:1010000000D122E11A70326223467278012A00D0A0
:10101000D4E0069A1288039CA3523FE17278012A19
:1010200000D183E0002A00D08AE05021415AE74AEB
:10103000101840183178C9004018001F0188DF4A95
:101040001140018001880D9A1143018078E0DF4A48
:10105000D7193A1F0392145BD84A14401A1B00D2C6
:101060000022B261A3423FD9079A154206D08900F7
:10107000425AD34B1A40D44B1A4342522421715C3A
:10108000012900D016E1716909197161F26912191B
:10109000F2613769336ABB4200D3A7E0324624329B
:1010A00000251570002B00D0A2E0A3E07078012885
:1010B00054D000280A9F5BD10698028803988218B2
:1010C000131F1A88BD4C22401A801A880D9C224397
:1010D0001A80069A1388C25AB84C2240C252C25A89
:1010E0000D9C2243C25243E07078012847D000286B
:1010F0004CD1069804880398025BB04B1A40025307
:10110000025B0D9B1A430253069800883A5AAB4C77
:1011100022403A523A5A1A4337E05022825AAB4B95
:10112000C01880183278D200815209E05022825AC9
:10113000A64B181880183278D2008018001F018042
:1011400031783846FFF70DFC75E5002B6DD0545A09
:101150005D08019E3340EB189B0268E0069B1888EF
:10116000039C2018001F00220280188822520A9F28
:101170003846FFF7F6FB079805420ED09AE0069B2B
:1011800018880022039C225218883A520A98FFF7C6
:10119000E8FB0798054200D18CE00A980068317896
:1011A0008900425A864B1A40874B1A43425281E0CB
:1011B000E21A32627278012A00D12AE7002A6DD140
:1011C000069A1288039FBC5A7C4D2C40BC523F2B80
:1011D00041D3DD065C09002D00D1641EA402039FEB
:1011E000BD5A25430D9C2543BD5257E0DD1B3B46B0
:1011F00035621C467278012A22D0002A56D1069AFE
:101200001288039FBB5A6D4D2B40BB523F2C31D3EC
:10121000E5066309002D00D15B1E9B02039FBD5AAA
:101220001D430D9B1D43BD5240E0535A0D9C23436B
:1012300053520188634A1140654A51400180FAE4E3
:10124000069A1288039B9C5230E01A703B467278D3
:10125000012AB3D1DDE6002B1BD0039CA55A0695CD
:101260001D46019F3D405F087D19AD02069F3D432D
:10127000A55213E0002C14D0039B9D5A06952546D9
:10128000019F3D4067087D19AD02069F3D439D5279
:101290000CE0039FBC5A0D9D2C43BC5272899BB23B
:1012A00006E0039FBB5A0D9D2B43BB523289A3B26C
:1012B00003F0B4FB0A9F386831788900425A404BEA
:1012C000303313400D9AB0325A404252B3E438687A
:1012D0004421425A3F4B813B134043520FB0F0BD73
:1012E00038684421425A3C4B134043520FB0F0BD82
:1012F00038684021435A0424A3434352435A0824E4
:10130000A34343521078012804D1002111703846BC
:10131000FFF705FB384600F065F938684421425A6A
:101320002E4B134043520FB0F0BD38684021425A53
:10133000082313434352024640329388284C1C40F2
:101340009480425A042313434352384600F0AEF9C6
:101350000FB0F0BD06040000FF0300003868403005
:1013600081888023994381801178002911D03846E3
:1013700000F09CF90FB0F0BD06040000386844216D
:10138000425A184B13404352384600F03DF90FB013
:10139000F0BD018804230B430380018808230B431D
:1013A000038001211170808A80083C230340536030
:1013B0003846FFF7B4FA0FB0F0BDC046FF03000097
:1013C0000F0F00000F3F000080C000000604000067
:1013D00080B0000080C0FFFFFFDF0000FFEF0000D3
:1013E000FFF70000FFFD0000F0B58BB0002800D132
:1013F000C0E004465520C00025186878002804D1B4
:1014000000202870204600F0B9F8204624300590CE
:101410000320069509906870206802F0C9FD0794C2
:1014200060680A90002800D182E0079B28330026DC
:101430003746089628204743DE55DC190899216174
:101440006161A161E1700122627034461443E7B228
:101450000A9DBD422AD94743DC55DC190027276184
:101460006761A761E770627002243443E5B20A99AC
:10147000A9421BD945435C555C1927616761A76187
:10148000E7706270344609990C43E5B20A99A942A3
:101490000CD945435C555C1927616761A761E7700A
:1014A0006270361DF7B20A99B942C3D808922D214D
:1014B000C900079B5B180026374635464743DD5574
:1014C000D9190E614E618E61CE704E702C4608990E
:1014D0000C43E1B20A9F8F422AD941435C54591808
:1014E00000270F614F618F61CF704F7002242C4332
:1014F000E1B20A9A8A421BD941435C5459180F61E0
:101500004F618F61CF704F702C4609990C43E1B247
:101510000A9A8A420CD941435C5459180F614F61B1
:101520008F61CF704F702D1DEFB20A99B942C5D8A7
:10153000079DA8680990EB6829696C692F461837E0
:10154000C4CF28680091019402A9C4C10A99099ADC
:1015500002F024FD0020059908700121069A5170BF
:10156000E969012904D104462846FFF7C5F9204658
:101570000BB0F0BD01200BB0F0BD000010B582B083
:1015800000680D49884201D002B010BD0120C0059D
:101590000A490A6802430A600968014001910198FA
:1015A0001F24002120460A46FFF78AF92046FFF74C
:1015B0007BF902B010BDC046005C00401C10024028
:1015C000B0B504468068022801D0FEF724FE2F2023
:1015D00005016059012102F04EF8605902F006F849
:1015E000B0BD000010B504468069002806D0374819
:1015F000016806229143016001F097FB2F20000152
:10160000205802F020F810BD80B52F210901405864
:1016100002F023F880BD10B55522D200835C012B67
:1016200001D1022010BD841802462432117001221B
:101630002270006803F0E9F90020207010BD80B529
:101640002F21090142582B2109014118104602F0AF
:1016500025F880BDB0B55521C900425C012A01D1F1
:101660000220B0BD441801212170016805460846DA
:1016700003F06CF9286802F07FFC00202070B0BDF8
:10168000B0B55521C900425C012A01D10220B0BD8C
:1016900044180121217001680546084602F088FCC3
:1016A000286802F071FC00202070B0BD10B504461F
:1016B0002F200001205802F05BF8A069002804D018
:1016C0000248016806220A43026010BD10ED00E0E6
:1016D000F0B587B004468078C007474F4FD001204F
:1016E000059001073A1F10680840049006D1106861
:1016F0000843106010680840069006980292039113
:101700003E4F3868C00512D4059806023868304349
:101710003860FFF773F805463868304207D1FFF7A5
:101720006DF8401B6428F7D9032007B0F0BD0320F3
:1017300001900002304F3968014012D062680240C7
:1017400091420ED00598000439683A6802433A6025
:101750003A6882433A600846294A10403860C80710
:101760003AD13868264908406168014339600498D5
:10177000002804D1029A10680399884310602168F8
:10178000C80708D188060ED4880314D40020490560
:101790001AD407B0F0BD386903229043A26802430F
:1017A0003A618806F0D5386910229043E268024316
:1017B0003A618803EAD5386980229043626902431E
:1017C0003A6100204905E4D53969402291432269F4
:1017D0000A433A6107B0F0BDFFF710F80546614EC5
:1017E00038688007BDD4FFF709F8401BB042F7D92D
:1017F000019807B0F0BDC0462010024000700040C4
:10180000FFFCFFFFF0B581B0002842D00D46044632
:10181000524B186801210840854208D91A680120F6
:1018200082432A431A601A680240AA4251D12068B2
:1018300082074B4E0CD5420704D5072212023368AB
:10184000134333603268F0239A43A3681343336031
:10185000C00721D1414A1168012001408D4205D2C3
:101860001168814311601168C90732D12178490795
:101870003B4F06D5072109023A688A43E1681143C4
:1018800039603B681907890F374A022912D214467A
:1018900055E0012001B0F0BD6268032A14D0022A8D
:1018A0002F4B0BD0181F012A15D100688003084662
:1018B0000FD514E003292CD12C4C40E0181F0068F0
:1018C0008001084605D50AE0254B186B80030846C1
:1018D00005D401B0F0BD006880070846F9D5186846
:1018E00003210091884310431860FEF787FF0646E6
:1018F0001C4F1B4800680C21014060688000814239
:10190000A8D0FEF77BFF801BB842F2D9009801B047
:10191000F0BD0321CD0399022B40090F144C645CE8
:10192000B96A0F260E401349895DAB4203D000040B
:101930008342104600E00D48FEF70AFC4443386835
:101940000006000F0C49085CC4400C4804600320EA
:10195000FEF772FF002001B0F0BDC046002002403B
:10196000041002408813000000127A00006CDC02B0
:101970000263000812630008F2620008A800002059
:10198000F0B587B004460120002C00D13CE2049061
:101990002078C007F64E05940CD071680C200140E9
:1019A000042900D08FE03068800303D560680028E8
:1019B00000D131E12078800721D570680007800FC1
:1019C0000ED070680C210140082900D098E0032057
:1019D000C003716801400120C003814200D08FE044
:1019E00030688007059C03D5E068012800D013E12A
:1019F0003068F82188432169C90001433160059CA2
:101A00002078000724D42078400736D42078C006F8
:101A100000D4CEE0706B059949694A1D00D1BDE044
:101A2000012900D03EE1042108437063706B01215D
:101A300001437163FEF7E2FE0546706B800700D537
:101A4000AFE0FEF7DBFE411B03200229F5D9DBE105
:101A5000706AE16900297ED0012108437062FEF7B7
:101A6000CDFE0546706A8007CDD4FEF7C7FE401B49
:101A70000228F7D9032007B0F0BD01200390010729
:101A8000F0690840029006D1F0690843F061F069FE
:101A90000840069006980191DC4F3868C00546D48E
:101AA00003980402386820433860FEF7A7FE054615
:101AB000386820423BD1FEF7A1FE401B6428F7D9CD
:101AC000032007B0F0BD71680140082908D1032048
:101AD000C0037168014001200004814200D162E727
:101AE0006268306801214F04002A00D129E1052AEB
:101AF00000D11FE1012A00D03CE1090408433FE185
:101B00003068059CE168002937D001210843306026
:101B1000FEF774FE05463068800700D568E7FEF7DB
:101B20006DFE401B0228F6D9032007B0F0BD0598D2
:101B30008168306AB64F002900D1DDE0052900D167
:101B4000C5E0012900D1C6E0039988433062306ABC
:101B500004218843C1E0012188437062FEF74EFEF4
:101B60000546706A800700D44DE7FEF747FE401B2C
:101B70000228F6D9032007B0F0BD01218843306068
:101B8000FEF73CFE05463068800700D437E7FEF7D5
:101B900035FE411B03200229F5D935E10421884394
:101BA0007063706BF821884305998969C900014306
:101BB00071630598007880060BD571680C20014090
:101BC0000C294DD1706B800303D50598006A01285C
:101BD00022D10598446A002C1BD070680C2101406A
:101BE00008291CD1012C17D00320C20370680240C1
:101BF000F16A059CA36A9A420ED10F221140236B11
:101C0000994209D191040840E16A8842049800D0C1
:101C1000FAE0002007B0F0BD049807B0F0BD012045
:101C2000020631680492914331604706FEF7E6FDF3
:101C30000546022C0AD13068384200D1C3E0FEF7D5
:101C4000DDFD411B03200229F5D9DDE03068384273
:101C5000DFD0FEF7D3FD411B03200229F6D9D3E0E4
:101C600071680140082905D10320C0037168014053
:101C70008142A7D0706B0599096A002900D18FE0D5
:101C800001210A04104370634C04FEF7B7FD0546BA
:101C9000706B20429DD1FEF7B1FD411B032002294C
:101CA000F6D9B1E0042108437063706B01218843C9
:101CB0007063FEF7A3FD0546706B800700D478E7DC
:101CC000FEF79CFD411B03200229F5D99CE004216D
:101CD00008433062306A039908433062FEF78EFD94
:101CE0000546306A80071BD4FEF788FD401BB842CA
:101CF000F7D9032007B0F0BD039988433062306AFA
:101D0000042188433062FEF779FD0546306A80077A
:101D100006D5FEF773FD411B0320B942F6D973E0E7
:101D200002980028059C00D070E6F069019988436C
:101D3000F0616BE68A0410433060090430680843A0
:101D40001EE00A04904330608804316881433160AA
:101D5000FEF754FD0546059C3068384200D129E65F
:101D6000FEF74CFD411B03206429F5D94CE0C04629
:101D7000001002400A0490433060890430688843B0
:101D80003060FEF73BFD05463068384200D011E672
:101D9000FEF734FD401B6428F6D9032007B0F0BDE0
:101DA00001210A04904370634C04FEF727FD0546A9
:101DB000706B204200D10CE7FEF720FD411B032091
:101DC0000229F5D920E0F06A0F218843059A116BAA
:101DD0000143F1627B20C00371688143D06A0843EC
:101DE000916A014371603068049908433060FEF7DE
:101DF00005FD04463068384200D00AE7FEF7FEFCD5
:101E0000011B03200229F5D907B0F0BD0070004086
:101E100088130000401E010E01D0012070470749C1
:101E2000074A5060074803680B4003218907591887
:101E3000016000209060072111607047FFFFFF00E4
:101E400010E000E020ED00E070B53C22825C012A49
:101E500001D1022070BD03463C3300221A703F239B
:101E60001B02CC689C430F239D028E68AE43264321
:101E7000DB024C689C43344307231B030D689D43DE
:101E8000254303235B030C699C432C434B69234389
:101E90000124A403A343C96919430068416410469F
:101EA00070BD0000B0B53C22825C012A01D1022045
:101EB000B0BD02463C320223537000684368702470
:101EC000A3430D681D438468456001239D07A84214
:101ED00005D0B34DA84202D0374DA84204D1802589
:101EE000AC43496821438160002010705370B0BD3D
:101EF00070B5002828D005463C356978002905D101
:101F000000212970044600F061F820460221697022
:101F10000268166801218C07A24205D0A04B9A42A4
:101F200002D0254B9A4211D170239E4383683343DC
:101F3000224EB2420EDCA24215D01F4CA24212D059
:101F4000214CA2420FD034E0012070BD33461B4E1D
:101F5000B242F0DD924CA24205D0194CA24202D00E
:101F6000184CA24225D103242402A34304691C4334
:101F700080239C43836923431360C368D36243680F
:101F80009362874B9A4205D00D4B9A4202D00D4B7B
:101F90009A4201D1406910635161A972A970E97038
:101FA00029716971A971E9712972697269700020DA
:101FB00070BD1C46DCE7C04600040040FF2B01401A
:101FC00000480140004401400020004081B000680A
:101FD0007349884201D001B070470120C002054911
:101FE0000A6802430A60096801400091009801B044
:101FF0007047C04618100240F0B53C22825C012AAE
:1020000001D10220F0BD02463C3202235370504EF3
:102010003346773B0468A0681840A0600D68002331
:102020004F2D1FDC1F2D36DD202D38D0302D36D022
:10203000402D00D087E0206A256A0126B54325623D
:10204000A569F026B543CE6836012E43A6610A2560
:10205000A843496801432162A06847210143302019
:1020600081436AE06F2D26DD01204703BD4257D032
:102070000003854218461AD0702D64D1A068304004
:102080004D688E68C9682E43090231430143A1603F
:10209000A068772150E0002D01D0102D53D1A06809
:1020A00070218843054307202843A0601846137019
:1020B00001215170F0BD502D1BD0602D43D1102057
:1020C000C043256A054025620F252D03A669AE434E
:1020D000CD682D033543266AA561A025AE43496826
:1020E000090131432162A16867250D430540A560C0
:1020F00024E0206A256A0126B5432562A569F026F9
:10210000B543CE6836012E43A6610A25A843496827
:1021100001432162A06857210143202081430CE044
:10212000A56835404E688F68C9683743090239434E
:102130002943A1608003A1680143A1601846137080
:1021400001215170F0BD0120137001215170F0BDCB
:10215000FF00FFFF10B586B00021059104910391A7
:10216000029101910068DD4A904201D006B010BD95
:10217000012042040B4B1C6814431C601B68134075
:1021800000930222059204910391029200020190B1
:102190000920C006009901A9FEF74CFA06B010BD4F
:1021A000002C014014100240F0B582B03C23C35C07
:1021B000012B02D1022002B0F0BD03463C330224C1
:1021C000E241032A71D8C0467A44127952009744FA
:1021D0000156233A0268106A0125A8431062106A6A
:1021E000A0438E68064350680C6801949569BB4F04
:1021F000BA4206D0BC4CA24203D0BC4CA24200D092
:10220000BDE00C24A643CC680427BC43B34F344341
:10221000BA4200D0B6E0BBE0012425020268106A91
:10222000A84310626002146A844388680702274347
:1022300050680C680194D569A84CA2423AD03E4639
:10224000A24243D148E0012425030268106AA84352
:102250001062156A50688E6801960E680096D769FC
:102260009E4EB24205D0A04EB24202D09F4EB24224
:1022700069D1A603B0434E69B601064364E0026823
:10228000106A1024A0431062106A2024A0438C68B6
:102290002701074350680C68019494698F4DAA4246
:1022A00023D03E46AA422AD12FE0012000211970F6
:1022B00002B0F0BD0326B602B743554CFF3CCE68D2
:1022C00036022640854C3E43A24205D0864CA242AF
:1022D00002D0864CA24221D103242403A0434C699E
:1022E0008F6927433C01044319E0C026B743CE68F9
:1022F00036014025AE43794D3E43AA4205D07A4D82
:10230000AA4202D0794DAA424AD10325AD02A84380
:102310004D698F692F43BD00054342E004461046D6
:102320001C3054607324A543019C2543D5614C683F
:10233000D4631662D46908252543D561D469042580
:10234000AC43D4615AE0064610461C3056607326F2
:102350003602B743009E36023E43D6614E6816648D
:102360006603B543019E36032E431662E502D66925
:102370002E43D661A402D569A543D56127E0344632
:10238000BA4205D0584EB24202D0584EB24221D184
:1023900003263602B0434E698F6906433E431AE076
:1023A000054610461830556073252D02AC43019D3B
:1023B0002D02254395614C68946316620124E50261
:1023C00096692E439661A4029569A54395610969B2
:1023D000090214E006461046183056607326B543CD
:1023E000019E354395614D685563146294690825D3
:1023F0002543956194690425AC4394610969026899
:102400000A43026000200021197002B0F0BDC046EE
:10241000FFFBFFFF70B5002828D005463C356978E2
:10242000002905D100212970044600F063F82046F8
:10243000022169700268166801218C07A24205D04A
:10244000264B9A4202D0264B9A4211D170239E43CA
:1024500083683343234EB2420EDCA24215D0204C97
:10246000A24212D0224CA2420FD034E0012070BD13
:1024700033461C4EB242F0DD184CA24205D01A4C35
:10248000A24202D0194CA24225D103242402A34324
:1024900004691C4380239C43836923431360C368FE
:1024A000D362436893620D4B9A4205D00E4B9A4219
:1024B00002D00E4B9A4201D1406910635161A9725A
:1024C000A970E97029716971A971E971297269723C
:1024D0006970002070BD1C46DCE7C046002C01403E
:1024E00000040040FF2B014000480140004401402F
:1024F000002000407047000070B50023042815D16B
:10250000002913D0002A11D02D4DAC89002C0FD0FA
:10251000944200D314462A462832084611462246E1
:10252000FDF704FE0020A881204670BD184670BD4E
:10253000032A1C4642D3002048700420087021481A
:102540004478601E8441A87900281DD0A41CA87876
:1025500000281CD1687A00281DD168690E46002821
:1025600001D0102004430920C0060221FEF738F9EB
:10257000012816D030462979002918D040210C4373
:102580006979002916D117E0A8780028E2D0241D27
:10259000687A0028E1D0083468690E460028E0D146
:1025A000E1E720200443304629790029E6D1697902
:1025B000002901D080210C4384700324204670BD83
:1025C000A001002000000020B0B5042800D09DE24A
:1025D000002900D19AE2002A00D197E20878022A65
:1025E00004D3042802D14878521E491CA12800D9DE
:1025F00051E1830001A4E3589F46C04685280008A6
:10260000AB280008AB280008AB280008AB2800085E
:10261000AB280008AB280008AB280008AB2800084E
:10262000AB280008AB280008AB280008AB2800083E
:10263000AB280008AB280008AB280008C729000811
:10264000312A0008AB280008AB280008AB28000896
:10265000AB280008AB280008AB280008AB2800080E
:10266000AB280008AB280008AB280008AB280008FE
:10267000AB280008AB280008AB280008AB280008EE
:10268000FD2900080D2900085F2A0008ED28000830
:10269000A7290008AB280008AB2800083D2900083E
:1026A000AB280008AB280008AB280008AB280008BE
:1026B000AB280008AB280008AB280008992A0008BE
:1026C0008F2A00084B2A0008AB280008AB28000816
:1026D000AB280008AB280008AB280008AB2800088E
:1026E000AB280008AB280008AB280008AB2800087E
:1026F000AB280008AB280008AB280008AB2800086E
:1027000073290008AD2A00081B2A00087F2A000848
:10271000E3280008AB280008AB280008BD2A000801
:10272000AB280008AB280008AB280008AB2800083D
:10273000AB280008AB280008AB280008AB2800082D
:10274000AB280008AB280008AB280008AB2800081D
:10275000AB280008AB280008AB280008AB2800080D
:10276000AB280008AB280008AB280008AB280008FD
:10277000AB280008AB280008AB280008AB280008ED
:10278000AB280008AB280008AB280008AB280008DD
:10279000AB280008AB280008AB280008AB280008CD
:1027A000AB280008AB280008AB280008AB280008BD
:1027B000AB280008AB280008AB280008AB280008AD
:1027C000AB280008AB280008AB280008AB2800089D
:1027D000AB280008AB280008AB280008AB2800088D
:1027E000AB280008AB280008AB280008AB2800087D
:1027F000AB280008AB280008AB280008AB2800086D
:10280000AB280008AB280008AB280008AB2800085C
:10281000AB280008AB280008AB280008AB2800084C
:10282000AB280008AB280008AB280008AB2800083C
:10283000AB280008AB280008AB280008AB2800082C
:10284000AB280008AB280008AB280008AB2800081C
:10285000AB280008AB280008AB280008AB2800080C
:10286000AB280008AB280008AB280008AB280008FC
:10287000AB280008AB280008AB2800088329000813
:10288000BD280008AB4C2546283502F013F9A87086
:102890000420208537E1F02807D1A648A6498162A7
:1028A00081214900818506202EE12821A14A0423A7
:1028B00053542832FF219170507024E190B20528C2
:1028C00000D203E148788A7812021018CA781204FC
:1028D000801809790906401802F0DEFD0121414007
:1028E000F5E0F548984901854179F3E090B2022876
:1028F00000D2F2E04878411E88419149087302F005
:1029000017F9ED48012141720020E7E090B202285A
:1029100000D2E6E04978481E0A4682418848427261
:10292000002904D0017A002901D00021017202F0AF
:10293000FFF8E148012141720020D3E092B201206A
:10294000022A13D34978022910D8DC48C1707C4888
:102950004173D948012141720920C006FDF740FFAB
:10296000411E4842484102F0BDFD0020D249794A4B
:10297000C6E0D1487C49018528307149097A8170C7
:10298000C1E081480068CC490A462832D070002353
:1029900093707E4B0B85010E9171010C5171000AF1
:1029A00010710720B0E090B2022800D29DE0497873
:1029B000C14A01205072002050704B1E9941517144
:1029C0005F4A917392E092B20120062A13D34A78AB
:1029D0000B2A10D890005A4A10188A780274CA78C4
:1029E00042740A7982744979C17402F0A1F8B2483C
:1029F000012141720020B049524A81E090B2022880
:102A000077D34878411E88414D49087202F090F80A
:102A1000A9480121417200206CE0A7485049018576
:102A20002830474949898170090AC17004206BE048
:102A300090B2022802D348780B2868D99E483F49B3
:102A400001852830012181705DE002F0E7F89A48A5
:102A50000146283100228A704449018553E090B232
:102A600003284AD3487889780902081834494881EC
:102A700002F05EF890480121417200203EE08E484D
:102A80003549018528302E49097B81703BE002F0F1
:102A9000EFF88949364A03E002F068FA8649354A78
:102AA0000A850122424028318A702CE082482D4953
:102AB000018528302249497A817024E07E482449E2
:102AC000018528307D49C97881701CE002217A484F
:102AD0002C4A02852830817015E0012076491F4A72
:102AE0000EE001207449254A0AE001207249174A84
:102AF00006E001207049224A02E001206E491E4A88
:102B00000A852831887003206B498881B0BD6A49E5
:102B10000A4A0A85283188708000094A1018C27C48
:102B20008A71827C4A71427C0A71007CC8700720DD
:102B3000EAE7C046A001002004F0100104110000E3
:102B40007404002004100000044500000425000067
:102B5000044800000428000004440000042400008D
:102B6000044300000442000004410000043200005D
:102B7000043100000430000004230000042200009F
:102B80000421000004A10000007C000804A0000053
:102B9000F0B583B003285CD100295AD0002A58D060
:102BA0000C78032C02D1012A53D04C780920C70697
:102BB000A00712D4200733D43F4D002068610126BE
:102BC000AE71224632403D48427031023C48FDF72A
:102BD0000CFE2E716007C20F68E0374E002474614E
:102BE000B4713471F470354802784270501E8241DD
:102BF0000125290232480191FDF7F7FD0297384679
:102C00002946FDF7EDFDB17800291DD0B1790029E5
:102C1000029F1BD174610128284921D1024620E07E
:102C2000254E00243471012538462946FDF7D8FD8C
:102C3000B17800290FD0B179002907D174611F49FB
:102C4000012819D1024618E0F470029F3179002959
:102C500024D003B0F0BDF47031790029F9D11DE022
:102C60000A784A70411E4B424B41F370511E8A4113
:102C70000446134801990BE00A784A70411E4B4202
:102C80004B41F370511E8A4129020D4B04461846F0
:102C9000FDF7ABFD204631790029DAD1411E4842CB
:102CA00048410649CA78022A00D302460221384622
:102CB000FDF79BFD03B0F0BDA00100200000002047
:102CC00000040048FEE7000010B511481149002239
:102CD00000F02CFB002801D0FDF79DFA0C480E49AE
:102CE00000F076FD002801D0FDF795FA084800F0C5
:102CF00086FD002801D0FDF78EFA054C204600F035
:102D0000B3FF6420FDF7E0FA204600F078FD10BD27
:102D1000B804002010000020C0000020FEE770472B
:102D2000704780B5FDF76EFD80BDB0B598B0002549
:102D30000E950F951295119510950D950C950120F6
:102D4000139022210B911795022414940E900105E3
:102D50001691C003159010200F90059504950395CA
:102D600002950BA8FEF70CFE002803D0EFF31080AD
:102D700072B6FEE70A95099508940720079007A800
:102D800001242146FEF73EFD002803D0EFF310801A
:102D900072B6FEE706956004019001A8FEF798FC64
:102DA000002803D0EFF3108072B6FEE718B0B0BD74
:102DB000704780B5AD22920082585268904700203B
:102DC00080BD10B513460A460024214600F0FEFBE4
:102DD000204610BD10B513460A460024214600F0D7
:102DE000D1FC204610BD10B50446802100F08CFCBB
:102DF0000021204600F088FC10BDB0B513460A46FD
:102E0000572189004350A524A400032505514118EA
:102E10004B600024214600F0D9FB2046B0BD10B520
:102E2000A52189000522425000242146224623463E
:102E300000F0CCFB204610BD10B513460A46A52174
:102E4000890002244450C36103620024214600F03B
:102E500099FC204610BD10B5A521890004224250DE
:102E6000002421462246234600F08CFC204610BD5B
:102E700010B50A4603A02B4C214600F0DDF8204691
:102E800010BDC04648494420436F6E666967000024
:102E90001220088000487047AC00002010B50A4698
:102EA00003A0204C214600F0C7F8204610BDC046C4
:102EB00048494420496E746572666163650000008C
:102EC00004200880004870477C01002010B50A46A5
:102ED00003A0144C214600F0AFF8204610BDC046B8
:102EE0004875656E736F6C20496E632E000000009C
:102EF00010B50A4603A00B4C214600F09DF8204671
:102F000010BDC0464C696E6B2046726565204163FA
:102F1000636573736962696C697479204B65797054
:102F2000616400001C02002010B51A20088040488F
:102F300001688268521879D041683E480023437680
:102F4000C3754375C3744374C3734373C3724372CD
:102F5000C3714371C3700F2313401407640F052C12
:102F600001D3373300E030330374540F130F052CB3
:102F700001D3373300E0303383704C0F0B0F052C37
:102F800001D3373300E03033837413065C0F1B0F1B
:102F9000052C01D3373300E03033837313055C0F06
:102FA0001B0F052C01D3373300E0303303731304B8
:102FB0005C0F1B0F052C01D3373300E030338372D5
:102FC00013035C0F1B0F052C01D3373300E03033A4
:102FD000037213025C0F1B0F052C01D3373300E083
:102FE000303383711201530F120F052B01D3373287
:102FF00000E0303202710A03530F120F052B01D388
:10300000373200E0303202760A02530F120F052BDE
:1030100001D3373200E03032827509014A0F090FBF
:10302000052A01D3373100E030310175014810BD68
:10303000ACF7FF1F80010020B0B5002851D0037805
:10304000002B14D0041D0023E51E2D78002D10D078
:10305000A51E2D78002D0ED0651E2D78002D0CD0CC
:10306000251D1B1D2478002C2C46EDD107E00023E4
:1030700005E0012402E0022400E003242343DBB244
:103080005B009B1C138003224A700B700378002B9B
:1030900027D0021D0220C4B20B550C190023637007
:1030A000D41E2478002C1CD0851CEDB24C554C1934
:1030B0006370941E2478002C13D0051DEDB24C557E
:1030C0004C196370541E2478002C0AD0851DEDB273
:1030D0004C554C196370141D08301378002B224690
:1030E000D9D1B0BD5721C90041580020087370479D
:1030F000B0B50446812100F041F90025E562572072
:10310000C1006058002803D0641800F0BBFD2560A2
:103110000020B0BD10B55721C9004158002914D076
:103120000C464E34E078032807D002280AD12288C2
:10313000A0780D31FFF72CFD04E02288A0780D3136
:10314000FFF742FA002060802080002010BD0000C0
:103150000A210180004870474C0100202221018093
:1031600000487047F8000020222101800048704785
:103170001C010020222101800048704758010020D6
:1031800010B5044681210322052300F00BFA01202B
:10319000E062542000F078FD5721C90060500028FB
:1031A00007D04E210022425202734E304280104618
:1031B00010BD022010BD10B513460A46A721890094
:1031C000445C032C04D14118C9690C7B002C01D04C
:1031D000002010BD01240C73812100F0D3FA0020DF
:1031E00010BD0000F0B581B00C46A7218900411840
:1031F000CD696A46002313802678602232401FD0B2
:10320000202A4FD16178491E0A294BD8794409797F
:1032100049008F44054E2D47474747475C6E57008E
:1032200006461F46A0780D3540222946FFF764F96F
:10323000002803D00246E08882426BD9304631E054
:1032400062780B2A2ED8C0467A44127952009744ED
:10325000052929292929132929290B210978032935
:1032600020D16946022226E0097803291AD10835BF
:1032700001221C4629461FE0E1780902090A21299A
:103280003CD022290ED11D46E2887C2A00D37C2224
:10329000254939E00978032904D1A078A8601846A7
:1032A00001B0F0BD2146FFF79EFD0223184601B094
:1032B000F0BD291D01221C46FFF7BEFD234618461E
:1032C00001B0F0BDA0782860184601B0F0BD1E46E0
:1032D00029464E31E28863884B80402A00D3402241
:1032E0000A800D352946FFF788FD3346184601B0A0
:1032F000F0BDE0786860184601B0F0BD1D46E28878
:10330000092A00D309220749FFF796FD2B461846E4
:1033100001B0F0BD30462946FFF78EFD3B4618460A
:1033200001B0F0BD400100202C00002010B50028A5
:1033300011D0A7239B00C3189C69002C01D0002446
:103340009C61002900D0596102700121197000F0C0
:10335000DDF8002010BD022010BD000080B50B225A
:1033600092018058FDF738FB042802D30220C0B236
:1033700080BDC100F448C840C0B280BD80B50B22FA
:1033800092018058FDF707FB042802D30220C0B247
:1033900080BDC100F548C840C0B280BDF0B581B065
:1033A000A5239B00C718AD239B00C418002909D092
:1033B000226853690222002B26D03C7A032C23D1A9
:1033C000984724E03968002916D0042914D002292E
:1033D00015D1016A466AB1421DD9891B01628BB2BF
:1033E000044611461A46FFF7F5FC002120460A461E
:1033F0000B4600F0EBF802E0802100F085F9387B05
:10340000012804D100223A73104601B0F0BD002219
:10341000104601B0F0BD0090C56928463146FCF762
:1034200097FEB54213D3002911D1786885420ED298
:103430000025009C204629462A46FFF7CBFC7D60EC
:10344000204629462A462B4600F0C0F8D7E72068D8
:10345000C168002904D0387A032801D10098884730
:103460008021009C204600F04FF92046FFF7D7FC52
:10347000C5E7F0B581B0A5239B00C518AD239B001F
:10348000C41800290CD0226892690223002A04D0B3
:103490002C7A032C01D190470023184601B0F0BDCF
:1034A0002968052918D000230329F6D10B214901E9
:1034B0004618376871688F4217D91C467B1A3360EB
:1034C0008B4200D30B469BB211461A46FFF779FC9C
:1034D0002346184601B0F0BD00242C60214600F0C0
:1034E00013F92346184601B0F0BD1E46216809694C
:1034F000002905D02A7A032A02D1044688472046AB
:10350000FFF7A9FC3346184601B0F0BDB0B50B215A
:103510008A01174981502F231B01C85000238B615A
:10352000CB610B6202230B610824124D0D604C60CD
:103530008B6085180846FDF757FF002801D0FCF77F
:103540006AFE28680024182321462246FDF7E8F980
:103550002868802158232246FDF7E2F928680121D6
:103560000B0281212246FDF7DBF92046B0BDC046A3
:103570007C070020005C00400B22920180584AB278
:10358000002A07D428224A438018B5214900401850
:10359000007870477F22114028224A4380182A3041
:1035A0000078704710B514460B22920180581A46D5
:1035B0002346FDF73BFA042802D30220C0B210BD17
:1035C000C1007848C840C0B210BDC04610B50B2439
:1035D000A4010059FDF751FA042802D30220C0B219
:1035E00010BDC1006F48C840C0B210BDF0B581B079
:1035F000064600244025214622462B46FFF7D2FFEF
:103600002B20C000012737503018C560802130467C
:1036100022462B46FFF7C6FFA5218900745071187A
:103620000F727562B7610C617460AD218900711809
:103630004A68002A04D009684A6800213046904749
:10364000002001B0F0BDA7218900425C042A02D10C
:103650004018417801700020704780B5A72189008B
:10366000425C032A05D141188969C969002900D043
:103670008847002080BD01740020704780B50B2270
:1036800092018058FDF7C7FF042802D30220C0B280
:1036900080BDC1004348C840C0B280BDF0B581B014
:1036A0000546A5208600AF193C461434204600F09C
:1036B0007BF80121A951798B7960397D1F220A405D
:1036C000022A11D0012A08D0002A14D12846214606
:1036D00000F09AF8002001B0F0BD2846214600F025
:1036E00099FA002001B0F0BD2846214600F0F0F91B
:1036F000002001B0F0BD80221140284600F004F8FF
:10370000002001B0F0BD000080B50B22920180586E
:10371000FDF7C7F9042802D30220C0B280BDC10062
:103720002048C840C0B280BD80B50B2189014058F7
:10373000FDF790FF042802D30220C0B280BDC10073
:103740001848C840C0B280BD0002010280B50B21FC
:1037500089014058FDF794FF042802D30220C0B22B
:1037600080BDC1000F48C840C0B280BD0002010248
:10377000A7218900425C0423435440184270002072
:103780007047000010B50B24A4010059FDF7B3F9F0
:10379000042802D30220C0B210BDC1000148C840B5
:1037A000C0B210BD000201020A7802704A7842706D
:1037B0008A78CB781B029A1842800A794B791B02CF
:1037C0009A1882808A79C97909028918C18070475C
:1037D000002904D0AD2292008150002070470220C1
:1037E000704780B5AD2292008258002A05D0126839
:1037F0009047411E8841400080BD022080BD80B5B9
:10380000FFF792FF002080BD70B582B0A722920022
:1038100085180A785206920F531E022B05D2AA6908
:1038200092689047002002B070BD002A00D03DE1B0
:103830004A78092A00D939E15200C0467A44928870
:1038400052009744090025003301440033014E0023
:103850006E00330118002F002A78521E022A00D968
:1038600024E1C988022900D020E1A968002900D1FB
:10387000BDE00321BCE0C988012900D016E1297808
:103880004A1E022A64D2002181600146083163E0A9
:103890002A78521E022A00D908E149880129C1D19B
:1038A000002118E04988894E3170C9B2022900D33D
:1038B000FCE02A78032A55D0022A00D072E00029C1
:1038C00000D1BDE003222A7041600446B0E049887F
:1038D0000129A7D10121A960FFF7BDFA002002B09C
:1038E00070BD8A88002A00D0E0E0CA88002A00D093
:1038F000DCE04E887F2E00D9D8E02978032900D15A
:10390000D4E0AE70F1B20446FFF7B8FE2046FFF7F0
:10391000A2FA002E00D1D4E002202870002002B0CC
:1039200070BD01AA002313804A88130A5B1E062B70
:1039300000D9BBE07B441B795B009F44032B1DB780
:10394000B7424C000E460446007C69690A688FE065
:10395000032900D0AAE0011D0122FFF76DFA002023
:1039600002B070BD00294CD04168012958D1FFF741
:1039700072FA002002B070BDD2B2052A00D995E0DB
:103980007A4412795200974402696366606C6A69EE
:10399000526868E00E46A9690446007C002838D0C9
:1039A000C96A37E080210446FFF7AEFE00212046B9
:1039B000FFF7AAFE31782046FFF7FBF9002002B09E
:1039C00070BD027C002A71D10E460446A869416B85
:1039D00001A888474EE0027C002A67D10E460446C3
:1039E000A869016B01A888470146072016E001215C
:1039F000C16001460C310222FFF71EFA002002B01E
:103A000070BD0022426002222A700446FFF7D1F9FD
:103A100015E0896A01A888470146022048702AE01B
:103A2000C9B20546FFF7C5F9317869602C462846CA
:103A3000FFF7D7FE022802D18021204638E0204639
:103A4000FFF709FA002002B070BD6A6952690AE006
:103A50006A69D26807E06A69126904E06A69926873
:103A600001E06A699269002A20D00E460446007C73
:103A700001A99047014601A80288002A0CD0F088CD
:103A8000002809D03546824200D3024601A80280B0
:103A90002046FFF7D1F92E46F088002800D0C1E675
:103AA0002046FFF7D8F9002002B070BD80210446FF
:103AB000FFF72AFE00212046FFF726FE002002B075
:103AC00070BD01202870002002B070BD18020020D7
:103AD00070B5A722920082180C78602323405C09FD
:103AE000651E022D04D2926992689047002070BD35
:103AF000002C63D1202B03D192699268904770BD4E
:103B00000C46097923466478002C27D0012C15D067
:103B1000032C53D11278032A13D15A88002A09D1D1
:103B20007F220A4006D0DA88002A03D10446FFF734
:103B3000EBFD2046FFF78FF9002070BD1278032AB5
:103B400017D0022A3AD14A0638D00446FFF7DCFDE6
:103B500080212046FFF7D8FD002070BD1278032A8F
:103B600015D0022A2AD14A0628D1090648D514219F
:103B700048E05A880025002A29D14A0603D0044685
:103B8000FFF7ECFB2046FFF766F9284670BD0F22D1
:103B90000A4014235343C218802903D22B23DB008D
:103BA000D25800E09269002A08D01422802910D34C
:103BB0007F230B405A43841814340FE080210446BD
:103BC000FFF7A2FD002520462946FFF79DFD284668
:103BD00070BD4A43821855239B00D41800224B061F
:103BE000164606D00546FFF7C7FC02462846511E7A
:103BF0008A41226002222146FFF71EF9304670BD3D
:103C0000552189000024445041180222FFF714F97D
:103C1000204670BDB0B50A7860231340602B0AD0EF
:103C2000A7229200821813785B1E022B03D88B8880
:103C30001B065B0E09D080210446FFF765FD0021BD
:103C40002046FFF761FD0020B0BD926992680446EE
:103C50000D469047E9880029F5D10028F3D1204688
:103C6000FFF7F9F80020B0BD10B50446AD20800084
:103C7000205842682179204690472046FFF766FD8C
:103C8000002010BD70470000004870471C04002051
:103C9000F0B587B00F78BB00C45A834A2240CD7874
:103CA000032D069512D800240594C0467D442D7935
:103CB0006D00AF4401030D07012404E07B4C121991
:103CC000521C05E003246402224301E00124059410
:103CD000774D2A43C252C25AD04C22403A432A431B
:103CE000C2520125AA0204920E7B724A002E06D00F
:103CF000069C022C03953C4624D0164623E0502611
:103D0000865B0296CE88AE43FA0001922A463D4673
:103D10004F78002F7AD004994118019A8918029D92
:103D20004E53C15A4906634A04D5C15A214051181D
:103D30004031C152C15A30340C400699012960D03B
:103D40002032ACE05C4EC75A5C4D3D403543C55215
:103D50005025465B049A8718E200BA18039CE74393
:103D60001C460B893B409353435BD2184B893B4025
:103D700093802546035BBA4E3246F1321A404978A9
:103D800000291BD0002A2B46A44C04D0C15A214044
:103D9000784A0A43C252C15A4906464A069D04D58A
:103DA000C15A214051184031C152C15A30340C40DF
:103DB000012D22D0114620314C401FE0002A2B4615
:103DC000964C04D0C15A21406A4A0A43C252C15A91
:103DD0004906384D04D5C15A214069184031C152B5
:103DE000C15A3140364A4A40C252C15A30340C405E
:103DF0002C43C452059807B0F0BD1443C452C45AB2
:103E000034401443C452059807B0F0BD03920095A6
:103E100007465037049A1518019AAA180692029A72
:103E2000069DAD18AE80069A921D3F88D55B1F4E49
:103E30002E40D653164609693F290BD3CA064909B5
:103E4000002A1C4D00D1491E8902BA5B0A43803DFD
:103E500015430EE00029174D08D0F55B039A0A4080
:103E600049088918890229430D4602E0F15B803D2B
:103E70000D43F553C25A7A490D46F1352A4204D012
:103E8000C25A22403B4C1443C452009A002A03D029
:103E9000C25A0A400B4C02E002880A40084C5440C7
:103EA000C452059807B0F0BD8F89FFFFFF030000E3
:103EB0008080FFFF808000008081FFFF0F0E0000E8
:103EC00080B0FFFF80A0FFFFF0B50A789200855A0E
:103ED0004C780E7B514B2649002E28D0604F3E4631
:103EE000F1363540002C2BD04F4E002D03D0845A94
:103EF0001C4034438452845A64061D463035002CDD
:103F00003C4603D5875A1F400F438752875A1F40AC
:103F1000374387520E46403E835A2B4033438352E9
:103F2000835A2340C918403981520020F0BD002C2B
:103F300016D01C4630346D061D460E46ECD4EFE715
:103F4000002D04D0845A1C400A4D25438552845AC2
:103F500065061C463034002D0E463D46D2D4D5E7CA
:103F60003F4C2646F1363542DAD02F4E1D46D3E778
:103F7000C080000080C0FFFF5821425A0123DB03AC
:103F800013434352002070475821425A024B1340BA
:103F9000435200207047C046FF7F000040220121AD
:103FA0008152002181524030818001820846704751
:103FB0004021425A024B1340435200207047C046F2
:103FC0007F400000B0B50A7B002A01D00020B0BDC0
:103FD0000A789200855A4B78002B0DD06B060F4B58
:103FE0000F4C04D5855A1D40651920358552C97876
:103FF0000129EBD030330BE0194B1946F131094C54
:104000000D4205D0815A054D0D400749691881526E
:10401000815A1940614081520020B0BD0F0F00004D
:10402000A080000080B0000080C0000010B54B7878
:10403000002B04D0094A002B04D1094B03E0064AA7
:10404000002BFAD0074B09788900445A1C40544091
:104050004452002010BDC0468090FFFF9080FFFFBB
:104060000F3F00003F0F0000F0B58AB007464C78C4
:10407000012C56D18D690C69A54200D325460A7BD7
:10408000002A7ED00B6AC878022800D0D7E00695B7
:104090000D78AA00B85A3E46FD4F07400794A34248
:1040A000089200D836E1FB480743B752069FD81B59
:1040B00005900862B05A5022B35A4006BAB2039231
:1040C000EC003246503204920122920200280996F6
:1040D00000D590E1961930190190C01847804869C1
:1040E0000290039A002A3D4600D134E3088937182C
:1040F000501C430803241C40581E002C00D101E230
:1041000000900396029E3078727812021018388060
:10411000012C00D0FAE1B41CBF1C00980346039E9A
:10412000FEE2087B002852D0CA78012A00D1B7E00D
:10413000022A00D0EBE00E78002C00D09FE2502045
:10414000385A381801220692920207928018851C6C
:104150000896F300E85ADC4A1040E8520E690997C5
:104160005037DA4C3F2E00D27CE1F006740900286B
:1041700000D1641EA0025A5B0243D44CB03C1443ED
:1041800052E2012290022B04089000D128E1099705
:104190003B18CC881B19ACB2641C66080327374057
:1041A0004C69701E002F00D1FEE0079020786278E5
:1041B000120210181880012F00D041E1A41C9B1C92
:1041C00007980646099F032800D3F0E008E1502035
:1041D000385A099738180125AA028018831D0878D3
:1041E0000890C400185BB84A02401A530F698E69E0
:1041F000F21B14D200228A61BE4213D23F2E14D386
:10420000F00671090028099F00D1491E089E880206
:10421000E15A0143AE48B0380843E05272E28A6185
:10422000BE42EBD33E463F2EEAD2002E099F00D17C
:1042300011E1185B35407108491989020EE1581BDC
:104240000862087882000892BA5A5023FC5A56062F
:10425000ABB2C200B8180019012292028018002ED9
:1042600000D582E045809B4C984D002B00D199E011
:10427000B8180A898518581C430803261E40496946
:104280005C1E002E00D161E108784A7812021018F5
:104290002880012E00D00CE1891CAD1C234655E17D
:1042A0000A698B699D1A07D200258D61934206D257
:1042B0000E78002C08D025E28D619342F8D3134686
:1042C0000E78002C00D01DE25020385A38180124F6
:1042D000A102079140183146861C0891C900705A06
:1042E000794A1040705209973D465035774F3F2B21
:1042F000069400D2C1E0D8065C09002800D1641EF3
:10430000A0028A5B02433C46B03C1443CFE101204B
:104310000AB0F0BD6E4838183038B052E800301896
:104320005022B25A80180122920280184380180449
:10433000684C664D374635D0B8180A89851898B24A
:10434000401C430803261E4049695C1E002E00D114
:1043500022E108784A78120210182880012E00D035
:10436000BAE0891CAD1C234616E1C580594C574D57
:10437000002B17D0B8184A898518581C4308032603
:104380001E4049695C1E002E00D12BE108784A7856
:10439000120210182880012E00D0A8E0891CAD1C44
:1043A00023461FE108995FE2099F032818D320786C
:1043B0006278120210181880A078E27812021018A1
:1043C000588020796279120210189880A079E279D9
:1043D00012021018D880361F08340833002EE6D198
:1043E0005020385A089AD21910180978CA00801833
:1043F0004580890036E2961930190190C018C780AF
:1044000048690290039A002A3D4600D1FEE148899E
:104410003718501C430803241C40581E002C73D02E
:1044200000900396029E307872781202101838803D
:10443000012C77D1B41CBF1C00980346039ECAE12F
:10444000A078E278120210185880022F24D1B61EEC
:10445000241D1B1D28E0185B1D49B0390143195369
:10446000089E4FE1002E00D1DBE0E85A3246069C60
:1044700022407408A2189402D5E0002B00D112E16A
:10448000705A1A4622405C08A21894020EE1C046F7
:104490000F0E00008081000020796279120210184E
:1044A0009880F61EA41D9B1D099F0798032897D38B
:1044B0007DE78878CA78120210186880022E3DD1F4
:1044C0009B1E091D2D1D41E0FF030000B080000070
:1044D000B080FFFF3F0F00008878CA7812021018E2
:1044E0006880022E50D19B1E091D2D1D54E0887836
:1044F000CA78120210186880022E6BD19B1E091D0B
:104500002D1D6FE0029C0BE1029C64E1B078F27813
:10451000120210187880022C00D0F7E09B1E341D88
:104520003F1DFBE0B078F278120210187880022C60
:1045300000D046E19B1E341D3F1D4AE108794A79AF
:1045400012021018A880DB1E891DAD1D032C00D29D
:1045500087E1FA4C08784A78120210182880887887
:10456000CA7812021018688008794A791202101865
:10457000A8808879CA7912021018E8801B1F0831B8
:104580000835002BE6D14AE008794A791202101862
:10459000A880DB1E891DAD1D032C00D261E1E74C14
:1045A00008784A781202101828808878CA7812028F
:1045B0001018688008794A7912021018A880887942
:1045C000CA7912021018E8801B1F08310835002B29
:1045D000E6D124E008794A7912021018A880DB1E7F
:1045E000891DAD1D032C00D23BE1D44C08784A78DC
:1045F0001202101828808878CA7812021018688071
:1046000008794A7912021018A8808879CA791202AA
:104610001018E8801B1F08310835002BE6D10899D7
:1046200021E1E85AB03C0443EC520998079A10186B
:104630003A888018851DE85ABD4A1040E8523F2E3E
:104640000DD3F0067409002800D1641E099F089E4E
:10465000A0025A5B0243B74CB03C14430EE0002E5C
:1046600006D0E85A069C344072081219940202E0FF
:10467000E85AB04CB03C0443099F089EEC52C8690C
:1046800000283FD0B1007B5AAB480340834201D0A1
:10469000002B37D1785AA94A303A0240A84810185E
:1046A000103078522EE0705A3C46B03C04437452AD
:1046B0000998079A10182A888018851D685A9C4AFC
:1046C000104068523F2B0CD3D8065B090028089E87
:1046D00000D15B1E98024A5B0243B03F17434F5321
:1046E0000FE0002B089E08D0685A069C1C405A0810
:1046F0001219920202436A5203E0685AB03F07431C
:104700006F52099FB1008F4D8F4CADE030797279B7
:1047100012021018B880DB1EB41DBF1D039E009846
:10472000032818D320786278120210183880A078F5
:10473000E27812021018788020796279120210183B
:10474000B880A079E27912021018F8801B1F083493
:104750000837002BE6D1029847194F610798059B4F
:10476000834201D8002200E05A1B049C0A62834263
:1047700000D81D462088019A1018C580AAB2002AC8
:104780006ED048893118501C430803251D405C1E1B
:10479000002D00D182E038787A7812021018088053
:1047A000012D03D1BF1C891C234677E0B878FA7825
:1047B000120210184880022D68D19B1E3F1D091D52
:1047C0006CE03079727912021018B880DB1EB41DCB
:1047D000BF1D039E0098032818D320786278120228
:1047E00010183880A078E2781202101878802079AA
:1047F000627912021018B880A079E27912021018BA
:10480000F8801B1F08340837002BE6D1029847199F
:104810004F610798059B834201D8002200E05A1B94
:10482000049C0A62834200D81D462088019A101811
:104830004580AAB2002A13D008893118501C4308B9
:1048400003251D405C1E002D4ED038787A78120268
:1048500010180880012D0ED1BF1C891C234643E08F
:10486000099F0899354C334D785A2040684078525A
:1048700000200AB0F0BDB878FA781202101848800B
:10488000022D29D19B1E3F1D091D2DE038797A7913
:10489000120210188880DB1EBF1D891D254D032CB8
:1048A00025D3264C38787A78120210180880B87808
:1048B000FA7812021018488038797A7912021018A2
:1048C0008880B879FA7912021018C8801B1F08373F
:1048D0000831002BE6D128E038797A7912021018D5
:1048E0008880DB1EBF1D891D124D032C03D2099F3A
:1048F0000899124CB8E7114C38787A7812021018DF
:104900000880B878FA7812021018488038797A79D5
:10491000120210188880B879FA7912021018C8802B
:104920001B1F08370831002BE6D1099F08999BE728
:10493000FF030000B0800000404000003F0F000077
:10494000B080FFFF80B000000F3F00000246403201
:10495000002191804022024B835208467047C04696
:1049600080BF000080B50248FCF7DEF880BDC0467D
:104970007C0700204421405A704770B580180122FE
:1049800092028018022B31D35A0803251540541E79
:10499000002D14D006880E70360A4E70012D05D1F8
:1049A000891C801C2246032C0BD21FE046888E7087
:1049B000360ACE70022D1ED1921E091D001D032C39
:1049C00014D304880C70240A4C7044888C70240A18
:1049D000CC7084880C71240A4C71C4888C71240AB0
:1049E000CC710830121F0831002AEAD1DA0701D051
:1049F0000088087070BD85880D712D0A4D71D21E1A
:104A0000891D801D032CDCD2F0E7002901D0002095
:104A100070474C21802242520020704770B5002B15
:104A20003CD080180122920280185A1C520803249C
:104A30001440531E002C16D00D784E78360275198E
:104A40000580012C05D1891C801C1A46032B0CD231
:104A500024E08D78CE78360275194580022C1ED15F
:104A6000921E091D001D032B18D30B784C782402CD
:104A7000E31803808B78CC782402E31843800B7909
:104A80004C792402E31883808B79CC792402E318D3
:104A9000C380121F08310830002AE6D170BD0C799E
:104AA0004D792D022C198480D21E891D801D032B67
:104AB000DBD2F3E7B0B557484478601E84416B4DB4
:104AC000A879002819D1A87800281AD1687A002876
:104AD0001BD16869002801D0102004430920C006BA
:104AE0000221FBF77DFE012814D02879002816D179
:104AF0006879002818D1E0B2B0BDA41CA8780028BD
:104B0000E4D0241D687A0028E3D0083468690028BE
:104B1000E2D1E3E72020044328790028E8D04020B0
:104B2000044368790028E6D080200443E0B2B0BD99
:104B3000F0B581B047484189364DA980417B0229B3
:104B400000D302214173E970827B0021022A00D345
:104B50000A468273454B5A711E46027A531E9A4189
:104B60002A70437A5C1EA341B370037B5B1E5C42D8
:104B70005C410473AC70103033464833F0C8F0C366
:104B8000F0C8F0C3F0C8F0C3F74F224D79616A70E6
:104B9000B9713971F9700920C606012430462146E1
:104BA000FBF71EFE2402B978002908D0B979002944
:104BB00007D100217961012812D1024611E00021BC
:104BC000F970397900291CD1411E48424841EA78E0
:104BD000022A00D3024602213046FBF706FE10E00F
:104BE0002A786A70411E4B424B41FB70511E8A412C
:104BF000009009482146FBF7F8FD00983979002913
:104C0000E2D06A78501E824103482146FBF7EDFD51
:104C100001B0F0BD000000200004004870B5D1488C
:104C20000D490E4A0E4BCD4C046043608260C1605A
:104C3000014610310B4A78CA78C178CA78C178CA5F
:104C400078C109490164FFF773FFC7480121417228
:104C500070BDC046740400200102000001008813EA
:104C60000600440024630008B3070000A0010020F0
:104C7000F0B5BDB0E14C21680020B84A914200D0A7
:104C80006AE1A288062A00D066E1E388442B00D0BE
:104C900062E11E93A57863783C933B955B19E578B8
:104CA0003A955B19657939955B19E57938955B1902
:104CB000257A37955B19657A36955B19A57A35950E
:104CC0005B19E57A34955B19257B33955B19657B18
:104CD00032955B19A57B31955B19E57B30955B19A6
:104CE000257C2F955B19657C2E955B19A57C2D95F0
:104CF0005B19E57C2C955B19257D2B955B19657DF2
:104D00002A955B19A57D29955B19E57D28955B1989
:104D1000257E27955B19657E26955B19A57E2595D1
:104D20005B19E57E24955B19257F23955B19657FCB
:104D300022955B19A57F21955B19E47F20941B19AF
:104D4000874C25781F955B1965781D955B19A578AB
:104D50001C955B19E5781B955B1925791A955B19EC
:104D6000657919955B19A57918955B19E5791795FA
:104D70005B19257A16955B19657A15955B19A57AE5
:104D800014955B19E57A13955B19257B12955B19D0
:104D9000657B11955B19A57B10955B19E57B0F95DC
:104DA0005B19257C0E955B19657C0D955B19A57CBF
:104DB0000C955B19E57C0B955B19257D0A955B19B4
:104DC000657D09955B19A57D08955B19E57D0795BE
:104DD0005B19257E06955B19657E05955B19A57E99
:104DE00004955B19E57E03955B19257F02955B1998
:104DF000657F01955F19A37FFD18E77FED19FF26F9
:104E00003A36AD19246AA54200D0A5E0D6B21E9864
:104E1000C2B23F25534847553E2543553D23019D8A
:104E2000C5543C23029DC5543B23039DC5543A23DE
:104E3000049DC5543923059DC5543823069DC5548A
:104E40003723079DC5543623089DC5543523099D36
:104E5000C55434230A9DC55433230B9DC5543223B6
:104E60000C9DC55431230D9DC55430230E9DC55452
:104E70002F230F9DC5542E23109DC5542D23119D06
:104E8000C5542C23129DC5542B23139DC5542A238E
:104E9000149DC5542923159DC5542823169DC5541A
:104EA0002723179DC5542623189DC5542523199DD6
:104EB000C55424231A9DC55423231B9DC554222366
:104EC0001C9DC55421231D9DC55420231F9DC554E1
:104ED0000464209BC377219B8377229B4377239B8A
:104EE0000377249BC376259B8376269B4376279B5B
:104EF0000376289BC375299B83752A9B43752B9B3F
:104F000003752C9BC3742D9B83742E9B43742F9B22
:104F10000374309BC373319B8373329B4373339B06
:104F20000373349BC372359B8372369B4372379BEA
:104F30000372389BC3718271399A427106713A9A31
:104F4000C2703B9A82703C9A42700170FFF7F0FD8C
:104F500005480021417201203DB0F0BDEFBEFFC009
:104F60002078000874040020A0010020F0B5CBB028
:104F70001848876AC16A3E91016B3D91416B3C9133
:104F8000816B3B91C16B3A9181684691C1684591B3
:104F9000016944914169439181694291C16941919B
:104FA000016A4091406A3F9000244794FBF72EFB32
:104FB00001264A96084849902546489448A847A99A
:104FC000FBF794F9002809D0FBF700FA28464BB00C
:104FD000F0BDC04674040020007800083997389668
:104FE0000220054A0023054E31461F46FBF7F8F91B
:104FF000002805D01AE2C046EFBEFFC000780008C6
:10500000311D0220034A0023FBF7EAF9002803D0F0
:105010000CE2C046060044004699CAB2080AC3B270
:10502000080CC5B2FF20040608463794204034958A
:1050300029044018359319024018369282183146D7
:105040000831022000233392FBF7CAF9002800D070
:10505000ECE14599CDB2080AC2B2080CC3B20846C9
:1050600037990840319319040143329212020A43DE
:105070002A4331460C31022000233092FBF7B0F96D
:10508000002800D0D2E14499CCB2080AC2B2080C80
:10509000C3B20846379908402E93190401432F9252
:1050A00012020A43224331461031022000232D927E
:1050B000FBF796F9002800D0B8E14399CBB2080A73
:1050C000C2B2080C2C952546C4B208463799084050
:1050D000299421042C4601432A9212020A432B935D
:1050E0001A4331461431022000232892FBF778F945
:1050F000002800D09AE14299CBB2080AC2B2080C4B
:105100002546C4B2084637990840259421042C4608
:105110000143269212020A4327931A43314618315B
:10512000022000232492FBF75BF9002800D07DE1E8
:105130004199CBB2080AC2B2080C2094C4B2084606
:1051400037990840219421042C9D01432292120298
:105150000A4323931A4331461C31022000231F9235
:10516000FBF73EF9002800D060E14099CBB2080A75
:10517000C2B2080CC4B20846379908401C942104F6
:1051800001431D9212020A431E931A4331462031F5
:10519000022000231B92FBF723F9002800D045E1F1
:1051A0003F99CBB2080AC2B2080CC4B2084637997C
:1051B0000840189421040143199212020A431A93D9
:1051C0001A4331462431022000231792FBF708F9D5
:1051D000002800D02AE13999CAB2080AC3B2080CE3
:1051E000C4B208463799084014942104014315932A
:1051F0001C020C431692144331462831022000232E
:1052000013942246FBF7ECF8002800D00EE13E99FB
:10521000CBB2080AC2B2080CC4B20846379908409B
:10522000109421040143119212020A4312931A436B
:1052300031462C31022000230F92FBF7D1F80028D1
:1052400000D0F3E03D99CBB2080AC2B2080CC4B258
:105250000846379908400C94210401430D9212022C
:105260000A430E931A4331463031022000230B9239
:10527000FBF7B6F8002800D0D8E03C99CAB2080A7B
:10528000C3B2080CC4B208463799084008942104F8
:10529000014309931C020C430A92144331463431F2
:1052A0000220002307942246FBF79AF8002800D03A
:1052B000BCE03B99CBB2080AC2B2080CC4B20846A3
:1052C00037990840049421040143059212020A43CD
:1052D00006931A4331463831022000230392FBF72C
:1052E0007FF8002800D0A1E03A99CBB2080AC4B2F6
:1052F000080CC0B2379A0A4001900004104302948F
:105300002402044337931C4331463C3102200023DE
:105310002246FBF765F8002800D087E036983599DB
:105320004018349940184699090E4018401932998E
:105330004018319940184599090E40182099401895
:105340002F9940182E9940184499090E40182B990E
:1053500040182A994018299940184399090E401875
:105360002799401826994018259940184299090E06
:1053700040182399401822994018219940184199C2
:10538000090E40181E9940181D9940181C99401884
:105390004099090E40181A994018199940181899FF
:1053A00040183F99090E4018169940181599401851
:1053B000149940183999090E4018129940181199FA
:1053C0004018109940183E99090E40180E9940183F
:1053D0000D9940180C9940183D99090E40180A99EA
:1053E000401809994018089940183C99090E40182E
:1053F0000699401805994018049940183B99090EE0
:1054000040183799401802994018019940183A9964
:10541000090E40181D494218403602200025314629
:1054200016462B46FAF7DCFF002804D0FAF7CEFF29
:1054300038464BB0F0BDFAF7C9FF134F3E641B98D6
:105440003862179878621398B8620F98F8620B98D0
:105450003863079878630398B863FC630C48386036
:105460000C4878603398B8603098F8602D983861AF
:10547000289878612498B8611F98F861334845727C
:1054800038984BB0F0BDC04674040020B60300004D
:10549000EFBEFFC00600440070B584B0054600248E
:1054A0000094FBF7B3F8012003900D4E029601948F
:1054B00001A86946FAF71AFF002804D0FAF786FF18
:1054C000204604B070BD0220002331462A46FAF778
:1054D00087FF44424441FAF779FF204604B070BD8B
:1054E000007C0008B0B5194CA178002906D0A1793C
:1054F000002909D0217900291CD0B0BD0021E1701C
:1055000021790029F9D115E000216161E070104A8C
:10551000012105460028084600D110785070C2B21B
:10552000501E824109020B48FBF75FF9284621799A
:105530000029E2D10649CA78022A00D3024609208E
:10554000C0060221FBF751F9B0BDC046A001002002
:10555000000000200004004800B5A9B0FBF75CF98A
:1055600000241194129415941494139410940F948D
:105570000120169022210E911A9401051991C10360
:105580001891022617961190102012901F941E94C5
:105590001D941C940EA8FCF7F3F9002803D0EFF338
:1055A000108072B6FEE72894279426960725259545
:1055B00025A801273946FCF725F9002803D0EFF389
:1055C000108072B6FEE7099520947D041B951BA8F8
:1055D000FCF77EF8002803D0EFF3108072B6FEE7E8
:1055E0001294119410940F940E94B905B648026861
:1055F0000A43026002680A401B921B990168294312
:105600000160016829401B911B99B90402680A4393
:105610000260006808401B901B9809200890C5068E
:10562000284631462246FBF7E0F839020A91F0316C
:10563000A6482246FBF7D9F810940F940E970EA9AE
:105640000C912846FAF7F6FF119410940F970E96D6
:1056500028460C99FAF7EEFF10960F94C0200E9092
:105660000B9528460C9D2946FAF7E4FF10960F94F7
:105670000E9796482946FAF7DDFF10940F940E9680
:1056800092482946FAF7D6FF119410940F97FF20FD
:105690005E300D9093300E908C482946FAF7CAFF81
:1056A0008B488C4930228C4B036042608460C1601F
:1056B000046144618461289427942694239422945D
:1056C0001494FCF715FC002803D0EFF3108072B699
:1056D000FEE738032590AC4825A9FCF78DFC00288F
:1056E00003D0EFF3108072B6FEE70C97A648FCF7E4
:1056F00091FE002803D0EFF3108072B6FEE7A248B7
:1057000022A9FCF7CFFB002803D0EFF3108072B67C
:10571000FEE71D949E481C9060201B901E941F94D1
:105720002094219498481BA92246FCF73DFD0028AF
:1057300003D0EFF3108072B6FEE712941194109428
:105740000F940E9415940C98400313908E480EA954
:10575000FCF77AFB002803D0EFF3108072B6FEE767
:1057600001968948FCF7F6FCFFF782FA002802D080
:10577000FFF7DEF918E0B448B449B54AB54BB64D69
:10578000056043608260C16001461031B34AE8CAD7
:10579000E8C1E8CAE8C1E8CAE8C1B1490164FFF755
:1057A000C7F9B0480C9941722020AE4E01210091FA
:1057B00031543472F471347034610198B072AA4873
:1057C0004278501E824141480A99FBF70EF8FDF7D6
:1057D0007BFAA7208500A54F785D032821D00A20F9
:1057E000FAF772FD785D0328F9D11AE02035082216
:1057F00007929E482946FDF7DEFC1E20FAF764FD5D
:1058000021200027375430462130C77087704770F9
:1058100096482946079AFDF7CEFC1E20FAF754FD5C
:1058200037707079002842D000F09AFC05467078F5
:1058300000280C9F00D0ADE0002D00D1AAE07570CB
:105840002B3D2A2D00D9A1E200206D007D44AD88BA
:105850006D00AF442A009B02D7019B029B029B0272
:105860009B029B029B029B029B029B029B029B0250
:105870009B029B029B029B029B029B029B029B0240
:105880009B02C6019B02D0019B029B029B02D2019C
:10589000C801CC01CE01D6019B02D4019B029B0220
:1058A0009B02C4019B029B02CA010120AAE100F0F5
:1058B0005FFB307255280C9F00D934E1002107A20C
:1058C0004000105A40008744141002400004004871
:1058D000700A00200F270000002C014050012E010B
:1058E0002E012E012E012E012E012E012E012E0140
:1058F0002E012E012E012E012E012E012E012E0130
:105900002E012E012E012E012E012E012E012E011F
:105910002E012E012E012E012E012E012E012E010F
:105920002E012E012E012E012E012E012E012E01FF
:105930002E0161002E0113012E012E012E012E01D8
:105940002E012E012E012E012E012E012E012E01DF
:105950002E012E012E012E012E012E012E012E01CF
:105960000A012E0102012E012E012E0106010C0159
:105970000E01120110012E0100012E012E012E0137
:1059800008012E012E010401700A00200121AFE060
:1059900087130000002821D0002D1FD10027F772A7
:1059A00031460A3102223148FDF705FC1E25284602
:1059B000FAF78AFC2120375430462130C7708770AF
:1059C00047703146203108222848FDF7F4FB28466D
:1059D000FAF77AFC77700C9F28465CE1002800D12A
:1059E0005BE1002D00D158E1854200D155E1F47210
:1059F00031460A3102221D4804910392FDF7DBFB78
:105A00001E200790FAF760FC212005903454374699
:105A10002137FC70BC707C7031462031082213485D
:105A200006910292FDF7C7FB0798FAF74DFC7570D7
:105A30002B3D2A2D089A00D98DE20DA120466D003C
:105A40004D5B6D00AF44C0467404002001020000AD
:105A50000100881306004400EFBEFFC02463000865
:105A6000B3070000A001002000000020B8040020BF
:105A70003F0087025D028702870287028702870252
:105A800087028702870287028702870287028702CE
:105A900087028702870287028702870287024C02F9
:105AA0008702560287028702870258024E0252027C
:105AB00054025C0287025A028702870287024A0266
:105AC00087028702500200981BE2062110E00321A2
:105AD0000EE002210CE008210AE0052108E0072180
