:020000040800F2
:1000000028110020D50000081D320008C531000865
:1000100000000000000000000000000000000000E0
:100020000000000000000000000000002132000875
:1000300000000000000000001F320008233200080A
:100040000501000805010008050100080501000878
:100050000501000805010008050100080501000868
:100060000501000805010008050100080501000858
:100070000501000805010008050100080501000848
:100080000501000800000000000000000501000854
:100090000000000005010008050100080501000836
:1000A0000000000005010008050100080501000826
:1000B000050100080000000005010008654E000869
:1000C0000348854600F076F8004800478558000848
:1000D000281100200C4880F308880C480168090E9C
:1000E0000B4A914205D10B480B4901600B480C4962
:1000F00001600C4880470C480047FEE7FEE7FEE73A
:10010000FEE7FEE7FEE700002811002004000000E3
:100110001F00000018100240010000000000014014
:1001200000000000B1320008C100000803460B4384
:100130009B0703D009E008C9121F08C0042AFAD29D
:1001400003E00B780370401C491C521EF9D2704723
:10015000D2B201E00270401C491EFBD2704700225F
:10016000F6E710B513460A4604461946FFF7F0FFB6
:10017000204610BD70B50446002903D0002020227F
:10018000012310E0002801D00020C043C046C04633
:100190000DE02546D5408D4205D30D469540641BA4
:1001A0001D46954040191546521E002DF1DC214692
:1001B00070BD00001CB50948009009480190054633
:1001C0000126009C05E0E36807CC33430C3C9847CC
:1001D0001034AC42F7D3FFF777FF0000A07A000895
:1001E000C07A000870B58C180578401C6B075B0F4F
:1001F00001D10378401C2A1106D10278401C03E08B
:1002000006780E70401C491C5B1EF9D12B0705D4E3
:100210000023521E0DD40B70491CFAE70378401CD2
:10022000CB1A921C03E01D780D70491C5B1C521EFA
:10023000F9D5A142D8D3002070BDEFF3108072B67B
:10024000FEE70000F0B581B0044600F0E9FA05468B
:10025000F54E3068C00715D13068800601D52020E2
:1002600030603068C00605D43068400702D40020F2
:1002700001B0F0BD3068C00616D4002031684907CF
:100280001BD421E00320002C20D0611C20D1306839
:10029000C007E1D03068C007DED03068C007DBD0CF
:1002A0003068C007F3D1D7E7DE48C16902220A43AC
:1002B000C26110203168490706D5DA49CA690123AD
:1002C0001343CB61042108433060012001B0F0BD2D
:1002D000074600F0A5FA401BA04203D83068C007CB
:1002E000F7D1B9E7384601B0F0BDC046B0B5044615
:1002F00000F096FA0546601C02D0044800782418E5
:1003000000F08EFA401BA042FAD3B0BD08000020D6
:10031000F0B583B00546C34E307E012802D10220DD
:1003200003B0F0BD00910120074630762C68BF482D
:10033000FFF788FF012C06D1002838460AD000219B
:10034000317603B0F0BD002819D03846002131764F
:1003500003B0F0BD0020F061294C2068042528433B
:1003600020602068402101432160B048FFF76AFF08
:100370002168A94321600021317603B0F0BD00203F
:100380000290C143009801606C68A868800200195F
:1003900084423846D3D20195194F35460298F06110
:1003A00038680226304338607C6038684021014359
:1003B00039609E48FFF746FF3968B143396000282D
:1003C0000FD10120800224180199486889688902A8
:1003D000081884422E46E0D302980021317603B0FB
:1003E000F0BD00990C602E460021317603B0F0BDBF
:1003F0000348016880220A43026000207047C0461B
:1004000010200240F0B587B0864D2C7E012C03D120
:100410000224204607B0F0BD059206910490039394
:1004200001242C7600F0FCF907467F4D2868C007B0
:1004300008D07E4E00F0F4F9C01BB0426DD8286899
:10044000C007F7D12868800601D5202028602868D9
:10045000C006744B4AD42868400747D40020029055
:10046000D86168680127384368600698059901805B
:1004700000F0D6F904462868C00708D06B4E00F09B
:10048000CFF9001BB0422ED82868C007F7D12868E2
:10049000800601D5202028602868C0060498614B9A
:1004A00000D5A4E02968490700D5A0E069680122C9
:1004B000914369600024012800D1AEE0DC616868E6
:1004C0000192104368600598000C0699488000F07E
:1004D000A7F906462868C00722D000F0A1F9801BC2
:1004E00052498842F6D903244E4B93E02868C0064F
:1004F00004D400202968490708D40CE0D8690221F7
:100500000143D96110202968490704D5D9692143DD
:10051000D9610421084328607FE00324414B7CE03B
:1005200028688006039801D5202129602968C9061A
:1005300004993C4B5BD42A68520758D46A68019EE0
:10054000B2436A600222D243C91E914265D8049127
:1005500005920024DC6169683143696006998880EE
:1005600000F05EF906462868C00706D000F058F98A
:10057000801B2E498842F6D9B5E72868800601D548
:10058000202028602868C0060398264B2FD42968AD
:1005900049072CD46968019A914369600599049EC2
:1005A0008E423AD80024DC61696811436960000C0E
:1005B0000699C88000F034F906462868C00706D0BE
:1005C00000F02EF9801B19498842F6D98BE728687C
:1005D000800601D5202028602868C006114B06D46B
:1005E0002868400703D468680199884314E02868A4
:1005F000C006029904D5D86902210143D9611021AE
:100600002868400704D5D8693843D86104200143DD
:1006100029603C466868B843686000201876204628
:1006200007B0F0BD000D00200C20024050C30000B8
:100630000648C168090601D40020704704490160DA
:1006400004490160C068C0B2C0097047042002407C
:1006500023016745AB89EFCDF0B58CB002900C68F3
:10066000002C00D1C3E06348029A824201D00520E9
:1006700000E0022000902032019200231D460A93E0
:1006800009910CE032433A605B1C0C682046D8406C
:100690000A9A121D0A92AD1C002800D1A7E001277A
:1006A00006979F403C400794EED0039303200246F8
:1006B000AA40D2432B464D682E460640741E012C9C
:1006C0000595049313D80892029A9068089C2040DC
:1006D000CC689C4004439460E806C00F039B98409C
:1006E0005468BC431746089A04437C6007E0032E15
:1006F000029F039B03D106460599049D1FE0F868FD
:10070000104009998C68049DAC400443FC60022EA3
:10071000059914D11C200A9908400F218140DC085A
:10072000A400019E36598E430892099A11698140AE
:100730003143019801515168089A03260E40AE409A
:1007400038681040304338608803800F09999BD087
:100750005D490868069C20430860086820400B90AB
:1007600003201E4686430B98244831580920C006B2
:10077000029A824205D022488242009F02D1274637
:1007800000E000270C200A9A10400F248440A14367
:100790001A4AB41887400F432760174FBA6809995F
:1007A0004868C40210D5079E3243BA60FA688402D2
:1007B00010D4B243FA607A68840310D4B2437A60EA
:1007C0003A68C00311D55DE7079EB243BA60FA6884
:1007D0008402EED53243FA607A688403EED5324360
:1007E0007A603A68C00300D54CE7B2434BE70CB0DF
:1007F000F0BDC04600080048000401400800014068
:100800000004004800690840411E88417047002AE2
:1008100002D0182281507047282281507047000072
:10082000054800687047C0461B48007802490A68BE
:10083000101808607047C046200D002080B506489B
:10084000016810220A430260032000F007F800F05C
:1008500027F8002080BDC0460020024070B5044645
:100860007D20C0000C4E3178FFF784FC01460B4818
:100870000068FFF77FFC01F0DFFA0125032C08D8A0
:10088000002806D10025E84321462A4600F02AF830
:100890007460284670BDC04608000020A8000020F3
:1008A00082B00948016801221143016001681140CA
:1008B00001910199110742680A434260406808406B
:1008C0000090009802B0704718100240002805D42C
:1008D0001F21084001218140014801607047C04646
:1008E00000E100E0002805D40322034693430A4AAE
:1008F0009A1803E00C220240064BD2188007C00E63
:100900008901C9B28140FF2383401068984308439E
:100910001060704714ED00E000E400E0F0B50268FC
:100920005423D15A01242143D15217214D010021D2
:100930004155D65A02273743D7524019846008469A
:10094000F0BD704710B50C060FD428244C43001995
:100950002D21C9004018002A0FD003811B0C012152
:100960000A2283520173002010BD0724214028244D
:100970004C4300192830002AEFD10021062283526F
:100980000173002010BD80B52F2212018358282248
:100990004A438018C26B184602F080FF80BD80B5C4
:1009A0002F221201835828224A4380185F22920086
:1009B0008258184602F0DDFF80BD10B54BB22822E8
:1009C000002B134601D42D23DB00C31807240C4051
:1009D00062439C549A18C90951705521C900435C5F
:1009E000012B01D1022010BD4418012121700068A3
:1009F000114603F0E9FC0020207010BDB0B50F22B5
:100A00000A4043689A4201D90120B0BD4BB2282266
:100A1000002B134601D42D23DB00C31807240C4000
:100A200062439C549A1800249470C909517055214E
:100A3000C900435C012B01D10220B0BD4518012142
:100A400029700068114603F03DFD2C702046B0BDB2
:100A500070B50C464DB22821002D0D4601D42D2530
:100A6000ED0045190726264071436E5469180A6146
:100A7000E2094A70CB70022B01D100220A71552283
:100A8000D200835C012B01D1022070BD84180122A9
:100A90002270006803F07CFB0020207070BDB0B5B0
:100AA00007240C402821614341182D25ED004C55A9
:100AB000491900240D4614351CC54C70006803F01C
:100AC00053FD2046B0BDB0B507220A4043689A42A4
:100AD00001D90120B0BD4CB2002C134600D40B4606
:100AE00028256B43002C01D42D24E5004419E25441
:100AF000E21801239370C90951705521C900445C63
:100B0000012C01D10220B0BD4418237000681146A9
:100B100003F00CFD00202070B0BDF0B581B00724BB
:100B20000C4028252946614341184C2601278F5542
:100B30004C5500240D463C351CC58B6428314F7044
:100B4000006803F011FD204601B0F0BDF0B58FB094
:100B500007460068394624310C9104F08BF90104F2
:100B60001ED4FE49891F084222D05520C0003C18DF
:100B700038684421425AFA4B13404352384600F039
:100B800031FD2078012811D000250C980570012036
:100B900020703868294604F0B8F925700FB0F0BD10
:100BA000386844210E91415E002920D40FB0F0BD79
:100BB000410400D59DE3810400D5A3E31721490139
:100BC0007A18C10400D5A5E3010500D5BFE30106ED
:100BD00000D5D5E3810500D5E2E3C005E6D5386848
:100BE0004421425ADF4B134043520FB0F0BD2D2138
:100BF000C90079180B91014644312B221201BA1811
:100C000005920C9A121D09920123DA030D921A0221
:100C10000892DA02049203221203029201939A03C9
:100C200007920A9720E05021415ACC4A8218511865
:100C30000B9C2278D2008B5ACB490B40E361E288AF
:100C4000059904F01AF938680188C84A11408022D1
:100C50000A430280384600F004FD38680E99425E6F
:100C600001464431002AA1D50A880F24144007D038
:100C7000A100425E95B2002A31D42806EDD53DE1AF
:100C80000021415ED20662D4B84A11400D9A114348
:100C90000180B24909185022805A08180C9C217909
:100CA000C9004018001F0088AF4908407864F96BFC
:100CB0000818F863002638463146FFF764FE2078AE
:100CC0000028CAD0386C0028C7D10C9B1878802126
:100CD0000143C8B239684C2288521E70BDE74118E2
:100CE0000A88A24B1A40802313430B8028216143BA
:100CF0000B9A5618317B002972D0F17802297CD1E9
:100D00005021415A0A183178CB009B18B269079FCD
:100D10003D4200D08CE0914FDF5B934B1F40D31BD3
:100D200000D3A7E00023B361BA4200D9A6E08A004D
:100D30000692835A8E4A13408E4A5340069A835233
:100D40006A0600D49DE0002F00D0B4E0B9E00A05A7
:100D500000D568E7002900D47FE70188834A114065
:100D600080220A4302807D4941185024025B891881
:100D70000B9D2A78D2008B5A7B490B40EB6110D037
:100D80002A46696900290CD01546D28804F075F806
:100D9000E86969690818686100213846FFF7FFFDB6
:100DA00038680188049A114200D056E7029A11402F
:100DB000914200D151E7015B684A8218535A6A4C4C
:100DC000234053520B9B1B693F2B00D2CFE1DC0623
:100DD0005B09002C00D15B1E9C028B5A234337E237
:100DE0005021415A5D4A821851183278D2008F5AE8
:100DF0005D490F4065D0F2885EE031788A00835A01
:100E00005A4F3B400D9FFB18C0338352835AC90091
:100E10000A185021415A564FF1373B4245D04F4BAB
:100E20009A185118091F0F884F490F403BD148E0CD
:100E30004A4FFB181B1F1F884B4B1F40D31B2BD245
:100E40000023B361BA422AD88A000692835A484ADC
:100E50001340484A5340069A83526A0621D58900B6
:100E6000425A424B1A400D9B9A18C0324252002FF0
:100E700019D126E0B361BA4200D858E76A0600D516
:100E800061E78900425A394B1A400D9B9A18C032CB
:100E90004252002F0FD114E0B361BA42D4D96A068E
:100EA000DDD4002F0DD0328906E02C4BD218575AD2
:100EB0002D490F4005D0728971693B4603F0DDFF73
:100EC00000E00027F069C019F0617069C019706115
:100ED000B069002802D03069B84207D931780A9F3A
:100EE0003846FFF75CFD280608D4B6E60A9F386846
:100EF000314603F039FB280600D4AEE6600041001D
:100F00003868425A194B1A400D9B1A434252282105
:100F10006143099A5618F17801292DD10021B16158
:100F2000327B002A00D11DE16A0600D588E0727884
:100F3000012A00D103E1002A00D013E15021415AD7
:100F4000064A801840183178C900425A064B1A40A8
:100F50004252425A0D9B1A43425203E106040000DA
:100F6000FFFB0000FFFE0000FF0300000F0F00006A
:100F70000F3F000080A0000008990D421DD15021B4
:100F8000415AFD4A121852183178CB00D218121F5C
:100F90001288FA4B1A40B3699C1A00D20024B4613B
:100FA000934200D8DFE0716989187161F16989188D
:100FB000F161314603F0D8FA4FE65021445A3178B6
:100FC000CA001718B3690246503206926A0650D416
:100FD000F24ABA180392175BE84A1740DA1B00D2AC
:100FE0000022B261BB4273D9079A154206D189002B
:100FF000425AFC4B1A40FD4B1A4342522421715C69
:10100000012900D068E17169C9197161F269D219C9
:10101000F2613369346A9C4200D3DBE03346243307
:101020000022002C00D122E11A703262234672782D
:10103000012A00D0D4E0069A1288039CA3523FE113
:101040007278012A00D183E0002A00D08AE0502182
:10105000415AE74A101840183178C9004018001F5B
:101060000188DF4A1140018001880D9A11430180F7
:1010700078E0DF4AD7193A1F0392145BD84A14402C
:101080001A1B00D20022B261A3423FD9079A15422F
:1010900006D08900425AD34B1A40D44B1A434252CD
:1010A0002421715C012900D016E17169091971616F
:1010B000F2691219F2613769336ABB4200D3A7E0C3
:1010C0003246243200251570002B00D0A2E0A3E0A8
:1010D0007078012854D000280A9F5BD106980288B6
:1010E00003988218131F1A88BD4C22401A801A8850
:1010F0000D9C22431A80069A1388C25AB84C22408B
:10110000C252C25A0D9C2243C25243E07078012859
:1011100047D000284CD1069804880398025BB04B56
:101120001A400253025B0D9B1A4302530698008833
:101130003A5AAB4C22403A523A5A1A4337E05022BC
:10114000825AAB4BC01880183278D200815209E025
:101150005022825AA64B181880183278D200801874
:10116000001F018031783846FFF70DFC75E5002B34
:101170006DD0545A5D08019E3340EB189B0268E025
:10118000069B1888039C2018001F002202801888E4
:1011900022520A9F3846FFF7F6FB079805420ED009
:1011A0009AE0069B18880022039C225218883A5223
:1011B0000A98FFF7E8FB0798054200D18CE00A98EF
:1011C000006831788900425A864B1A40874B1A438F
:1011D000425281E0E21A32627278012A00D12AE793
:1011E000002A6DD1069A1288039FBC5A7C4D2C4070
:1011F000BC523F2B41D3DD065C09002D00D1641E9B
:10120000A402039FBD5A25430D9C2543BD5257E0C0
:10121000DD1B3B4635621C467278012A22D0002A2B
:1012200056D1069A1288039FBB5A6D4D2B40BB5274
:101230003F2C31D3E5066309002D00D15B1E9B02D4
:10124000039FBD5A1D430D9B1D43BD5240E0535AA1
:101250000D9C234353520188634A1140654A514013
:101260000180FAE4069A1288039B9C5230E01A70BF
:101270003B467278012AB3D1DDE6002B1BD0039CDC
:10128000A55A06951D46019F3D405F087D19AD0298
:10129000069F3D43A55213E0002C14D0039B9D5A9A
:1012A00006952546019F3D4067087D19AD02069FC2
:1012B0003D439D520CE0039FBC5A0D9D2C43BC52F4
:1012C00072899BB206E0039FBB5A0D9D2B43BB5214
:1012D0003289A3B203F022FE0A9F38683178890070
:1012E000425A404B303313400D9AB0325A4042526A
:1012F000B3E438684421425A3F4B813B1340435288
:101300000FB0F0BD38684421425A3C4B1340435261
:101310000FB0F0BD38684021435A0424A343435220
:10132000435A0824A34343521078012804D10021D2
:1013300011703846FFF705FB384600F065F938684C
:101340004421425A2E4B134043520FB0F0BD38682F
:101350004021425A082313434352024640329388A5
:10136000284C1C409480425A04231343435238466D
:1013700000F0AEF90FB0F0BD06040000FF0300005E
:101380003868403081888023994381801178002912
:1013900011D0384600F09CF90FB0F0BD06040000F3
:1013A00038684421425A184B13404352384600F0E3
:1013B0003DF90FB0F0BD018804230B430380018881
:1013C00008230B43038001211170808A80083C238D
:1013D000034053603846FFF7B4FA0FB0F0BDC04683
:1013E000FF0300000F0F00000F3F000080C000004F
:1013F0000604000080B0000080C0FFFFFFDF000097
:10140000FFEF0000FFF70000FFFD0000F0B58BB01C
:10141000002800D1C0E004465520C0002518687897
:10142000002804D100202870204600F0B9F820469A
:10143000243005900320069509906870206803F019
:1014400037F8079460680A90002800D182E0079B73
:10145000283300263746089628204743DE55DC19F6
:10146000089921616161A161E170012262703446D5
:101470001443E7B20A9DBD422AD94743DC55DC1923
:10148000002727616761A761E77062700224344317
:10149000E5B20A99A9421BD945435C555C192761FD
:1014A0006761A761E7706270344609990C43E5B241
:1014B0000A99A9420CD945435C555C1927616761BB
:1014C000A761E7706270361DF7B20A99B942C3D8B6
:1014D00008922D21C900079B5B1800263746354628
:1014E0004743DD55D9190E614E618E61CE704E7045
:1014F0002C4608990C43E1B20A9F8F422AD94143F6
:101500005C54591800270F614F618F61CF704F7085
:1015100002242C43E1B20A9A8A421BD941435C540B
:1015200059180F614F618F61CF704F702C46099928
:101530000C43E1B20A9A8A420CD941435C545918CF
:101540000F614F618F61CF704F702D1DEFB20A99FF
:10155000B942C5D8079DA8680990EB6829696C69EC
:101560002F461837C4CF28680091019402A9C4C13E
:101570000A99099A02F092FF00200599087001214A
:10158000069A5170E969012904D104462846FFF7FB
:10159000C5F920460BB0F0BD01200BB0F0BD000036
:1015A00010B582B000680D49884201D002B010BD6C
:1015B0000120C0050A490A6802430A60096801401F
:1015C000019101981F24002120460A46FFF78AF95D
:1015D0002046FFF77BF902B010BDC046005C00401A
:1015E0001C100240B0B504468068022801D0FEF706
:1015F00024FE2F2005016059012102F0BCFA605938
:1016000002F074FAB0BD000010B5044680690028ED
:1016100006D03748016806229143016001F005FEBB
:101620002F200001205802F08EFA10BD80B52F2126
:101630000901405802F091FA80BD10B55522D20040
:10164000835C012B01D1022010BD84180246243294
:10165000117001222270006803F057FC00202070F6
:1016600010BD80B52F21090142582B2109014118D5
:10167000104602F093FA80BDB0B55521C900425C16
:10168000012A01D10220B0BD441801212170016856
:101690000546084603F0DAFB286802F0EDFE00205C
:1016A0002070B0BDB0B55521C900425C012A01D1FE
:1016B0000220B0BD4418012121700168054608468A
:1016C00002F0F6FE286802F0DFFE00202070B0BDB8
:1016D00010B504462F200001205802F0C9FAA06975
:1016E000002804D00248016806220A43026010BDA7
:1016F00010ED00E0F0B587B004468078C007474F92
:101700004FD00120059001073A1F1068084004904F
:1017100006D11068084310601068084006900698CB
:10172000029203913E4F3868C00512D40598060214
:10173000386830433860FFF773F805463868304240
:1017400007D1FFF76DF8401B6428F7D9032007B0D5
:10175000F0BD032001900002304F3968014012D0E3
:101760006268024091420ED00598000439683A68D8
:1017700002433A603A6882433A600846294A104078
:101780003860C8073AD13868264908406168014383
:1017900039600498002804D1029A1068039988439C
:1017A00010602168C80708D188060ED4880314D4B5
:1017B000002049051AD407B0F0BD386903229043D0
:1017C000A26802433A618806F0D538691022904336
:1017D000E26802433A618803EAD53869802290437F
:1017E000626902433A6100204905E4D53969402223
:1017F000914322690A433A6107B0F0BDFFF710F840
:101800000546614E38688007BDD4FFF709F8401BD4
:10181000B042F7D9019807B0F0BDC0462010024091
:1018200000700040FFFCFFFFF0B581B0002842D0FF
:101830000D460446524B186801210840854208D9DC
:101840001A68012082432A431A601A680240AA4299
:1018500051D1206882074B4E0CD5420704D5072290
:1018600012023368134333603268F0239A43A3684B
:1018700013433360C00721D1414A11680120014060
:101880008D4205D21168814311601168C90732D1B8
:10189000217849073B4F06D5072109023A688A4358
:1018A000E168114339603B681907890F374A0229FB
:1018B00012D2144655E0012001B0F0BD6268032A3F
:1018C00014D0022A2F4B0BD0181F012A15D1006803
:1018D000800308460FD514E003292CD12C4C40E09E
:1018E000181F00688001084605D50AE0254B186BD3
:1018F0008003084605D401B0F0BD006880070846A3
:10190000F9D5186803210091884310431860FEF749
:1019100087FF06461C4F1B4800680C210140606889
:1019200080008142A8D0FEF77BFF801BB842F2D92D
:10193000009801B0F0BD0321CD0399022B40090F9F
:10194000144C645CB96A0F260E401349895DAB42A2
:1019500003D000048342104600E00D48FEF70AFC65
:10196000444338680006000F0C49085CC4400C482A
:1019700004600320FEF772FF002001B0F0BDC046F6
:1019800000200240041002408813000000127A0078
:10199000006CDC029E790008AE7900088E790008A0
:1019A000A8000020F0B587B004460120002C00D12B
:1019B0003CE204902078C007F64E05940CD0716884
:1019C0000C200140042900D08FE03068800303D54B
:1019D0006068002800D131E12078800721D5706847
:1019E0000007800F0ED070680C210140082900D03C
:1019F00098E00320C003716801400120C0038142C8
:101A000000D08FE030688007059C03D5E06801288E
:101A100000D013E13068F82188432169C9000143EF
:101A20003160059C2078000724D42078400736D404
:101A30002078C00600D4CEE0706B059949694A1D34
:101A400000D1BDE0012900D03EE1042108437063CC
:101A5000706B012101437163FEF7E2FE0546706B76
:101A6000800700D5AFE0FEF7DBFE411B0320022913
:101A7000F5D9DBE1706AE16900297ED001210843D4
:101A80007062FEF7CDFE0546706A8007CDD4FEF782
:101A9000C7FE401B0228F7D9032007B0F0BD012084
:101AA00003900107F0690840029006D1F0690843ED
:101AB000F061F0690840069006980191DC4F3868A3
:101AC000C00546D403980402386820433860FEF706
:101AD000A7FE0546386820423BD1FEF7A1FE401B19
:101AE0006428F7D9032007B0F0BD716801400829C8
:101AF00008D10320C0037168014001200004814225
:101B000000D162E76268306801214F04002A00D1E9
:101B100029E1052A00D11FE1012A00D03CE1090496
:101B200008433FE13068059CE168002937D0012176
:101B300008433060FEF774FE05463068800700D524
:101B400068E7FEF76DFE401B0228F6D9032007B0B8
:101B5000F0BD05988168306AB64F002900D1DDE0FC
:101B6000052900D1C5E0012900D1C6E003998843C9
:101B70003062306A04218843C1E0012188437062E9
:101B8000FEF74EFE0546706A800700D44DE7FEF76B
:101B900047FE401B0228F6D9032007B0F0BD012103
:101BA00088433060FEF73CFE05463068800700D46D
:101BB00037E7FEF735FE411B03200229F5D935E151
:101BC000042188437063706BF82188430599896903
:101BD000C900014371630598007880060BD57168D0
:101BE0000C2001400C294DD1706B800303D5059862
:101BF000006A012822D10598446A002C1BD0706825
:101C00000C21014008291CD1012C17D00320C2034C
:101C100070680240F16A059CA36A9A420ED10F22B5
:101C20001140236B994209D191040840E16A88422E
:101C3000049800D0FAE0002007B0F0BD049807B087
:101C4000F0BD0120020631680492914331604706DD
:101C5000FEF7E6FD0546022C0AD13068384200D175
:101C6000C3E0FEF7DDFD411B03200229F5D9DDE0CD
:101C700030683842DFD0FEF7D3FD411B0320022934
:101C8000F6D9D3E071680140082905D10320C003CB
:101C9000716801408142A7D0706B0599096A0029DB
:101CA00000D18FE001210A04104370634C04FEF759
:101CB000B7FD0546706B20429DD1FEF7B1FD411B7B
:101CC00003200229F6D9B1E0042108437063706B48
:101CD000012188437063FEF7A3FD0546706B800702
:101CE00000D478E7FEF79CFD411B03200229F5D9BB
:101CF0009CE0042108433062306A03990843306253
:101D0000FEF78EFD0546306A80071BD4FEF788FD7E
:101D1000401BB842F7D9032007B0F0BD03998843B0
:101D20003062306A042188433062FEF779FD05464F
:101D3000306A800706D5FEF773FD411B0320B942C8
:101D4000F6D973E002980028059C00D070E6F0698F
:101D500001998843F0616BE68A04104330600904FE
:101D6000306808431EE00A049043306088043168FC
:101D700081433160FEF754FD0546059C30683842CA
:101D800000D129E6FEF74CFD411B03206429F5D95B
:101D90004CE0C046001002400A04904330608904C1
:101DA000306888433060FEF73BFD054630683842B6
:101DB00000D011E6FEF734FD401B6428F6D903205D
:101DC00007B0F0BD01210A04904370634C04FEF794
:101DD00027FD0546706B204200D10CE7FEF720FD81
:101DE000411B03200229F5D920E0F06A0F21884326
:101DF000059A116B0143F1627B20C0037168814336
:101E0000D06A0843916A01437160306804990843BD
:101E10003060FEF705FD04463068384200D00AE71E
:101E2000FEF7FEFC011B03200229F5D907B0F0BD27
:101E30000070004088130000401E010E01D00120F8
:101E400070470749074A5060074803680B40032161
:101E500089075918016000209060072111607047C0
:101E6000FFFFFF0010E000E020ED00E070B53C2235
:101E7000825C012A01D1022070BD03463C3300225E
:101E80001A703F231B02CC689C430F239D028E686F
:101E9000AE432643DB024C689C43344307231B03B9
:101EA0000D689D43254303235B030C699C432C432E
:101EB0004B6923430124A403A343C9691943006860
:101EC0004164104670BD0000B0B53C22825C012A1E
:101ED00001D10220B0BD02463C320223537000689B
:101EE00043687024A3430D681D4384684560012343
:101EF0009D07A84205D0B34DA84202D0374DA84255
:101F000004D18025AC4349682143816000201070D2
:101F10005370B0BD70B5002828D005463C356978AF
:101F2000002905D100212970044600F061F82046FF
:101F3000022169700268166801218C07A24205D04F
:101F4000A04B9A4202D0254B9A4211D170239E4356
:101F500083683343224EB2420EDCA24215D01F4C9E
:101F6000A24212D0214CA2420FD034E0012070BD19
:101F700033461B4EB242F0DD924CA24205D0194CC2
:101F8000A24202D0184CA24225D103242402A3432A
:101F900004691C4380239C43836923431360C36803
:101FA000D36243689362874B9A4205D00D4B9A42A5
:101FB00002D00D4B9A4201D1406910635161A97260
:101FC000A970E97029716971A971E9712972697241
:101FD0006970002070BD1C46DCE7C046000400406C
:101FE000FF2B014000480140004401400020004018
:101FF00081B000687349884201D001B07047012068
:10200000C00205490A6802430A600968014000915C
:10201000009801B07047C04618100240F0B53C224D
:10202000825C012A01D10220F0BD02463C3202232B
:102030005370504E3346773B0468A0681840A06048
:102040000D6800234F2D1FDC1F2D36DD202D38D0CD
:10205000302D36D0402D00D087E0206A256A012639
:10206000B5432562A569F026B543CE6836012E43F7
:10207000A6610A25A843496801432162A068472157
:102080000143302081436AE06F2D26DD01204703A4
:10209000BD4257D00003854218461AD0702D64D136
:1020A000A06830404D688E68C9682E4309023143EC
:1020B0000143A160A068772150E0002D01D0102DD0
:1020C00053D1A06870218843054307202843A060AE
:1020D0001846137001215170F0BD502D1BD0602D9A
:1020E00043D11020C043256A054025620F252D03EA
:1020F000A669AE43CD682D033543266AA561A025A8
:10210000AE434968090131432162A16867250D4347
:102110000540A56024E0206A256A0126B5432562B2
:10212000A569F026B543CE6836012E43A6610A257F
:10213000A843496801432162A06857210143202038
:1021400081430CE0A56835404E688F68C968374305
:10215000090239432943A1608003A1680143A160BA
:102160001846137001215170F0BD01201370012138
:102170005170F0BDFF00FFFF10B586B00021059142
:1021800004910391029101910068DD4A904201D0CF
:1021900006B010BD012042040B4B1C6814431C60A8
:1021A0001B6813400093022205920491039102924E
:1021B000000201900920C006009901A9FEF74CFA1F
:1021C00006B010BD002C014014100240F0B582B0E2
:1021D0003C23C35C012B02D1022002B0F0BD0346B8
:1021E0003C330224E241032A71D8C0467A44127972
:1021F000520097440156233A0268106A0125A84309
:102200001062106AA0438E68064350680C680194FF
:102210009569BB4FBA4206D0BC4CA24203D0BC4C1D
:10222000A24200D0BDE00C24A643CC680427BC43E6
:10223000B34F3443BA4200D0B6E0BBE001242502DC
:102240000268106AA84310626002146A84438868B6
:102250000702274350680C680194D569A84CA24234
:102260003AD03E46A24243D148E001242503026809
:10227000106AA8431062156A50688E6801960E684D
:102280000096D7699E4EB24205D0A04EB24202D00F
:102290009F4EB24269D1A603B0434E69B6010643D0
:1022A00064E00268106A1024A0431062106A2024BF
:1022B000A0438C682701074350680C680194946917
:1022C0008F4DAA4223D03E46AA422AD12FE00120B8
:1022D0000021197002B0F0BD0326B602B743554C79
:1022E000FF3CCE6836022640854C3E43A24205D0D4
:1022F000864CA24202D0864CA24221D10324240360
:10230000A0434C698F6927433C01044319E0C02670
:10231000B743CE6836014025AE43794D3E43AA42CD
:1023200005D07A4DAA4202D0794DAA424AD103255E
:10233000AD02A8434D698F692F43BD00054342E0BC
:10234000044610461C3054607324A543019C254369
:10235000D5614C68D4631662D46908252543D561DC
:10236000D4690425AC43D4615AE0064610461C30BB
:10237000566073263602B743009E36023E43D6614E
:102380004E6816646603B543019E36032E431662FB
:10239000E502D6692E43D661A402D569A543D5616D
:1023A00027E03446BA4205D0584EB24202D0584EC9
:1023B000B24221D103263602B0434E698F690643EB
:1023C0003E431AE0054610461830556073252D022D
:1023D000AC43019D2D02254395614C6894631662C0
:1023E0000124E50296692E439661A4029569A543EE
:1023F00095610969090214E00646104618305660D6
:102400007326B543019E354395614D68556314624B
:10241000946908252543956194690425AC4394612A
:10242000096902680A43026000200021197002B0A5
:10243000F0BDC046FFFBFFFF70B5002828D0054661
:102440003C356978002905D100212970044600F047
:1024500063F82046022169700268166801218C0722
:10246000A24205D0264B9A4202D0264B9A4211D165
:1024700070239E4383683343234EB2420EDCA24254
:1024800015D0204CA24212D0224CA2420FD034E0F0
:10249000012070BD33461C4EB242F0DD184CA24202
:1024A00005D01A4CA24202D0194CA24225D10324D5
:1024B0002402A34304691C4380239C438369234370
:1024C0001360C368D362436893620D4B9A4205D090
:1024D0000E4B9A4202D00E4B9A4201D140691063D2
:1024E0005161A972A970E97029716971A971E971C5
:1024F000297269726970002070BD1C46DCE7C04615
:10250000002C014000040040FF2B01400048014026
:1025100000440140002000407047000070B50023D7
:10252000042814D1002912D01446002A0FD02B4AB7
:10253000108A00280DD0108AA04200D2148A2C32B2
:10254000084611462246FDF7F1FD204670BD1846AB
:1025500070BD032C1C463FD3002048700420087037
:102560001F484478601E8441907900281FD0A41C25
:10257000D07800281ED1507B002800D00834906904
:1025800015460E46002801D0102004430920C0063D
:102590000221FEF737F9012811D0304629790029A8
:1025A00013D040210C436979002911D112E0D07871
:1025B0000028E0D0241D507B0028DFD1DFE7202059
:1025C0000443304629790029EBD16979002901D0EB
:1025D00080210C4384700324204670BDA00100209C
:1025E00000000020F0B587B0042801D000F00CFCFA
:1025F000002901D100F008FC002A01D100F004FC00
:102600000878022A04D3042802D14878521E491CB3
:10261000F54D00232B82F02800D9ECE3840001A6BD
:102620003459A746ED290008F72D0008F72D0008BA
:10263000F72D0008F72D0008F72D0008F72D0008EA
:10264000F72D0008F72D0008F72D0008F72D0008DA
:10265000F72D0008F72D0008F72D0008F72D0008CA
:10266000F72D00088F2B0008F92A0008F72D000825
:10267000F72D0008F72D0008F72D0008F72D0008AA
:10268000F72D0008F72D0008F72D0008F72D00089A
:10269000F72D0008F72D0008F72D0008F72D00088A
:1026A000F72D0008F72D0008D92C0008092D000887
:1026B000252B0008332C00086B2C0008732D000814
:1026C0003D2D00088D2A00084B2B0008F72D00082F
:1026D000F72D0008F72D0008F72D0008F72D00084A
:1026E000F72D0008D32A0008432A0008A52C00086B
:1026F000F72D0008F72D0008F72D0008F72D00082A
:10270000F72D0008F72D0008F72D0008F72D000819
:10271000F72D0008F72D0008F72D0008F72D000809
:10272000F72D0008F72D0008C52C0008BF2D000864
:10273000A72D0008032A0008E52A0008D32D000869
:10274000172A0008BF2A00087B2A0008F72D000876
:10275000F72D0008F72D0008F72D0008F72D0008C9
:10276000F72D0008F72D0008F72D0008F72D0008B9
:10277000F72D0008F72D0008F72D0008F72D0008A9
:10278000F72D0008F72D0008F72D0008F72D000899
:10279000F72D0008F72D0008F72D0008F72D000889
:1027A000F72D0008F72D0008F72D0008F72D000879
:1027B000F72D0008F72D0008F72D0008F72D000869
:1027C000F72D0008F72D0008F72D0008F72D000859
:1027D000F72D0008F72D0008F72D0008F72D000849
:1027E000F72D0008F72D0008F72D0008F72D000839
:1027F000F72D0008F72D0008F72D0008F72D000829
:10280000F72D0008F72D0008F72D0008F72D000818
:10281000F72D0008F72D0008F72D0008F72D000808
:10282000F72D0008F72D0008F72D0008F72D0008F8
:10283000F72D0008F72D0008F72D0008F72D0008E8
:10284000F72D0008F72D0008F72D0008F72D0008D8
:10285000F72D0008F72D0008F72D0008F72D0008C8
:10286000F72D0008F72D0008F72D0008F72D0008B8
:10287000F72D0008F72D0008F72D0008F72D0008A8
:10288000F72D0008F72D0008F72D0008F72D000898
:10289000F72D0008F72D0008F72D0008F72D000888
:1028A000F72D00086B2B0008552A0008F72D0008AB
:1028B000F72D0008F72D0008F72D0008F72D000868
:1028C000F72D0008F72D0008F72D0008F72D000858
:1028D000F72D0008F72D0008F72D0008F72D000848
:1028E000F72D0008F72D0008F72D0008F72D000838
:1028F000F72D0008F72D0008F72D0008F72D000828
:10290000F72D0008F72D0008F72D0008F72D000817
:10291000F72D0008F72D0008F72D0008F72D000807
:10292000F72D0008F72D0008F72D0008F72D0008F7
:10293000F72D0008F72D0008F72D0008F72D0008E7
:10294000F72D0008F72D0008F72D0008F72D0008D7
:10295000F72D0008F72D0008F72D0008F72D0008C7
:10296000F72D0008F72D0008F72D0008F72D0008B7
:10297000F72D0008F72D0008F72D0008F72D0008A7
:10298000F72D0008F72D0008F72D0008F72D000897
:10299000F72D0008F72D0008F72D0008F72D000887
:1029A000F72D0008F72D0008F72D0008F72D000877
:1029B000F72D0008F72D0008F72D0008F72D000867
:1029C000F72D0008F72D0008F72D0008F72D000857
:1029D000F72D0008F72D0008F72D0008F72D000847
:1029E000F72D0008E72D0008A00100202C462C340C
:1029F00002F0E0FAA0700420A8850320288207B026
:102A0000F0BD7C48A885032028822C357A480079BF
:102A1000A87007B0F0BD90B2032810D30320C443C0
:102A20004A78561F0120A642064600D317E289784D
:102A3000CCB2012C00D818E2064300D119E26F484D
:102A400005E2E879002803D1287A002800D160E265
:102A50006B482FE190B2052800D2DDE148788A78F2
:102A600012021018CA781204801809790906401851
:102A700002F0CCFE01214140CFE16248A88503204D
:102A8000288268792C35A87007B0F0BD92B2012079
:102A9000022A12D3497802290FD8574881705A4820
:102AA000C173012169730920C006FDF7ABFE411E09
:102AB0004842484102F0D0FE0020544987E2544881
:102AC000A885032028822C354B488078A87007B051
:102AD000F0BDE879002803D1287A002800D11CE253
:102AE000F948E7E0F948A885032028822C354248B8
:102AF000C078A87007B0F0BD90B2032810D3487812
:102B0000012200240D28134600D8234689784E1F41
:102B1000F6B2B6083F2E00D32246134300D1B6E1E9
:102B2000EF4894E190B2032800D27EE1487889789A
:102B30002A462C3200239370EA4AAA8503222A826D
:102B400009020818DF49488127E190B2022800D223
:102B50006DE14978012068730020A8704A1E9141F8
:102B60006971D84A1174E04931E207202882DF48B0
:102B7000006829462C31C8708B70DD4AAA85020E88
:102B80008A71020C4A71000A087107B0F0BD90B258
:102B9000072800D23AE14A780D2A00D936E1887830
:102BA000431EDBB2032B00D930E114010E2317467C
:102BB0001F4001260A2F374600D007460693CD4B0B
:102BC000C04800190C2A00D03E461B19049312304D
:102BD000761E8B794C790F790597C9780393029407
:102BE0007600C0467E44B6887600B74413003002B3
:102BF00014022302044400000000002004470000E7
:102C0000043100000449000068040020042800008A
:102C100004480000C3708470059B43700F46017028
:102C2000032101910224012100912146049C2646A2
:102C30001CE290B2022800D2FCE0AF48C078C2B2D9
:102C40004878C1B2012000239142024600D81A46BA
:102C50000324E4434E1FA642044600D31C461443FB
:102C600000D0E8E069720020E5E090B2022800D2CE
:102C7000CEE04878411E032900D9C9E09149087384
:102C80004A7B824201D901204873032028829B4855
:102C9000A8850120687329462C3100228A70A87209
:102CA00007B0F0BDE879002803D1287A002800D1C8
:102CB00037E19348A885032028822C350220A8708C
:102CC00007B0F0BD8F48A885032028822C35F64830
:102CD000007AA87007B0F0BD90B2022800D2ACE034
:102CE0004A7801206873511E8A41F3490A70EE4BFD
:102CF0001A72AB790024002B00D09FE04A700102C9
:102D0000FC48FDF784FD99E090B2022800D29DE0D6
:102D10004978481E0A468241E3484272002904D09D
:102D2000017A002901D000210172F148A885032011
:102D3000288228462C30002181702EE092B201209A
:102D40000D2A00D242E14A78531E032B00D93DE1FF
:102D50008B78012B00D939E1C878441EA041182492
:102D60005443183CD04A1219012B00D1FEE0F23234
:102D7000FDE090B202284DD3CF48C078012849D158
:102D8000487829462C3100228A70D049A985032130
:102D90002982411E8841C449887302F02DFA01201E
:102DA000687307B0F0BDCC48A885042028822C3574
:102DB000BD484089A870000AE87007B0F0BDC74858
:102DC000A885032028822C35B748407AA87007B020
:102DD000F0BDBB48A885032028822C35F7484079F0
:102DE000A87007B0F0BD02202886AE48E862062031
:102DF000288207B0F0BD2C2104226A5403212982C5
:102E00002C35FF21A970687007B0F0BDA8481EE0FE
:102E1000AF481CE0AD481AE00221B848A88503205D
:102E200028822C35A97007B0F0BDB0480FE0012012
:102E3000A049CCE00120A749C9E00124AE48A885FB
:102E4000032028822C35AC7007B0F0BDA848A885B7
:102E5000032028822C350120A87007B0F0BD1E4643
:102E60008978CCB2012C00D9E6E51846064300D09B
:102E7000E5E59248A88528462C30C4708270182158
:102E80005143894A8918012C57D0DA3156E0C9B22A
:102E90000201854C0E23064605931E4001230A2E8F
:102EA0001E4600D00E46A2180C2800D033460691CC
:102EB00012325C1E03260227A40005A109591446FC
:102EC0008F46C0466804002004300000044500001E
:102ED000F32F0008092F0008DD2F0008E92F000854
:102EE000041100000423000004290000007C0008F5
:102EF00004A00000C00B00200000002004250000FA
:102F00000432000004410000141D07260627052393
:102F10006FE03120E871734806E03020E8717248B4
:102F200002E03220E8716E48A88528462C30FE2148
:102F300081700320288207B0F0BDE6314A89027310
:102F40000B7AC372CB7983728B7943724B7903729C
:102F50000B79C3714B88437109780171110A417370
:102F6000190A81710E20288207B0F0BDFE32107060
:102F70000E794F793F02BE19069656808E790596D6
:102F80001671CE79049656710E7A039696714E7A22
:102F90000296D6718F7A17724A4E3419012B00D1DE
:102FA0000C34CB7A097B2772029EE671039EA671D0
:102FB000049E6671059E2671069E66802070012023
:102FC00068730802C0186081508100203E49A985BD
:102FD000032129822C35A87007B0F0BD14460834AF
:102FE0000B260A27092304E014460C340F260D2370
:102FF000059F2E49A98508212982915D2C35E9710B
:10300000D15DA971D15C6971217829710699E97046
:10301000A87007B0F0BDC3728472059B43720F465F
:103020000172049C264608360B2101910A21069163
:10303000092119E0C3738473059B43730F46017321
:10304000049C26460C360F2101910D210CE0C37122
:103050008471059B43710F460171049C261D072155
:103060000191062106910521009106993770029E73
:103070006654009963540399019BE1540A3A022A69
:1030800004D804F089FB204604F086FB0848A88594
:1030900003202882012068732C350020A87007B017
:1030A000F0BDC04604F000016804002004110000D7
:1030B0000410000004290000000000200447000064
:1030C00004460000A00C0020042700000426000095
:1030D0000425000004240000044300000442000012
:1030E000043200000431000004300000042300001A
:1030F00004220000000400480421000004A1000094
:10310000F0B581B003284DD100294BD0002A49D019
:103110000D78032D02D1012A44D04D780920C40630
:10312000A80712D4280733D4234E0020B06101270A
:10313000B7712A463A402148427039022048FDF7CB
:1031400066FB37716807C20F1CE01B4F0020B86197
:10315000B8713871194E32787270501E8241012553
:1031600029021748FDF753FB20462946FDF74AFB85
:103170003979002916D1411E48424841B278022AC5
:1031800000D3024602212046FDF741FB01B0F0BD0D
:10319000094D0020287101212046FDF733FB2979D4
:1031A000002901D001B0F0BD411E48424841034909
:1031B0008A78022AE5D2E5E7A0010020000000207D
:1031C00000040048FEE7000010B511481149002234
:1031D00000F02CFB002801D0FDF72FF80C480E4919
:1031E00000F076FD002801D0FDF727F8084800F030
:1031F00086FD002801D0FDF720F8054C204600F0A0
:10320000B3FF6420FDF772F8204600F078FD10BD92
:10321000C005002010000020C0000020FEE770471D
:10322000704780B5FDF700FB80BDB0B598B00025B4
:103230000E950F951295119510950D950C950120F1
:10324000139022210B911795022414940E900105DE
:103250001691C003159010200F90059504950395C5
:1032600002950BA8FEF79EFB002803D0EFF3108019
:1032700072B6FEE70A95099508940720079007A8FB
:1032800001242146FEF7D0FA002803D0EFF3108086
:1032900072B6FEE706956004019001A8FEF72AFACF
:1032A000002803D0EFF3108072B6FEE718B0B0BD6F
:1032B000704780B5AD229200825852689047002036
:1032C00080BD10B513460A460024214600F0FEFBDF
:1032D000204610BD10B513460A460024214600F0D2
:1032E000D1FC204610BD10B50446802100F08CFCB6
:1032F0000021204600F088FC10BDB0B513460A46F8
:10330000572189004350A524A400032505514118E5
:103310004B600024214600F0D9FB2046B0BD10B51B
:10332000A521890005224250002421462246234639
:1033300000F0CCFB204610BD10B513460A46A5216F
:10334000890002244450C36103620024214600F036
:1033500099FC204610BD10B5A521890004224250D9
:10336000002421462246234600F08CFC204610BD56
:1033700010B50A4603A02B4C214600F0DDF820468C
:1033800010BDC04648494420436F6E66696700001F
:103390001220088000487047AC00002010B50A4693
:1033A00003A0204C214600F0C7F8204610BDC046BF
:1033B00048494420496E7465726661636500000087
:1033C00004200880004870477C01002010B50A46A0
:1033D00003A0144C214600F0AFF8204610BDC046B3
:1033E0004875656E736F6C20496E632E0000000097
:1033F00010B50A4603A00B4C214600F09DF820466C
:1034000010BDC0464C696E6B2050616420416363FF
:103410006573736962696C697479204B6579706151
:10342000640000001002002010B51A2008804048F7
:1034300001688268521879D041683E48002343767B
:10344000C3754375C3744374C3734373C3724372C8
:10345000C3714371C3700F2313401407640F052C0D
:1034600001D3373300E030330374540F130F052CAE
:1034700001D3373300E0303383704C0F0B0F052C32
:1034800001D3373300E03033837413065C0F1B0F16
:10349000052C01D3373300E03033837313055C0F01
:1034A0001B0F052C01D3373300E0303303731304B3
:1034B0005C0F1B0F052C01D3373300E030338372D0
:1034C00013035C0F1B0F052C01D3373300E030339F
:1034D000037213025C0F1B0F052C01D3373300E07E
:1034E000303383711201530F120F052B01D3373282
:1034F00000E0303202710A03530F120F052B01D383
:10350000373200E0303202760A02530F120F052BD9
:1035100001D3373200E03032827509014A0F090FBA
:10352000052A01D3373100E030310175014810BD63
:10353000ACF7FF1F80010020B0B5002851D0037800
:10354000002B14D0041D0023E51E2D78002D10D073
:10355000A51E2D78002D0ED0651E2D78002D0CD0C7
:10356000251D1B1D2478002C2C46EDD107E00023DF
:1035700005E0012402E0022400E003242343DBB23F
:103580005B009B1C138003224A700B700378002B96
:1035900027D0021D0220C4B20B550C190023637002
:1035A000D41E2478002C1CD0851CEDB24C554C192F
:1035B0006370941E2478002C13D0051DEDB24C5579
:1035C0004C196370541E2478002C0AD0851DEDB26E
:1035D0004C554C196370141D08301378002B22468B
:1035E000D9D1B0BD5721C900415800200873704798
:1035F000B0B50446812100F041F90025E56257206D
:10360000C1006058002803D0641800F0BBFD25609D
:103610000020B0BD10B55721C9004158002914D071
:103620000C464E34E078032807D002280AD12288BD
:10363000A0780D31FFF764FD04E02288A0780D31F9
:10364000FEF7D0FF002060802080002010BD000029
:103650000A210180004870474C010020222101808E
:1036600000487047F8000020222101800048704780
:103670001C010020222101800048704758010020D1
:1036800010B5044681210322052300F00BFA012026
:10369000E062542000F078FD5721C90060500028F6
:1036A00007D04E210022425202734E304280104613
:1036B00010BD022010BD10B513460A46A72189008F
:1036C000445C032C04D14118C9690C7B002C01D047
:1036D000002010BD01240C73812100F0D3FA0020DA
:1036E00010BD0000F0B581B00C46A721890041183B
:1036F000CD696A46002313802678602232401FD0AD
:10370000202A4FD16178491E0A294BD8794409797A
:1037100049008F44054E2D47474747475C6E570089
:1037200006461F46A0780D3540222946FEF7F6FED4
:10373000002803D00246E08882426BD9304631E04F
:1037400062780B2A2ED8C0467A44127952009744E8
:10375000052929292929132929290B210978032930
:1037600020D16946022226E0097803291AD10835BA
:1037700001221C4629461FE0E1780902090A212995
:103780003CD022290ED11D46E2887C2A00D37C221F
:10379000254939E00978032904D1A078A8601846A2
:1037A00001B0F0BD2146FFF79EFD0223184601B08F
:1037B000F0BD291D01221C46FFF7BEFD2346184619
:1037C00001B0F0BDA0782860184601B0F0BD1E46DB
:1037D00029464E31E28863884B80402A00D340223C
:1037E0000A800D352946FFF788FD3346184601B09B
:1037F000F0BDE0786860184601B0F0BD1D46E28873
:10380000092A00D309220749FFF796FD2B461846DF
:1038100001B0F0BD30462946FFF78EFD3B46184605
:1038200001B0F0BD400100202C00002010B50028A0
:1038300011D0A7239B00C3189C69002C01D0002441
:103840009C61002900D0596102700121197000F0BB
:10385000DDF8002010BD022010BD000080B50B2255
:1038600092018058FDF7CAF8042802D30220C0B2A2
:1038700080BDC100F448C840C0B280BD80B50B22F5
:1038800092018058FDF799F8042802D30220C0B2B3
:1038900080BDC100F548C840C0B280BDF0B581B060
:1038A000A5239B00C718AD239B00C418002909D08D
:1038B000226853690222002B26D03C7A032C23D1A4
:1038C000984724E03968002916D0042914D0022929
:1038D00015D1016A466AB1421DD9891B01628BB2BA
:1038E000044611461A46FFF7F5FC002120460A4619
:1038F0000B4600F0EBF802E0802100F085F9387B00
:10390000012804D100223A73104601B0F0BD002214
:10391000104601B0F0BD0090C56928463146FCF75D
:1039200029FCB54213D3002911D1786885420ED203
:103930000025009C204629462A46FFF7CBFC7D60E7
:10394000204629462A462B4600F0C0F8D7E72068D3
:10395000C168002904D0387A032801D1009888472B
:103960008021009C204600F04FF92046FFF7D7FC4D
:10397000C5E7F0B581B0A5239B00C518AD239B001A
:10398000C41800290CD0226892690223002A04D0AE
:103990002C7A032C01D190470023184601B0F0BDCA
:1039A0002968052918D000230329F6D10B214901E4
:1039B0004618376871688F4217D91C467B1A3360E6
:1039C0008B4200D30B469BB211461A46FFF779FC97
:1039D0002346184601B0F0BD00242C60214600F0BB
:1039E00013F92346184601B0F0BD1E462168096947
:1039F000002905D02A7A032A02D1044688472046A6
:103A0000FFF7A9FC3346184601B0F0BDB0B50B2155
:103A10008A01174981502F231B01C85000238B6155
:103A2000CB610B6202230B610824124D0D604C60C8
:103A30008B6085180846FDF7E9FC002801D0FCF7EB
:103A4000FCFB28680024182321462246FCF77AFF55
:103A50002868802158232246FCF774FF286801213A
:103A60000B0281212246FCF76DFF2046B0BDC04607
:103A700084080020005C00400B22920180584AB26A
:103A8000002A07D428224A438018B521490040184B
:103A9000007870477F22114028224A4380182A303C
:103AA0000078704710B514460B22920180581A46D0
:103AB0002346FCF7CDFF042802D30220C0B210BD7C
:103AC000C1007848C840C0B210BDC04610B50B2434
:103AD000A4010059FCF7E3FF042802D30220C0B27E
:103AE00010BDC1006F48C840C0B210BDF0B581B074
:103AF000064600244025214622462B46FFF7D2FFEA
:103B00002B20C000012737503018C5608021304677
:103B100022462B46FFF7C6FFA52189007450711875
:103B20000F727562B7610C617460AD218900711804
:103B30004A68002A04D009684A6800213046904744
:103B4000002001B0F0BDA7218900425C042A02D107
:103B50004018417801700020704780B5A721890086
:103B6000425C032A05D141188969C969002900D03E
:103B70008847002080BD01740020704780B50B226B
:103B800092018058FDF759FD042802D30220C0B2EB
:103B900080BDC1004348C840C0B280BDF0B581B00F
:103BA0000546A5208600AF193C461434204600F097
:103BB0007BF80121A951798B7960397D1F220A4058
:103BC000022A11D0012A08D0002A14D12846214601
:103BD00000F09AF8002001B0F0BD2846214600F020
:103BE00099FA002001B0F0BD2846214600F0F0F916
:103BF000002001B0F0BD80221140284600F004F8FA
:103C0000002001B0F0BD000080B50B229201805869
:103C1000FCF759FF042802D30220C0B280BDC100C6
:103C20002048C840C0B280BD80B50B2189014058F2
:103C3000FDF722FD042802D30220C0B280BDC100DE
:103C40001848C840C0B280BD0002010280B50B21F7
:103C500089014058FDF726FD042802D30220C0B296
:103C600080BDC1000F48C840C0B280BD0002010243
:103C7000A7218900425C042343544018427000206D
:103C80007047000010B50B24A4010059FCF745FF54
:103C9000042802D30220C0B210BDC1000148C840B0
:103CA000C0B210BD000201020A7802704A78427068
:103CB0008A78CB781B029A1842800A794B791B02CA
:103CC0009A1882808A79C97909028918C180704757
:103CD000002904D0AD2292008150002070470220BC
:103CE000704780B5AD2292008258002A05D0126834
:103CF0009047411E8841400080BD022080BD80B5B4
:103D0000FFF792FF002080BD70B582B0A72292001D
:103D100085180A785206920F531E022B05D2AA6903
:103D200092689047002002B070BD002A00D03DE1AB
:103D30004A78092A00D939E15200C0467A4492886B
:103D400052009744090025003301440033014E001E
:103D50006E00330118002F002A78521E022A00D963
:103D600024E1C988022900D020E1A968002900D1F6
:103D7000BDE00321BCE0C988012900D016E1297803
:103D80004A1E022A64D2002181600146083163E0A4
:103D90002A78521E022A00D908E149880129C1D196
:103DA000002118E04988894E3170C9B2022900D338
:103DB000FCE02A78032A55D0022A00D072E00029BC
:103DC00000D1BDE003222A7041600446B0E049887A
:103DD0000129A7D10121A960FFF7BDFA002002B097
:103DE00070BD8A88002A00D0E0E0CA88002A00D08E
:103DF000DCE04E887F2E00D9D8E02978032900D155
:103E0000D4E0AE70F1B20446FFF7B8FE2046FFF7EB
:103E1000A2FA002E00D1D4E002202870002002B0C7
:103E200070BD01AA002313804A88130A5B1E062B6B
:103E300000D9BBE07B441B795B009F44032B1DB77B
:103E4000B7424C000E460446007C69690A688FE060
:103E5000032900D0AAE0011D0122FFF76DFA00201E
:103E600002B070BD00294CD04168012958D1FFF73C
:103E700072FA002002B070BDD2B2052A00D995E0D6
:103E80007A4412795200974402696366606C6A69E9
:103E9000526868E00E46A9690446007C002838D0C4
:103EA000C96A37E080210446FFF7AEFE00212046B4
:103EB000FFF7AAFE31782046FFF7FBF9002002B099
:103EC00070BD027C002A71D10E460446A869416B80
:103ED00001A888474EE0027C002A67D10E460446BE
:103EE000A869016B01A888470146072016E0012157
:103EF000C16001460C310222FFF71EFA002002B019
:103F000070BD0022426002222A700446FFF7D1F9F8
:103F100015E0896A01A888470146022048702AE016
:103F2000C9B20546FFF7C5F9317869602C462846C5
:103F3000FFF7D7FE022802D18021204638E0204634
:103F4000FFF709FA002002B070BD6A6952690AE001
:103F50006A69D26807E06A69126904E06A6992686E
:103F600001E06A699269002A20D00E460446007C6E
:103F700001A99047014601A80288002A0CD0F088C8
:103F8000002809D03546824200D3024601A80280AB
:103F90002046FFF7D1F92E46F088002800D0C1E670
:103FA0002046FFF7D8F9002002B070BD80210446FA
:103FB000FFF72AFE00212046FFF726FE002002B070
:103FC00070BD01202870002002B070BD0C020020DE
:103FD00070B5A722920082180C78602323405C09F8
:103FE000651E022D04D2926992689047002070BD30
:103FF000002C63D1202B03D192699268904770BD49
:104000000C46097923466478002C27D0012C15D062
:10401000032C53D11278032A13D15A88002A09D1CC
:104020007F220A4006D0DA88002A03D10446FFF72F
:10403000EBFD2046FFF78FF9002070BD1278032AB0
:1040400017D0022A3AD14A0638D00446FFF7DCFDE1
:1040500080212046FFF7D8FD002070BD1278032A8A
:1040600015D0022A2AD14A0628D1090648D514219A
:1040700048E05A880025002A29D14A0603D0044680
:10408000FFF7ECFB2046FFF766F9284670BD0F22CC
:104090000A4014235343C218802903D22B23DB0088
:1040A000D25800E09269002A08D01422802910D347
:1040B0007F230B405A43841814340FE080210446B8
:1040C000FFF7A2FD002520462946FFF79DFD284663
:1040D00070BD4A43821855239B00D41800224B061A
:1040E000164606D00546FFF7C7FC02462846511E75
:1040F0008A41226002222146FFF71EF9304670BD38
:10410000552189000024445041180222FFF714F978
:10411000204670BDB0B50A7860231340602B0AD0EA
:10412000A7229200821813785B1E022B03D88B887B
:104130001B065B0E09D080210446FFF765FD0021B8
:104140002046FFF761FD0020B0BD926992680446E9
:104150000D469047E9880029F5D10028F3D1204683
:10416000FFF7F9F80020B0BD10B50446AD2080007F
:10417000205842682179204690472046FFF766FD87
:10418000002010BD70470000004870471004002058
:10419000F0B587B00F78BB00C45A834A2240CD786F
:1041A000032D069512D800240594C0467D442D7930
:1041B0006D00AF4401030D07012404E07B4C12198C
:1041C000521C05E003246402224301E0012405940B
:1041D000774D2A43C252C25AD04C22403A432A4316
:1041E000C2520125AA0204920E7B724A002E06D00A
:1041F000069C022C03953C4624D0164623E050260C
:10420000865B0296CE88AE43FA0001922A463D466E
:104210004F78002F7AD004994118019A8918029D8D
:104220004E53C15A4906634A04D5C15A2140511818
:104230004031C152C15A30340C400699012960D036
:104240002032ACE05C4EC75A5C4D3D403543C55210
:104250005025465B049A8718E200BA18039CE7438E
:104260001C460B893B409353435BD2184B893B4020
:1042700093802546035BBA4E3246F1321A404978A4
:1042800000291BD0002A2B46A44C04D0C15A21403F
:10429000784A0A43C252C15A4906464A069D04D585
:1042A000C15A214051184031C152C15A30340C40DA
:1042B000012D22D0114620314C401FE0002A2B4610
:1042C000964C04D0C15A21406A4A0A43C252C15A8C
:1042D0004906384D04D5C15A214069184031C152B0
:1042E000C15A3140364A4A40C252C15A30340C4059
:1042F0002C43C452059807B0F0BD1443C452C45AAD
:1043000034401443C452059807B0F0BD03920095A1
:1043100007465037049A1518019AAA180692029A6D
:10432000069DAD18AE80069A921D3F88D55B1F4E44
:104330002E40D653164609693F290BD3CA064909B0
:10434000002A1C4D00D1491E8902BA5B0A43803DF8
:1043500015430EE00029174D08D0F55B039A0A407B
:1043600049088918890229430D4602E0F15B803D26
:104370000D43F553C25A7A490D46F1352A4204D00D
:10438000C25A22403B4C1443C452009A002A03D024
:10439000C25A0A400B4C02E002880A40084C5440C2
:1043A000C452059807B0F0BD8F89FFFFFF030000DE
:1043B0008080FFFF808000008081FFFF0F0E0000E3
:1043C00080B0FFFF80A0FFFFF0B50A789200855A09
:1043D0004C780E7B514B2649002E28D0604F3E462C
:1043E000F1363540002C2BD04F4E002D03D0845A8F
:1043F0001C4034438452845A64061D463035002CD8
:104400003C4603D5875A1F400F438752875A1F40A7
:10441000374387520E46403E835A2B4033438352E4
:10442000835A2340C918403981520020F0BD002C26
:1044300016D01C4630346D061D460E46ECD4EFE710
:10444000002D04D0845A1C400A4D25438552845ABD
:1044500065061C463034002D0E463D46D2D4D5E7C5
:104460003F4C2646F1363542DAD02F4E1D46D3E773
:10447000C080000080C0FFFF5821425A0123DB03A7
:1044800013434352002070475821425A024B1340B5
:10449000435200207047C046FF7F000040220121A8
:1044A000815200218152403081800182084670474C
:1044B0004021425A024B1340435200207047C046ED
:1044C0007F400000B0B50A7B002A01D00020B0BDBB
:1044D0000A789200855A4B78002B0DD06B060F4B53
:1044E0000F4C04D5855A1D40651920358552C97871
:1044F0000129EBD030330BE0194B1946F131094C4F
:104500000D4205D0815A054D0D4007496918815269
:10451000815A1940614081520020B0BD0F0F000048
:10452000A080000080B0000080C0000010B54B7873
:10453000002B04D0094A002B04D1094B03E0064AA2
:10454000002BFAD0074B09788900445A1C4054408C
:104550004452002010BDC0468090FFFF9080FFFFB6
:104560000F3F00003F0F0000F0B58AB007464C78BF
:10457000012C56D18D690C69A54200D325460A7BD2
:10458000002A7ED00B6AC878022800D0D7E00695B2
:104590000D78AA00B85A3E46FD4F07400794A34243
:1045A000089200D836E1FB480743B752069FD81B54
:1045B00005900862B05A5022B35A4006BAB203922C
:1045C000EC003246503204920122920200280996F1
:1045D00000D590E1961930190190C01847804869BC
:1045E0000290039A002A3D4600D134E30889371827
:1045F000501C430803241C40581E002C00D101E22B
:1046000000900396029E307872781202101838805B
:10461000012C00D0FAE1B41CBF1C00980346039E95
:10462000FEE2087B002852D0CA78012A00D1B7E008
:10463000022A00D0EBE00E78002C00D09FE2502040
:10464000385A381801220692920207928018851C67
:104650000896F300E85ADC4A1040E8520E690997C0
:104660005037DA4C3F2E00D27CE1F0067409002866
:1046700000D1641EA0025A5B0243D44CB03C1443E8
:1046800052E2012290022B04089000D128E1099700
:104690003B18CC881B19ACB2641C66080327374052
:1046A0004C69701E002F00D1FEE0079020786278E0
:1046B000120210181880012F00D041E1A41C9B1C8D
:1046C00007980646099F032800D3F0E008E1502030
:1046D000385A099738180125AA028018831D0878CE
:1046E0000890C400185BB84A02401A530F698E69DB
:1046F000F21B14D200228A61BE4213D23F2E14D381
:10470000F00671090028099F00D1491E089E880201
:10471000E15A0143AE48B0380843E05272E28A6180
:10472000BE42EBD33E463F2EEAD2002E099F00D177
:1047300011E1185B35407108491989020EE1581BD7
:104740000862087882000892BA5A5023FC5A56062A
:10475000ABB2C200B8180019012292028018002ED4
:1047600000D582E045809B4C984D002B00D199E00C
:10477000B8180A898518581C430803261E40496941
:104780005C1E002E00D161E108784A7812021018F0
:104790002880012E00D00CE1891CAD1C234655E178
:1047A0000A698B699D1A07D200258D61934206D252
:1047B0000E78002C08D025E28D619342F8D3134681
:1047C0000E78002C00D01DE25020385A38180124F1
:1047D000A102079140183146861C0891C900705A01
:1047E000794A1040705209973D465035774F3F2B1C
:1047F000069400D2C1E0D8065C09002800D1641EEE
:10480000A0028A5B02433C46B03C1443CFE1012046
:104810000AB0F0BD6E4838183038B052E800301891
:104820005022B25A80180122920280184380180444
:10483000684C664D374635D0B8180A89851898B245
:10484000401C430803261E4049695C1E002E00D10F
:1048500022E108784A78120210182880012E00D030
:10486000BAE0891CAD1C234616E1C580594C574D52
:10487000002B17D0B8184A898518581C43080326FE
:104880001E4049695C1E002E00D12BE108784A7851
:10489000120210182880012E00D0A8E0891CAD1C3F
:1048A00023461FE108995FE2099F032818D3207867
:1048B0006278120210181880A078E278120210189C
:1048C000588020796279120210189880A079E279D4
:1048D00012021018D880361F08340833002EE6D193
:1048E0005020385A089AD21910180978CA0080182E
:1048F0004580890036E2961930190190C018C780AA
:1049000048690290039A002A3D4600D1FEE1488999
:104910003718501C430803241C40581E002C73D029
:1049200000900396029E3078727812021018388038
:10493000012C77D1B41CBF1C00980346039ECAE12A
:10494000A078E278120210185880022F24D1B61EE7
:10495000241D1B1D28E0185B1D49B0390143195364
:10496000089E4FE1002E00D1DBE0E85A3246069C5B
:1049700022407408A2189402D5E0002B00D112E165
:10498000705A1A4622405C08A21894020EE1C046F2
:104990000F0E000080810000207962791202101849
:1049A0009880F61EA41D9B1D099F0798032897D386
:1049B0007DE78878CA78120210186880022E3DD1EF
:1049C0009B1E091D2D1D41E0FF030000B08000006B
:1049D000B080FFFF3F0F00008878CA7812021018DD
:1049E0006880022E50D19B1E091D2D1D54E0887831
:1049F000CA78120210186880022E6BD19B1E091D06
:104A00002D1D6FE0029C0BE1029C64E1B078F2780E
:104A1000120210187880022C00D0F7E09B1E341D83
:104A20003F1DFBE0B078F278120210187880022C5B
:104A300000D046E19B1E341D3F1D4AE108794A79AA
:104A400012021018A880DB1E891DAD1D032C00D298
:104A500087E1FA4C08784A78120210182880887882
:104A6000CA7812021018688008794A791202101860
:104A7000A8808879CA7912021018E8801B1F0831B3
:104A80000835002BE6D14AE008794A79120210185D
:104A9000A880DB1E891DAD1D032C00D261E1E74C0F
:104AA00008784A781202101828808878CA7812028A
:104AB0001018688008794A7912021018A88088793D
:104AC000CA7912021018E8801B1F08310835002B24
:104AD000E6D124E008794A7912021018A880DB1E7A
:104AE000891DAD1D032C00D23BE1D44C08784A78D7
:104AF0001202101828808878CA781202101868806C
:104B000008794A7912021018A8808879CA791202A5
:104B10001018E8801B1F08310835002BE6D10899D2
:104B200021E1E85AB03C0443EC520998079A101866
:104B30003A888018851DE85ABD4A1040E8523F2E39
:104B40000DD3F0067409002800D1641E099F089E49
:104B5000A0025A5B0243B74CB03C14430EE0002E57
:104B600006D0E85A069C344072081219940202E0FA
:104B7000E85AB04CB03C0443099F089EEC52C86907
:104B800000283FD0B1007B5AAB480340834201D09C
:104B9000002B37D1785AA94A303A0240A848101859
:104BA000103078522EE0705A3C46B03C04437452A8
:104BB0000998079A10182A888018851D685A9C4AF7
:104BC000104068523F2B0CD3D8065B090028089E82
:104BD00000D15B1E98024A5B0243B03F17434F531C
:104BE0000FE0002B089E08D0685A069C1C405A080B
:104BF0001219920202436A5203E0685AB03F074317
:104C00006F52099FB1008F4D8F4CADE030797279B2
:104C100012021018B880DB1EB41DBF1D039E009841
:104C2000032818D320786278120210183880A078F0
:104C3000E278120210187880207962791202101836
:104C4000B880A079E27912021018F8801B1F08348E
:104C50000837002BE6D1029847194F610798059B4A
:104C6000834201D8002200E05A1B049C0A6283425E
:104C700000D81D462088019A1018C580AAB2002AC3
:104C80006ED048893118501C430803251D405C1E16
:104C9000002D00D182E038787A781202101808804E
:104CA000012D03D1BF1C891C234677E0B878FA7820
:104CB000120210184880022D68D19B1E3F1D091D4D
:104CC0006CE03079727912021018B880DB1EB41DC6
:104CD000BF1D039E0098032818D320786278120223
:104CE00010183880A078E2781202101878802079A5
:104CF000627912021018B880A079E27912021018B5
:104D0000F8801B1F08340837002BE6D1029847199A
:104D10004F610798059B834201D8002200E05A1B8F
:104D2000049C0A62834200D81D462088019A10180C
:104D30004580AAB2002A13D008893118501C4308B4
:104D400003251D405C1E002D4ED038787A78120263
:104D500010180880012D0ED1BF1C891C234643E08A
:104D6000099F0899354C334D785A20406840785255
:104D700000200AB0F0BDB878FA7812021018488006
:104D8000022D29D19B1E3F1D091D2DE038797A790E
:104D9000120210188880DB1EBF1D891D254D032CB3
:104DA00025D3264C38787A78120210180880B87803
:104DB000FA7812021018488038797A79120210189D
:104DC0008880B879FA7912021018C8801B1F08373A
:104DD0000831002BE6D128E038797A7912021018D0
:104DE0008880DB1EBF1D891D124D032C03D2099F35
:104DF0000899124CB8E7114C38787A7812021018DA
:104E00000880B878FA7812021018488038797A79D0
:104E1000120210188880B879FA7912021018C88026
:104E20001B1F08370831002BE6D1099F08999BE723
:104E3000FF030000B0800000404000003F0F000072
:104E4000B080FFFF80B000000F3F000002464032FC
:104E5000002191804022024B835208467047C04691
:104E600080BF000080B50248FBF770FE80BDC046E1
:104E7000840800204421405A704770B580180122F0
:104E800092028018022B31D35A0803251540541E74
:104E9000002D14D006880E70360A4E70012D05D1F3
:104EA000891C801C2246032C0BD21FE046888E7082
:104EB000360ACE70022D1ED1921E091D001D032C34
:104EC00014D304880C70240A4C7044888C70240A13
:104ED000CC7084880C71240A4C71C4888C71240AAB
:104EE000CC710830121F0831002AEAD1DA0701D04C
:104EF0000088087070BD85880D712D0A4D71D21E15
:104F0000891D801D032CDCD2F0E7002901D0002090
:104F100070474C21802242520020704770B5002B10
:104F20003CD080180122920280185A1C5208032497
:104F30001440531E002C16D00D784E783602751989
:104F40000580012C05D1891C801C1A46032B0CD22C
:104F500024E08D78CE78360275194580022C1ED15A
:104F6000921E091D001D032B18D30B784C782402C8
:104F7000E31803808B78CC782402E31843800B7904
:104F80004C792402E31883808B79CC792402E318CE
:104F9000C380121F08310830002AE6D170BD0C7999
:104FA0004D792D022C198480D21E891D801D032B62
:104FB000DBD2F3E7B0B5BB484478601E8441BA4DFC
:104FC000A879002819D1E87800281AD1687B002830
:104FD0001BD1A869002801D0102004430920C00675
:104FE0000221FBF70FFC012814D02879002816D1E4
:104FF0006879002818D1E0B2B0BDA41CE878002878
:10500000E4D0241D687B0028E3D00834A869002878
:10501000E2D1E3E72020044328790028E8D04020AB
:10502000044368790028E6D080200443E0B2B0BD94
:10503000F0B581B09A4F78899A49C8803A7A501E63
:10504000824100920A70787A411E88419649C87060
:105050000420C043397B4A1F824201D801213973A1
:105060009048C1700320C243787B431F934201D311
:10507000884201D9012078738A4B18710120414080
:10508000BA7BD2B20A43511E8A415A71002103E011
:105090002031801CE02943D0421ED2B20A3A022AB3
:1050A00004D9C2B20A3A022AF2D816E07A18537D1D
:1050B00021255355157D20269555967C9675D47CD3
:1050C000D4751576D477967753771577D476967608
:1050D0005376C2B20A3A022ADAD87A182223D35C6B
:1050E000262413552324155D272415552424145DE7
:1050F000282694552526965D3127D6553027D45538
:105100002F27D5552E27D3552D27D6552C27D455A7
:10511000634F2B2415552A2413552923D654B7E75A
:1051200039461231324E202530462A46FAF7FEFF24
:1051300030462030394632312A46FAF7F7FF3046FA
:105140004030394652312A46FAF7F0FF3046603097
:10515000394672312A46FAF7E9FF3046803039463F
:1051600092312A46FAF7E2FF3046A0303946B23192
:105170002A46FAF7DBFFC0363946D23130462A4696
:10518000FAF7D4FFF87B032801D30220F8734549CE
:1051900088700020444EB061B0713071009A4A703E
:1051A000397C022900D30146397471710125290225
:1051B0001048FBF72CFB0920C40620462946FBF7C4
:1051C00021FB3179002903D002F086FB01B0F0BD4C
:1051D000411E4842484133498A78022A00D3024698
:1051E00002212046FBF713FB02F076FB01B0F0BD75
:1051F000C00B00200004004870B5E4484189294DE7
:10520000E980017A4A1E91412970417A4A1E9141F2
:10521000E44EF1700421CA43017B4B1F934201D835
:1052200001210173E9700322D343427B541F9C4246
:1052300001D38A4201D9012242732A7101225140CD
:10524000827BD2B20A43511E8A416A71C17B032913
:1052500001D30221C173A970017C022901D300216D
:1052600001740020B0617171B07130710920C40601
:1052700001212046FBF7C6FA3179002902D002F05D
:105280002BFB70BD411E48424841AA78022A00D338
:10529000024602212046FBF7BAFA02F01DFB70BD60
:1052A0006804002000000020A0010020F0B5DDB05F
:1052B000B64D2846F0306821FAF751FF00242C82C1
:1052C000B348B449B44AB54B2B606A60A960E86042
:1052D00028461230B24E202731463A46FAF726FFCA
:1052E00028463230314620313A46FAF71FFF284629
:1052F0005230314640313A46FAF718FF28467230AC
:10530000314660313A46FAF711FF2846923031466D
:1053100080313A46FAF70AFF2846B2303146A031CA
:105320003A46FAF703FF2846D230C0363146059791
:105330003A46FAF7FBFE012003E02034801CE02C03
:1053400044D0411EC9B20A39022904D9C1B20A396E
:105350000229F2D817E08D4909194A7D2123CA5440
:105360000B7D059D4B558D7C8D75CE7CCE750B765A
:10537000CE778D774A770B77CE768D764A76C1B227
:105380000A390229D9D88149091922228A5C26239F
:10539000CA542323CB5C27254B5524254E5D282555
:1053A0004E5525254D5D3127CD553027CE552F271C
:1053B000CB552E27CA552D27CD552C27CE552B261C
:1053C0008B552A23CA5429228D54B6E7FE20002784
:1053D0006E4A1754FC201752F2201754F42017502D
:1053E000152000011752A3204000175451208000BF
:1053F00017529D204000175427200690C0001752D6
:105400009720400017544B208000175291204000F5
:1054100017540920400117528B2040001754452093
:10542000800017528520400017542124E0001752B5
:105430001046F430878087710120049000020390A9
:1054400017504321890057502325E8000290175038
:1054500049239B00D7501326360197514F208000D7
:105460000190175003981018877187805018877122
:1054700087800298101887718780D018877187807D
:105480009019877187800198101887808771292665
:10549000F00017501018877187805520830007A8E7
:1054A000114603931A46FAF741FE5C973846059B6E
:1054B00007A9CA5D8218C8194178511882788918DD
:1054C000C2788918027989184279891882798918ED
:1054D000C2798918027A8918427A8918827A8918D9
:1054E000C27A8918027B8918427B8918827B8918C5
:1054F000C27B8918027C8918427C8918827C8918B1
:10550000C27C8918027D8918427D8918827D89189C
:10551000C27D8918027E8918427E8918827E891888
:10552000C27E8918027F8918427F8918827F891874
:10553000C27F8918C25C8918025D89182222825CA8
:105540008918425D89182422825C89182522825C90
:1055500089182622825C8918069A825C891828227A
:10556000825C8918825D89182A22805C08182B3792
:105570002B21C9008F429BD19849039A8850FFF78D
:1055800057FDBE48049941735DB0F0BD680400202A
:10559000010101020100881308005801EFBEFFC09D
:1055A000C0790008A0010020F0B583B088490B68DD
:1055B0000020884A934200D007E18B88082B00D056
:1055C00003E12B230293DB00CC889C4200D0FCE05B
:1055D000002004460D5C65190C186678AD19A67894
:1055E000AD19E678AD192679AD196679AD19A679A8
:1055F000AD19E679AD19267AAD19667AAD19A67A94
:10560000AD19E67AAD19267BAD19667BAD19A67B7F
:10561000AD19E67BAD19267CAD19667CAD19A67C6B
:10562000AD19E67CAD19267DAD19667DAD19A67D57
:10563000AD19E67DAD19267EAD19667EAD19A67E43
:10564000AD19E67EAD19267FAD19667FAD19A67F2F
:10565000AD19E67FAD192026A65DAD192127E45DC1
:105660002C1922305525AD00A842B3D15A48006804
:10567000844200D0A0E0594CE3800820A080226042
:105680008868A060C868E06020461230544920262F
:105690003246FAF74BFD2046323052493246FAF78D
:1056A00045FD2046523050493246FAF73FFD20462C
:1056B00072304E493246FAF739FD204692304C4955
:1056C0003246FAF733FD2046B2304A493246FAF7FD
:1056D0002DFD2046D230484900963246FAF726FD85
:1056E0002046F230454918263246FAF71FFD85203C
:1056F0004000201842493246FAF718FD9120400038
:10570000201840493246FAF711FD9D20400020182C
:105710003D493246FAF70AFD2F48006860510120E2
:105720000021019703E02031801CE02947D0421E70
:10573000D2B20A3A022A04D9C2B20A3A022AF2D8EA
:1057400016E0264A5218537DD355157D009C1555F9
:10575000967C9675D47CD4751576D47796775377E6
:105760001577D47696765376C2B20A3A022ADAD8F8
:105770001A4A52182223D35C262413552324155D7C
:10578000272415552424145D282694552526965D36
:105790003127D6553027D4552F27D5552E27D35509
:1057A0002D27D6552C27D455019F029C15552A2408
:1057B00013552923D654B6E7002003B0F0BDFFF7F8
:1057C00037FC2E4800214173012003B0F0BDC046D4
:1057D00000780008EFBEFFC054790008680400207C
:1057E00012780008327800085278000872780008B1
:1057F00092780008B2780008D2780008F2780008A1
:105800000A790008227900083A79000870B584B056
:10581000054600240094FAF70BFF012003900D4E7B
:105820000296019401A86946FAF772FD002804D097
:10583000FAF7DEFD204604B070BD02200023314699
:105840002A46FAF7DFFD44424441FAF7D1FD2046EB
:1058500004B070BD007C000880B5084909790029B2
:1058600000D080BD06498A78022A00D3024609206A
:10587000C0060221FAF7CBFF80BDC046A001002080
:105880000000002010B5FFB089B0FAF7D7FF00265E
:105890003596369639963896379634963396012053
:1058A0003A90222532953E9601053D91C4033C94E1
:1058B00002273B97359010203690299628962796F8
:1058C000269632A8FCF76EF8002803D0EFF310807C
:1058D00072B6FEE72295319630962F9707252E95C2
:1058E0002EA801211991FBF79FFF002803D0EFF3A9
:1058F000108072B6FEE70B950E972A96199845040C
:10590000259525A8FBF7F6FE002803D0EFF31080BD
:1059100072B6FEE7369635963496339632961998D7
:1059200081050346D24802680A43026002680A40C1
:105930002592259901682943016001682940259134
:1059400025991D46990402680A43026000680840D0
:105950002590259809201D90C706C64938461897F6
:105960003246FAF754FF29021091F831C248324604
:10597000FAF74DFFC148032111913246FAF747FF6C
:1059800034963396329532AD38462946FAF764FE9E
:10599000199F349733960420169032901898294610
:1059A000FAF75AFE359634963397A01C3290189F1A
:1059B00038462946FAF750FE0E9C34943396C020A0
:1059C0000490329038462946FAF746FE34943396CE
:1059D00019983290A84F38462946FAF73DFE34967A
:1059E0003396329438462946FAF736FE3596349681
:1059F000199F33972B201C90C4002046A030329072
:105A00009D482946FAF728FE359634963397119823
:105A100032909A482946FAF71FFE9948994930254D
:105A2000994A64C0016046608660C66031963096CF
:105A30002F962D962C9638960C38FCF76BFA00288A
:105A400003D0EFF3108072B6FEE7239413961998F3
:105A500000032E908A482EA9FCF7E0FA002803D014
:105A6000EFF3108072B6FEE78548FCF7E5FC0028EE
:105A700003D0EFF3108072B6FEE781482CA9FCF743
:105A800023FA002803D0EFF3108072B6FEE7139CD0
:105A900027947E48269060202590289429942A9463
:105AA0002B94774825A92246FCF790FB002803D0C9
:105AB000EFF3108072B6FEE7369435943494339445
:105AC00032943994199E700337906D4832A9FCF7CF
:105AD000CDF9002803D0EFF3108072B6FEE71B95D6
