:020000040800F2
:1000000040110020D500000849270008CD2600082F
:1000100000000000000000000000000000000000E0
:100020000000000000000000000000004D27000854
:1000300000000000000000004B2700084F270008C8
:100040000501000805010008050100080501000878
:100050000501000805010008050100080501000868
:100060000501000805010008050100080501000858
:100070000501000805010008050100080501000848
:100080000501000800000000000000000501000854
:100090000000000005010008050100080501000836
:1000A0000000000005010008050100080501000826
:1000B000050100080000000005010008F53E0008E9
:1000C0000348854600F086F800480047D5440008FC
:1000D000401100200C4880F308880C480168090E84
:1000E0000B4A914205D10B480B4901600B480C4962
:1000F00001600C4880470C480047FEE7FEE7FEE73A
:10010000FEE7FEE7FEE700004011002004000000CB
:100110001F00000018100240010000000000014014
:1001200000000000D9270008C100000810B5202AEF
:1001300004DB0846203AD040002110BD0B46D340D6
:10014000D0402024A21A91400843194610BD03460E
:100150000B439B0703D009E008C9121F08C0042AFB
:10016000FAD203E00B780370401C491C521EF9D2EE
:100170007047D2B201E00270401C491EFBD27047AA
:100180000022F6E710B513460A4604461946FFF763
:10019000F0FF204610BD70B50446002903D00020B2
:1001A0002022012310E0002801D00020C043C046D7
:1001B000C0460DE02546D5408D4205D30D469540FD
:1001C000641B1D46954040191546521E002DF1DC5A
:1001D000214670BD1CB509480090094801900546AC
:1001E0000126009C05E0E36807CC33430C3C9847AC
:1001F0001034AC42F7D3FFF767FF0000AC530008A0
:10020000CC53000870B58C180578401C6B075B0F49
:1002100001D10378401C2A1106D10278401C03E06A
:1002200006780E70401C491C5B1EF9D12B0705D4C3
:100230000023521E0DD40B70491CFAE70378401CB2
:10024000CB1A921C03E01D780D70491C5B1C521EDA
:10025000F9D5A142D8D3002070BDEFF3108072B65B
:10026000FEE7000083480021C16184480168042240
:100270000A430260016840220A4302607047C04698
:100280007C490022CA617D490A68022313430B603E
:1002900048600868402202430A60704710B51F4852
:1002A0000168C90601D4002105E07249CA69022328
:1002B0001343CB6110210268520706D56D4AD369FA
:1002C00001241C43D46104221143016010BDC046C7
:1002D000F8B50446114F00F0BBF905463868C00771
:1002E0000AD0601CFAD00326002C15D000F0B0F91B
:1002F000401BA042F2D90FE03868800601D52020CB
:1003000038603868C00604D43868400701D4002635
:1003100002E0FFF7C3FF01263046F8BD0C20024083
:10032000B0B5044600F094F90546601C02D0E648DA
:100330000078241800F08CF9401BA042FAD3B0BD1D
:10034000FEB50E4607464B49087E012801D102241E
:100350003EE001240C763D684748FFF7B9FF012DC8
:100360000DD1002831D1FFF77DFF4348FFF7B0FFE3
:1003700004464248016804229143016025E0019649
:10038000002822D100200290C043019908607868BB
:1003900001243A4E0546B96889020818854214D2EC
:1003A0002846FFF76DFF3448FFF792FF0446306898
:1003B000022188433060002C05D1012080022D18D5
:1003C0007868029CE7E701980560002029490876D3
:1003D000E0B2FEBD2948016880220A430260002085
:1003E0007047C046F0B587B004AC0EC40746214C38
:1003F000207E012801D1022039E0012626761E4DFB
:100400002846FFF765FF00282FD1022F01D138467B
:1004100000E004200296012F00D138460026C0B229
:1004200003900196029C2F46F5B20398A8421AD970
:1004300000201049C86111490868204308602A015A
:1004400005980699FFF772FE6900049A88523D46A6
:100450003846FFF73DFF094A1168A1431160761C39
:100460000028E0D000E00198024C0021217607B07E
:10047000F0BDC046180D002050C3000010200240FF
:100480000648C168090601D400207047044901608C
:1004900004490160C068C0B2C0097047042002402E
:1004A00023016745AB89EFCDF0B58CB05E4A904231
:1004B00001D0052200E00222019207902030009036
:1004C00000242746254605910A681046E84000D1D9
:1004D000A7E001260696AE40324000D19DE003928F
:1004E0000A95089703200246A240D2434B681F4654
:1004F00007407D1E012D0994049312D80292079A99
:100500009068029D2840CD68A54005439560D806B7
:10051000C00F0A9988405568B54305435560029A53
:1005200004E0032F02D10746049B20E0079CE0680B
:10053000104005998D6809998D400543E560022FAB
:10054000049B14D11C200899084017460F228240B2
:100550000A99CD08AD00009C6659964305990A6931
:100560008240324362513A464B6803271F40099C40
:10057000A740079908681040384308609803800F27
:100580000599089F0A9D039B47D05B4A1068069C0B
:1005900020431060106820400B90032085430B9887
:1005A00023482A580920C006079C844205D02148C8
:1005B0008442019E02D1069E00E000260C203840B5
:1005C0000F278740BA431A4C2D19864016432E60D8
:1005D000164880684A68D502099C01D5184300E096
:1005E0009843124DA860E8689502089F01D518430A
:1005F00000E098430D4DE8606868950301D5184305
:1006000000E09843094D68602868D20301D518437B
:1006100000E098430A9D054A1060A41C3F1D6D1C14
:1006200052E70CB0F0BDC04600080048000401408D
:10063000080001400004004800690840411E88414C
:100640007047002A01D0182200E02822815070470C
:10065000054800687047C0461B48007802490A6890
:10066000101808607047C046380D002080B5064855
:10067000016810220A430260032000F007F800F02E
:1006800027F8002080BDC0460020024070B5044617
:100690007D20C0000C4E3178FFF77DFD01460B48F0
:1006A0000068FFF778FD01F0E3F90125032C08D875
:1006B000002806D10025E84321462A4600F02AF802
:1006C0007460284670BDC04608000020A8000020C5
:1006D00082B009480168012211430160016811409C
:1006E00001910199110742680A434260406808403D
:1006F0000090009802B0704718100240002805D4FE
:100700001F21084001218140014801607047C04617
:1007100000E100E080B503F027FC80BDF0B5026881
:100720005423D15A01242143D15217214D010021D4
:100730004155D65A02273743D7524019846008469C
:10074000F0BD704710B50C0606D428244C430019A0
:100750002D21C900401805E00724214028244C43DE
:1007600000192830002A04D003811B0C01210A2221
:1007700001E00021062283520173002010BD80B5E4
:100780002F221201835828224A438018C26B184630
:1007900002F08FFB80BD80B52F22120183582822E2
:1007A0004A4380185F2292008258184602F0E7FB05
:1007B00080BD10B54BB22822002B134601D42D2347
:1007C000DB00C31807240C4062439C549A18C909E3
:1007D00051705521C900435C012B01D1022010BD8D
:1007E0004418012121700068114603F05DF80020D3
:1007F000207010BDB0B50F220A4043689A4201D95B
:1008000001241FE04BB22822002B134601D42D23D4
:10081000DB00C31807240C4062439C549A18002440
:100820009470C90951705521C900435C012B01D155
:10083000022407E04518012129700068114603F0E1
:10084000B1F82C702046B0BD70B50C464DB22821D1
:10085000002D0D4601D42D25ED0045190726264013
:1008600071436E5469180A61E2094A70CB70022B19
:1008700001D100220A715522D200835C012B01D1E3
:10088000022070BD841801222270006802F0F6FE7A
:100890000020207070BDB0B507240C4028216143B2
:1008A00041182D25ED004C55491900240D461435ED
:1008B0001CC54C70006803F0C3F82046B0BDB0B54D
:1008C00007220A4043689A4201D90120B0BD4CB2C8
:1008D000002C134600D40B4628256B43002C01D472
:1008E0002D24E5004419E254E21801239370C9094C
:1008F00051705521C900445C012C01D10220B0BDCA
:10090000441823700068114603F07EF80020207020
:10091000B0BDF8B507240C4028252946614341188D
:100920004C2601278F554C5500240D463C351CC5DF
:100930008B6428314F70006803F082F82046F8BDC0
:10094000F0B58DB00746006803F0DCFA0104E74912
:1009500011D4891E084200D166E338684421425A06
:10096000E34B13404352384600F070FC00213846F8
:1009700000F097FC94E32D20C00038180A90394607
:1009800024312B200001381804900791081D08908D
:100990000120C1030B9101020691C1020291009056
:1009A00080030590099738684421415E002900D4EE
:1009B00076E3014644310B880F241C4045D0A20049
:1009C000835E9DB2002B00D43AE10C958218138807
:1009D000E84E334080261E431680282262430A9B3D
:1009E0009E18327B002A00D1BFE0F278022A00D0A4
:1009F000C8E089890A183178CB009B18B269059D37
:100A00000C9F2F4200D0D5E0D94FFB189F88DA4DBC
:100A10002F40D31B00D20023B361BA4206D88A000C
:100A2000835AD64D2B40D64D6B4083520C9A5206BA
:100A300007D48900425ACF4B1A400B9B9A18C032F8
:100A40004252002F00D0DCE0E1E00022825EDB06B3
:100A500027D4C84B1A400B9B1A430280C44A801803
:100A600089894018079C2179C900405AC249084029
:100A70007864F96B0818F863002638463146FFF7AA
:100A80007EFE207800288ED0386C00288BD1079B02
:100A9000187880210143C8B239684C2288521E70F0
:100AA00081E7130546D4002A00D47CE70288B14BC5
:100AB0001A40802313430380AD4A121889895118C4
:100AC0000A9C2278D20089188B88AB490B40E361DD
:100AD0000ED0616900290BD0E28803F016FAE069B4
:100AE00061690818606100213846FFF754FE3868D4
:100AF0000188029A114200D055E7032212031140E7
:100B0000914200D14FE75021415A994A1218121DC3
:100B1000535A994C234053520A9B1B693F2B00D2D6
:100B20000AE2DC065B09002C00D15B1E9C028B5A9A
:100B3000234330E28E4A1218898951180A9C227880
:100B4000D20089188B888C490B40E361E2880499B4
:100B500003F0DBF938680188864A114080220A4395
:100B60000280384600F0B1FB1DE7814A12188989DE
:100B700051183278D20089188F887F490F4046D0AB
:100B8000F2883FE032789300C75A7A4D2F400B9D90
:100B9000EF19C037C752C35AD20012188989774F4C
:100BA000F1373B4226D0724BD218575A724D2F4024
:100BB0001ED12CE06E4FDF5B6F4D2F40D31B00D258
:100BC0000023B361BA4206D88A00835A6B4D2B408A
:100BD0006B4D6B4083520C9A520607D58900425ADE
:100BE000644B1A400B9B9A18C0324252002F0ED011
:100BF000328907E05E4B9A1851188F885E4D2F405E
:100C000005D0728971693B4603F07FF900E0002747
:100C1000F069C019F0617069C0197061B06900288D
:100C200002D03069B84205D93178099F3846FFF7BC
:100C3000B2FD04E0099F3868314602F001FF0C9DC7
:100C4000280600D4AFE60C95600041003868425A8F
:100C5000484B1A400B9B1A43425228216143089A81
:100C60005618F178012920D10021B161327B002A88
:100C700000D111E10C9A520600D583E07278012A66
:100C800000D1F7E0002A00D006E15021415A384A4D
:100C9000101840183178C90040188188364A114030
:100CA000818081880B9A1143ECE006990C9B0B42E2
:100CB00020D15021415A2E4A821852183178CB0047
:100CC000D25A2D4B1A40B3699C1A00D20024B46149
:100CD000934200D8E1E0716989187161F16989185E
:100CE000F161314602F0ACFE5DE6C0460204000050
:100CF000FFFB00005021455A3178CA001418B7692B
:100D00000246503203925A0652D4194A13191A1D38
:100D1000545B1546184A14403A1B00D20022B261B7
:100D2000A74272D9059A0C9B134206D18900425AF8
:100D3000FC4B1A40FD4B1A4342522421715C01299D
:100D400000D064E1716909197161F2691219F261E7
:100D50003769336ABB4200D3CCE0374624370022E0
:100D6000002B00D1F6E03A7032621F46F4E0C04634
:100D7000020400000F0F0000FF0300000F3F0000FF
:100D800080A000007278012A7ED0002A00D083E083
:100D90005021415AE14A801840183178C900425A1E
:100DA000DF4B1A404252425A0B9B1A43425273E0A5
:100DB000DA4AA2180192545BD94A14403A1B00D275
:100DC0000022B261A7423BD9059A0C9B134206D080
:100DD0008900425AD34B1A40D44B1A434252242121
:100DE000715C012900D012E1716909197161F26920
:100DF0001219F2613769336ABB427ED2324624321D
:100E000000251570002B7AD17BE07078012848D03E
:100E1000002809984CD1039A1788DA5BC04C22400D
:100E2000DA53DA5B0B9C2243DA53039A1388EA5AAB
:100E3000BB4C2240EA52EA5A0B9C2243EA5237E06A
:100E40007278012A099D3AD0002A40D1039F3B883D
:100E50000198C25AB24C2240C252C25A0B9C224341
:100E6000C2523A8883189A88AD4802409A809A887C
:100E700022432BE05022825AA84B1818801832784F
:100E8000D2008018818007E05022825AA34BC018FC
:100E900080183278D200815231783846FFF76FFCE3
:100EA00081E5039C208800221A5220882A52099842
:100EB000FFF765FC05980C99014210D0A7E0039C50
:100EC000238800220198C2522388C3189A8028469A
:100ED000FFF755FC05980C99014200D197E009985D
:100EE000006831788900425A8E4B1A408F4B1A4362
:100EF00042528CE0DA1B32622EE0DD1B3B4635624B
:100F00001C467278012A20D0002A74D1039A1288D4
:100F1000019FBB5A824D2B40BB523F2C45D3E50667
:100F20006309002D00D15B1E9B02019FBD5A1D432A
:100F30000B9B1D43BD525EE0002B2BD0545A5D0825
:100F4000009E3340EB189B0226E0039A1288019B17
:100F50009C5250E03A7027467278012A16D0002A37
:100F600051D1039A1288AB5A6D4C2340AB523F2F9C
:100F70002AD32C46FD067B09002D00D15B1E9B0267
:100F8000A55A1D430B9B1D43A5523CE0039A1288B2
:100F9000AF5238E0535A0B9C234353520188624AA4
:100FA0001140634A51400180FDE4002C1ED0019B9A
:100FB0009D5A0C952546009F3D4067087D19AD025E
:100FC0000C9F3D439D5216E0002F17D0AC5A0C9554
:100FD0003D460B463946009F3D404F087D190F4660
:100FE0001946AD0225430C9B9D520CE0019FBB5A54
:100FF0000B9D2B43BB523289A3B206E0AB5A2C4661
:101000000B9D2B43A3527289BBB202F09AFF099F3A
:10101000386831788900425A424B303313400B9A7A
:10102000B0325A404252BEE4410413D4810417D472
:10103000172149017A18C10417D4010532D40106D9
:1010400041D481054CD4C0052AD538684421425A80
:101050003D4B23E038684421425A364B813B1DE02A
:1010600038684421425A344B18E038684021435ACA
:101070000424A3434352435A0824A3434352107801
:10108000012804D1002111703846FFF75AFB384679
:1010900000F0EEF838684421425A284B134043527E
:1010A0000DB0F0BD38684021425A08231343435223
:1010B000024640329388224C1C409480425A0423BA
:1010C0001343435208E038684030818880239943B5
:1010D0008180117800290DD0384600F02BF9DFE728
:1010E00038684421425A174B13404352384600F0A7
:1010F000D1F8D5E7018804230B4303800188082336
:101100000B43038001211170808A80083C23034037
:1011100053603846FFF715FBC2E7C04602040000E3
:10112000FF0300000F0F00000F3F000080C0000011
:1011300080B0000080C0FFFFFFDF0000FFEF000075
:10114000FFF70000FFFD0000FFFE0000F0B589B0D2
:1011500000285BD004465520C00025186878002878
:1011600004D100202870204600F054F82046243096
:101170000790032008956870206802F009FC20465B
:10118000283061680022D3B299420CD928255D43EA
:101190004255431900251D615D619D61DD7001258A
:1011A0005D70521CEFE72D20C00020180022D3B242
:1011B00099420BD928255D434255431900251D61ED
:1011C0005D619D61DD705D70521CF0E7A068059067
:1011D000E068069027461037E0CFE269236A20686E
:1011E00000950196029703920493059A069B02F0DC
:1011F000C5FB002507980570012008994870E06933
:10120000012804D12046FFF789FA00E0012528468D
:1012100009B0F0BD1CB500680B49884200D01CBD68
:101220000120C0058F490A6802430A60096801402D
:10123000019101981F24002120460A46FFF76AFA0F
:101240002046FFF75BFA1CBD005C0040B0B50446C9
:101250008068022801D0FFF700F82F2005016059AF
:10126000012101F072FF605901F02CFFB0BD0000B8
:1012700010B504468069002806D036480168062269
:101280009143016001F067FA2F200001205801F01E
:1012900044FF10BD80B52F210901405801F047FFE0
:1012A00080BD10B55522D200835C012B01D10220F4
:1012B00010BD841802462432117001222270006889
:1012C00002F038FE0020207010BD80B52F210901EA
:1012D00042582B2109014118104601F042FF80BD00
:1012E000B0B504465520C000215C012901D102207F
:1012F000B0BD251801202870206802F0EFFD20689D
:1013000002F02AFB00202870B0BDB0B5044655207D
:10131000C000215C012901D10220B0BD25180120A7
:101320002870206802F034FB206802F01DFB0020CA
:101330002870B0BD10B504462F200001205801F0E0
:1013400058FFA069002804D00248016806220A4319
:10135000026010BD10ED00E0F0B585B00446807865
:10136000C007404B4AD0012003900107186808408D
:10137000029006D118680843186018680840049065
:1013800004980191384E3068C00511D403980702C3
:10139000306838433060FFF75BF905463068384203
:1013A00006D1FFF755F9401B6428F7D9032547E01C
:1013B000032528022B4B5968014012D06268024075
:1013C00091420ED00398000459685A6802435A604B
:1013D0005A6882435A600846244A10405860C80739
:1013E00031D1586821490840616801435960029829
:1013F000002803D118680199884318602068C10744
:1014000005D0596903229143A2680A435A618106B3
:1014100005D5596910229143E2680A435A61810354
:1014200005D559698022914362690A435A610025B2
:10143000400505D558694021884321690143596118
:10144000284605B0F0BDFFF703F90646494F054BA6
:1014500058688007C5D4FFF7FBF8801BB842F6D95F
:10146000EEE7C0461C10024000700040FFFCFFFF8A
:10147000F8B500284CD004463D4A136801200340CB
:10148000994208D913680126B3430B4313601268CD
:1014900032408A426AD1009121688A070ED54A07F4
:1014A00005D507221202494D2B6813432B60474D87
:1014B0002A68F0239A43A36813432B60C90729D1F4
:1014C0002B49086801263040009A824205D20868FC
:1014D000B04308600868C00748D12078400707D5A6
:1014E00007200002394A11688143E0680843106010
:1014F00000F046F8354909680906090F1E4A515C93
:10150000C8401E4908600320FFF7C0F800262DE000
:1015100001262BE061682D4A032909D0121F0229F8
:1015200003D0012907D1126803E01268920104E098
:10153000126B920301E012689207064616D5234A01
:1015400010680326B04308431060FFF781F8074690
:10155000084D1E4800680C210140606880008142EF
:10156000AED0FFF775F8C01BA842F2D93046F8BDDF
:101570000020024088130000BA520008A800002092
:10158000B0B512490A681007830F1148022B01D227
:10159000044619E0032B01D10E4C15E00323DB03B5
:1015A00094021A40240F0CA52C5D896A0F250D406A
:1015B0000DA1495D9A4203D001231B049A4200E029
:1015C0000448FEF7E8FD44432046B0BD0410024045
:1015D00000127A00006CDC02020304050607080909
:1015E0000A0B0C0D0E0F101001020304050607086C
:1015F000090A0B0C0D0E0F10F0B587B00446012040
:10160000002C00D1F6E104902078C007FA4E059432
:101610000CD071680C200140042900D08BE03068A8
:10162000800303D56068002800D127E12078800777
:1016300021D570680007800F0ED070680C21014022
:10164000082900D093E00320C00371680140012005
:10165000C003814200D08AE030688007059C03D532
:10166000E068012800D009E13068F8218843216949
:10167000C90001433160059C2078000724D42078FC
:10168000400734D42078C00600D4C5E0706B0599BB
:1016900049694A1D00D1B4E0012900D033E1042199
:1016A00008437063706B012101437163FEF7D0FF43
:1016B0000546706B800700D5A6E0FEF7C9FF411B09
:1016C00003200229F5D995E1706AE169002977D0F4
:1016D000012108437062FEF7BBFF0546706A800770
:1016E000CDD4FEF7B5FF401B0228F7D981E10120D8
:1016F00003900107F0690840029006D1F0690843A1
:10170000F061F0690840069006980191D64F38685C
:10171000C00541D403980402386820433860FEF7BE
:1017200097FF05463868204236D1FEF791FF401BEF
:101730006428F7D95DE171680140082908D10320C8
:10174000C0037168014001200004814200D166E7B6
:101750006268306801214F04002A00D120E1052A87
:1017600000D116E1012A00D030E1090416E1306809
:10177000059CE168002933D0012108433060FEF761
:1017800067FF05463068800700D56DE7FEF760FF0C
:10179000401B0228F6D92CE105988168306AB34FC6
:1017A000002900D1D7E0052900D1C1E0012900D1ED
:1017B000C2E0039988433062306A04218843BDE067
:1017C000012188437062FEF743FF0546706A800777
:1017D00000D454E7FEF73CFF401B0228F6D908E18D
:1017E000012188433060FEF733FF054630688007EB
:1017F00000D440E7FEF72CFF411B03200229F5D956
:10180000F8E0042188437063706BF82188430599E0
:101810008969C900014371630598007880060BD57A
:1018200071680C2001400C294BD1706B800303D5EB
:101830000598006A012821D10598446A002C1BD024
:1018400070680C21014008291AD1012C16D0032000
:10185000C20370680240F16A059CA36A9A420DD1E6
:101860000F221140236B994208D191040840E16A8C
:101870008842049800D0BDE00020BBE00498B9E0A5
:101880000120020631680492914331604706FEF759
:10189000DFFE0546022C0AD13068384200D1C0E094
:1018A000FEF7D6FE411B03200229F5D9A2E03068DD
:1018B0003842E1D0FEF7CCFE411B03200229F6D9C5
:1018C00098E071680140082905D10320C0037168C0
:1018D00001408142A9D0706B0599096A002900D1A5
:1018E0008CE001210A04104370634C04FEF7B0FE43
:1018F0000546706B20429FD1FEF7AAFE411B0320D4
:101900000229F6D976E0042108437063706B012147
:1019100088437063FEF79CFE0546706B800700D419
:101920007AE7FEF795FE411B03200229F5D961E015
:10193000042108433062306A039908433062FEF79D
:1019400087FE0546306A800719D4FEF781FE401BEA
:10195000B842F7D94DE0039988433062306A0421D8
:1019600088433062FEF774FE0546306A800706D56C
:10197000FEF76EFE411B0320B942F6D93AE0029809
:101980000028059C00D07DE6F06901998843F0614C
:1019900078E68A04104330600904306808431BE08D
:1019A0000A04904330608804316881433160FEF757
:1019B0004FFE0546059C3068384200D136E6FEF7FA
:1019C00047FE411B03206429F5D913E00A04904324
:1019D00030608904306888433060FEF739FE054680
:1019E0003068384200D021E6FEF732FE401B642802
:1019F000F6D9032007B0F0BD0010024001210A040F
:101A0000904370634C04FEF723FE0546706B204242
:101A100000D111E7FEF71CFE411B03200229F5D976
:101A2000E8E7F06A0F218843059A116B0143F162E0
:101A30007B20C00371688143D06A0843916A0143E7
:101A400071603068049908433060FEF701FE044677
:101A50003068384200D00FE7FEF7FAFD011B032083
:101A60000229F5D9C6E7C04600700040881300007F
:101A7000401E010E01D0012070470749074A5060FF
:101A8000074803680B4003218907591801600020AB
:101A90009060072111607047FFFFFF0010E000E039
:101AA00020ED00E070B53C22825C012A01D10222C7
:101AB00023E003463C3300221A703F231B02CC680C
:101AC0009C430F239D028E68AE432643DB024C6885
:101AD0009C43344307231B030D689D432543032385
:101AE0005B030C699C432C434B6923430124A403EF
:101AF000A343C969194300684164104670BD0000E2
:101B0000B0B53C22825C012A01D10220B0BD024660
:101B10003C3202235370006843687024A3430D686D
:101B20001D438468456001239D07A84205D0764D7A
:101B3000A84202D0054DA84204D18025AC43496893
:101B400021438160002010705370B0BD000400403C
:101B5000B0B500281DD0044605463C3568780028FD
:101B600004D100202870204600F016F8022068708A
:101B700001CC214600F032FE0120A872A870E87066
:101B800028716871A871E871287268726870002005
:101B9000B0BD0120B0BD000081B000685A49884244
:101BA00009D10120C00205490A6802430A60096898
:101BB00001400091009801B07047C04618100240E3
:101BC000F8B504463C20205C012801D1022273E0D4
:101BD00025463C350220687001262E7020688268F8
:101BE000364B1A4082600F6800220092002F26D0E8
:101BF000102F24D0202F22D0302F20D0402F4CD097
:101C0000502F40D0602F22D07203974229D0320348
:101C10009742009C22464DD0702F32D17733826894
:101C20001A404B688C68C9681C4309022143009C18
:101C300011438160816877220A43826039E08168BC
:101C4000702291430F4307213943816030E0CA6815
:101C5000496800F0EEFE2068816867220A4310217F
:101C600024E0773382681A404B688C68C9681C434B
:101C700009022143114381600121890382680A43DB
:101C800015E0324616E0CA68496800F0C1FE2068D7
:101C9000816857220A43202108E0CA68496800F099
:101CA000B7FE2068816847220A4330218A43826058
:101CB000009C22462C706E701046F8BD8800FFFF15
:101CC00010B586B0044601A81421FEF759FA206821
:101CD0000D49884216D1012041040C4A13680B4378
:101CE000136012680A4000920221059100220492BA
:101CF00003920291000201900920C006009901A9F7
:101D0000FEF7D2FB06B010BD002C014014100240BB
:101D100070B505463C20285C012801D1022070BD29
:101D20000C462E463C36012030700221CA41032A5F
:101D30004BD8C0467A441279520097440131101FA3
:101D40002868214600F08EFD2868816908220A4330
:101D500082618169042291438161216930E02868B0
:101D6000214600F0EDFD2868C16908220A43C261DE
:101D7000C16904229143C16121690FE028682146AD
:101D800000F014FE0121CA022868C3691343C3612D
:101D90008902C2698A43C261216909021C3010E0CC
:101DA0002868214600F098FD0121CA02286883694D
:101DB00013438361890282698A438261216909022E
:101DC000183002680A43026000200021317070BDA3
:101DD000B0B500281DD0044605463C35687800287B
:101DE00004D100202870204600F015F80220687009
:101DF00001CC214600F0F2FC0120A872A870E87026
:101E000028716871A871E871287268726870002082
:101E1000B0BD0120B0BD7047B0B514460022042803
:101E200012D10D4600290FD0002C0DD04D49088B42
:101E300000280CD0088BA04200D20C8B3C312846E5
:101E40002246FEF784F900E014462046B0BD032C7C
:101E50001446FAD3002068700420287002F022F99A
:101E6000A8700324F1E7C046F0B585B0042800D07F
:101E700033E3002900D130E3002A00D12DE30878B4
:101E8000012A04D0042802D14878521E491C354C3E
:101E9000002323830546103D3A2D00D975E06D00DF
:101EA0007D44AD886D00AF443A005901870087003A
:101EB00087008700870087008700870087008700EA
:101EC0008700870087008700870079013F01B501FF
:101ED000ED019901F4000B012601C300D200870037
:101EE00087008700870087009700CC01700187007A
:101EF00087008700870087008700870087008700AA
:101F000087008700870087008700FD01B500DA01A0
:101F100091010502BD000D02E5019100A00090B203
:101F2000072800D20DE248780D2800D909E28A7806
:101F3000561E032E00D904E202010B4885180B4BF4
:101F40009A181C328B7948790F790297C9780493D3
:101F50007600C0467E44B6887600B7440900110377
:101F6000F5020303A0010020D80B00207804002014
:101F7000D37003469070029850700E461170032182
:101F80000222039201222F4606E3002800D1CEE16F
:101F9000F12800D1ACE1A12800D1BFE1F02800D1A7
:101FA000B4E1A02808D1FA48E063072020833F3439
:101FB000FF20E070A07007E03C210422625403215E
:101FC00021833C34FF21A170607086E2F148A08734
:101FD0000320208360797EE2207A002803D1607A92
:101FE000002800D12EE2FD4833E1FD48A0870820FB
:101FF00020833C34FB484169E170427CA2700A0CAA
:102000006271090A2171C17E0246002900D19CE15A
:102010001A329BE1FC48A087032020833C34F94816
:10202000407A59E2F948A08703202083A07952E240
:1020300090B2022800D293E1497801202074002058
:10204000A0704A1E91416171EE4A117489E190B20B
:10205000072800D287E10B7988780490C87803902C
:102060008A7948784E79F509E649CD76451EA8412A
:10207000487470B2002700283D4600DA15468D7678
:10208000002800DA3A464A76002800DB84E13E4622
:1020900084E190B2022800D251E1DD48C0780128E5
:1020A00000D04CE1487821463C3100228A70D94961
:1020B000A18703212183411E8841D2498873BBE057
:1020C00092B201200D2A00D201E24A78531E032B5E
:1020D00000D9FCE18B78012B00D9F8E1C878451EC6
:1020E000A84118255543183DC64A5219012B00D165
:1020F000BBE1FC32BCE192B20120022A12D3497842
:1021000002290FD8C2488170BE48C17301212174D1
:102110000920C006FEF790FA411E4842484102F0ED
:102120008DF90020BC49D3E190B2022800D21CE115
:102130004978481E0A468241B2484272002904D0BA
:10214000017A002901D000210172B448A087032040
:10215000208320463C30002181706DE090B203283E
:1021600011D30322D5438878C0B2471F012300262C
:10217000AF421D4600D3354649780D2900D8334675
:102180002B4300D11DE1A648FAE0207A002803D1B4
:10219000607A002800D159E1A2485AE090B20228A2
:1021A00000D2E4E04A7801202074511E8A41984907
:1021B0000A70944B1A72E3790025002B00D0D7E007
:1021C0004A700102FC48FEF73CFAD1E0FB48A087C8
:1021D000032020833C348E4800797DE190B20228B0
:1021E00000D2B0E04878411E032900D9ABE0F8499D
:1021F00008734A7B824201D901204873032020835F
:10220000EF48A0870120207421463C3100228A70CB
:10221000E07262E190B2032800D2B0E04878897899
:1022200022463C3200239370FC4AA2870322228379
:1022300009020818E649488101F0E2FF01202074F4
:102240004BE1207A002803D1607A002800D101E117
:10225000F048A087032020833C3402203CE1EA4878
:10226000A087042020833C34D9484089A070000A0C
:10227000E07032E1DB48A087032020833C34DA4859
:10228000807829E192B20120022A09D349784A1EB6
:10229000032A05D8D44AD278914201D8A1720020ED
:1022A000D84915E1D948A087032020833C34C84889
:1022B000007A11E1CE48A087032020833C34CA482D
:1022C000C07809E190B2032810D30320C5434A78AF
:1022D000561F0120AE42064600D31E468978CDB275
:1022E000012D00D81846064300D19DE0BF4847E0C5
:1022F0000920C0060121FEF79FF9B249A1870321F9
:102300002183401E414241413C341BE1AE48E06321
:10231000062020833C34AD48A080DEE0C248A08780
:102320000320208390B2042830D80220D3E0254631
:102330003C3501F0B7FEA8700420A08792E0AF48BA
:102340001EE0A5481CE0AE481AE019321278E2718E
:10235000027E0F201040002900D08030A071BCE028
:1023600001209F49B4E0012724E0AD4808E00125A1
:10237000AC48A087032020833C34A570ADE0A7487B
:10238000A087032020833C340120A5E00120A2E0A7
:1023900004A000FF044900000F200640049A03989F
:1023A0000E76000280181A048018486101F0A6FE1B
:1023B000012020748948A087032020833C34A77023
:1023C0008BE00B01824DEB181C33451E0226049650
:1023D000AD0005A77E5907461D46B74604300000EC
:1023E000044A00007804002027250008F92300088B
:1023F0000D2500081B2500081D1D07220626049632
:10240000052790E078040020044200000446000004
:102410000000002004260000042800000422000020
:1024200004110000043200007048A08720463C30B0
:10243000C570827018215143654A8918012D4ED00C
:10244000E4314DE030202072734806E032202072E3
:102450006F4802E0312020726E48A08720463C3051
:10246000FE2181700320208337E02126F600921997
:1024700010700E794F793F02BE19049656808E79FE
:1024800003961671CE79029656710E7A0196967160
:102490004E7A0096D6718F7A1772564E7519012BA7
:1024A00000D10C35CB7A097B2F72009EEE71019E14
:1024B000AE71029E6E71039E2E71049E6E80287016
:1024C000012020740802C0186881508100204A4908
:1024D000A187032121833C34A07005B0F0BDF03109
:1024E0004A8902730B7AC372CB7983728B794372F8
:1024F0004B7903720B79C3714B8843710978017171
:10250000110A4173190A81710E20ACE71D46083586
:102510000B220A260496092705E01D460C350F22DA
:102520000E2604960D272B4EA687082626839A5C36
:102530003C34E271049A9A5CA271DA5D62712A7885
:102540002271E070A170C8E7D372034690720298BE
:1025500050720E4611722F4608370B210A22039241
:10256000092219E0D37303469073029850730E4604
:1025700011732F460C370F210E2203920D220BE010
:10258000D37103469071029850710E4611712F1D40
:1025900007210622039205223E70039EAB55A854E4
:1025A000049868540C48A0870320208301202074DD
:1025B0003C34002090E7C04600040048044400007A
:1025C0000425000004F1000004F0000103020000F3
:1025D000780400200411000004100000042A000008
:1025E0000429000004480000000000200447000007
:1025F00004450000B80C0020042700000426000059
:1026000004250000042400000443000004410000ED
:1026100004320000043100000430000004230000F4
:10262000042200000421000004A10000F8B50328E2
:1026300045D1002943D0002A41D00D78032D02D185
:10264000012A3CD04D780920C406A80714D42807D5
:1026500024D41B4E002030620127F7712A463A40ED
:102660001848427039021848FDF7EBFF3771022114
:10267000680720D400221FE0114800210162C171C7
:102680000171104802784270501E824101252902D2
:102690000D48FDF7D6FF2046294604E008480021F2
:1026A000017101212046FDF7C7FF411E4842484104
:1026B00001F0C4FEF8BD01222046FDF7C2FFF8BDBF
:1026C000A00100200000002000040048FEE710B533
:1026D000002A0DD000234B70440F030F052C01D3AB
:1026E000373300E030330B70891C521E0001EFE7D6
:1026F00010BD000010B511481149002200F0B0FBD8
:10270000002801D0FDF7A9FD0C480E4900F097FD07
:10271000002801D0FDF7A1FD084800F0A7FD002822
:1027200001D0FDF79AFD054C204600F093FF642090
:10273000FDF7F6FD204600F099FD10BDD8050020FC
:1027400010000020C0000020FEE77047704780B5F1
:10275000FDF782FF80BD70B598B00BAC201D1C2129
:10276000FDF70EFD012013900E9022210B91002504
:10277000179501051691C003159002261496102096
:102780000F9005950495039502952046FEF734FFBA
:10279000002803D0EFF3108072B6FEE70A95099582
:1027A00008960720079007A801242146FEF760FE3F
:1027B000002803D0EFF3108072B6FEE706956004A0
:1027C000019001A8FEF7C8FD002803D0EFF31080A8
:1027D00072B6FEE718B070BD7047000070B50468AF
:1027E000884A90420AD00125AB0203431B4EB342F4
:1027F00009D170239C434B68234305E070239C431D
:102800004B6823430FE02346AC07A0420BD0B042F5
:1028100009D0134CA04206D07B4CA04203D07B4C85
:10282000A0421C4604D103242402A343CC681C43C9
:1028300080239C434B69234303608B68C3620B680E
:102840008362904205D0704A904202D06F4A904213
:1028500001D1096901630121416170BD000400409B
:1028600000200040F0B5026A01239A430262026A26
:1028700002239A438E68164344680F688369614A4D
:10288000904205D0604DA84202D0604DA84209D1C7
:102890000C25AE43CD68042295433543594A9042F6
:1028A00001D106E03546584A904202D0574A90423C
:1028B00007D10322120294434E698A6926431643C4
:1028C00000E026464660732293433B438361496898
:1028D00041630562F0BDC046F0B5026A10239A4319
:1028E0000262036A202293438A6812011A434568F0
:1028F0000C688369434EB04207D0434EB0420BD0C0
:10290000424EB04208D02E460EE0C026B243CE68FA
:1029100036014027BE4332430326B602B5434E6913
:102920008F693743BE002E43466073252D02AB43AB
:1029300024021C438461496881630262F0BDC04681
:10294000F0B501221302046A9C4304625202036A36
:1029500093438A6812021A4345680B68C469294E7A
:10296000B04207D0284EB0420CD0284EB04209D019
:102970002E460FE00326B602B243CE6836020A4F57
:1029800037403A4303263603B5434E698F693743D0
:102990003E012E4346607325AC431C43C461496825
:1029A000C1630262F0BDC04600FBFFFFF8B5012223
:1029B0001303046A9C430462036A44688D680095AB
:1029C0000E68C5690F4FB84205D00F4FB84202D00C
:1029D0000E4FB84205D19703BC434F69BF0127434F
:1029E00000E02746476073242402A54334022C43A9
:1029F000C4614968016451038B4300990903194379
:102A00000162F8BD002C0140004801400044014033
:102A1000B0B5036A046A0125AC4304628469F025F9
:102A2000AC431201224382610A2293430B430362A7
:102A3000B0BD10B5036A1024A34303620F231B0328
:102A400084699C4312032243036A8261A022934358
:102A500009011943016210BD80B5AD229200825870
:102A600052689047002080BD10B513460A460024E6
:102A7000214600F01EFB204610BD10B513460A4645
:102A80000024214600F0BEFB204610BD10B50446D0
:102A9000802100F093FB0021204600F08FFB10BD49
:102AA000B0B513460A46572189004350A524A40017
:102AB0000325055141184B600024214600F0F9FA26
:102AC0002046B0BD10B5A521890005224250002442
:102AD00021462246234600F0ECFA204610BD10B5F0
:102AE00013460A46A521890002244450C3610362AB
:102AF0000024214600F086FB204610BD10B5A5211C
:102B0000890004224250002421462246234600F038
:102B100079FB204610BD000010B50A4603A02B4CDF
:102B2000214600F06FF8204610BDC04648494420B9
:102B3000436F6E6669670000122008800048704786
:102B4000AC00002010B50A4603A0204C214600F03E
:102B500059F8204610BDC04648494420496E746566
:102B600072666163650000000420088000487047B9
:102B70007C01002010B50A4603A0144C214600F049
:102B800041F8204610BDC0464875656E736F6C20D5
:102B9000496E632E0000000010B50A4603A00B4CDE
:102BA000214600F02FF8204610BDC0464C696E6BE0
:102BB00020506164204163636573736962696C6965
:102BC0007479204B65797061640000002002002058
:102BD000B0B51A200880094908688A6810180BD017
:102BE0004C68074DA91C0822FFF771FD123504221D
:102BF00020462946FFF76BFD0148B0BDACF7FF1F2B
:102C000080010020B0B500281CD0002304462578A0
:102C1000002D02D0641C5B1CF9E7DBB25B009B1C3F
:102C200013800B70022203240123CC540378002B61
:102C300008D0D4B20B5501231343DBB2921C401CC5
:102C40000024F2E7B0BD0000042801D3022002E016
:102C5000C1000248C840C0B27047C046000201022D
:102C60005721C9004158002008737047B0B5044689
:102C7000812100F015F90025E5625720C100605858
:102C8000002803D0641800F0F3FC25600020B0BDDC
:102C900010B55721C9004158002914D00C464E34B4
:102CA000E078032807D002280AD12288A0780D31C5
:102CB000FFF7BCFC04E02288A0780D31FFF7D4F8C0
:102CC000002060802080002010BD00000A210180CB
:102CD000004870474C0100202221018000487047C5
:102CE000F800002022210180004870471C010020CC
:102CF00022210180004870475801002010B5044689
:102D000081210322052300F0C8F90120E06254204C
:102D100000F0B0FC5721C9006050002806D04E22B8
:102D20000021815201734E30418000E002210846AB
:102D300010BD10B513460A46A7218900445C032C38
:102D400009D14118C9690C7B002C04D101240C73F2
:102D5000812100F057FA002010BD0000F8B50E46A2
:102D60000546A72080002818C769694600240C8002
:102D70003278602111401CD0202944D17078401E47
:102D80000A2840D878440079400087440542323C04
:102D90003C3C3C3C48574500B0780D374022394612
:102DA000FFF73AF800282ED00246F088824221D957
:102DB00029E071780B2920D0062909D00A2914D0DE
:102DC000002920D1007803281DD1694602223DE068
:102DD000F0780002000A212833D0222813D1F2888B
:102DE0007C2A00D37C221D4930E0007803280AD1D8
:102DF000083701222846394629E00078032802D105
:102E0000B078B86025E028463146FFF73FFE02243F
:102E10001FE0391D012219E0B078386019E038460A
:102E20004E30F28871884180402A00D340220280CF
:102E30000D3728463946FFF733FE0AE0F078786010
:102E400007E0F288092A00D3092203492846FFF740
:102E500046FE2046F8BDC046400100202C00002060
:102E600010B5002811D0A7239B00C3189C69002C23
:102E700001D000249C61002900D059610270012119
:102E8000197000F0BFF8002010BD022010BD80B501
:102E90000B2292018058FDF7ADFCFFF7D5FE80BDF7
:102EA00080B50B2292018058FDF783FCFFF7CCFE22
:102EB00080BDF8B50446A52080002718AD2080000D
:102EC000261800290AD0306842690220002A2AD038
:102ED0003B7A032B27D12046904723E0386800280F
:102EE00016D0042814D0022816D1206A656AA84298
:102EF0001AD9401B206283B2204611461A46FFF7BA
:102F0000BCFD002120460A460B4600F0D2F803E043
:102F10008021204600F052F9387B012802D10020A0
:102F20003873F8BD0020F8BDE06900902946FDF730
:102F300032F9002912D10098A8420FD3786800997D
:102F400081420BD20025204629462A46FFF795FDEF
:102F50007D60204629462A462B46D6E73068C16860
:102F6000002904D0387A032801D1204688478021DF
:102F7000204600F023F92046FFF7A4FDCCE7F8B582
:102F80000546A52080002818AD239B00EB180029DA
:102F90000BD01A6892690224002A31D0007A0328E3
:102FA0002ED12846904700242AE0016800240529F4
:102FB00014D0032924D10B2149016E183768716898
:102FC0008F4211D9781A3060884200D3084683B204
:102FD000284611461A46FFF747FD11E004602846CF
:102FE000214600F0EBF80BE019680969002904D0CC
:102FF000007A032801D1284688472846FFF77EFD3E
:103000002046F8BD70B50B218A01164981502F2347
:103010001B01C85000238B61CB610B6202230B6143
:103020000824114D0D604C608B6085180846FEF732
:103030008DF8002801D0FDF710F928680024182326
:103040000A4E21462246B04728688021582322464E
:10305000B047286801210B0281212246B047204653
:1030600070BDC0469C080020005C00404507000879
:103070000B22920180584AB2002A06D428224A43E1
:103080008018B5214900401805E07F221140282210
:103090004A4380182A300078704710B514460B2236
:1030A000920180581A462346FDF7CEFBFFF7CCFD70
:1030B00010BD10B50B24A4010059FDF7ECFBFFF780
:1030C000C3FD10BDF8B504460025402629462A4612
:1030D0003346FFF7E2FF2B20C000012727502018BE
:1030E000C660802120462A463346FFF7D6FFA5203A
:1030F00080002550201807726662A761056165602F
:10310000AD20800020184168002904D00068426882
:103110000021204690470020F8BDA7218900425C8D
:10312000042A02D14018417801700020704780B510
:10313000A7218900425C032A05D141188969C96920
:10314000002900D08847002080BD0174002070470E
:1031500080B50B2292018058FEF7A3F8FFF774FDAB
:1031600080BDF8B50446A5208600A7193D46143554
:10317000284600F050F80120A051788B7860397D06
:103180001F20084002280DD0012806D000280ED1AB
:103190002046294600F070F80EE02046294600F04F
:1031A00033FA09E02046294600F092F904E0802035
:1031B0000140204600F002F80020F8BD80B50B2247
:1031C00092018058FDF77BFBFFF73EFD80BD80B587
:1031D0000B2189014058FEF783F8FFF735FD80BDCC
:1031E00080B50B2189014058FEF78FF8FFF72CFDC1
:1031F00080BDA7218900425C0423435440184270DB
:103200000020704710B50B24A4010059FDF781FB85
:10321000FFF71AFD10BD0A7802704A7842708A786A
:10322000CB781B029A1842800A794B791B029A18B4
:1032300082808A79C97909028918C180704700297A
:1032400004D0AD22920081500020704702207047C8
:1032500080B5AD2292008258002A05D012689047AE
:10326000411E8841400080BD022080BD80B5FFF72F
:10327000AEFF002080BD00007CB50D460446A720AF
:103280008000261808784006800F411E022905D2CA
:10329000B069826820462946904712E1002800D094
:1032A0000CE16878092800D908E14000784480885A
:1032B0004000874409002500030142000301490042
:1032C00066000301180030003078401E022800D943
:1032D000F4E0E888022800D0F0E0B068002800D1CF
:1032E000AAE00320A9E0E888012800D0E6E03078D1
:1032F000411E02295AD20020A0602146083159E01F
:103300003078401E022800D9D8E06888012800D013
:10331000D7E0002016E068886C4D2870C1B2022901
:1033200000D3CBE03078032846D002286AD10029A8
:1033300000D1BFE00320307049E06888012800D048
:10334000BFE00120B060B5E0A888002800D0B5E05B
:10335000E888002800D0B1E06D887F2D00D9ADE06D
:103360003078032800D1A9E0B570E9B22046FFF714
:10337000EFFE2046FFF7C2FB002D00D1A3E00220A4
:10338000A2E001A8002101806888010A491E0629DF
:1033900000D993E07944097949008F44032D1F8FA8
:1033A0008F3B4300207C71690A686EE0032800D0DF
:1033B00084E0211D012244E0002946D060680128F4
:1033C00000D177E0C1B22046FFF746FB2978616063
:1033D0002046FFF73DFF02286CD16FE0C0B2052800
:1033E0006CD8C04678440079400087440246404388
:1033F0003D497069426845E0B069217C00292CD0C4
:10340000C16A2BE02046FFF741FB29782046FFF7F1
:1034100023FB56E0207C002850D1B069416B01A805
:10342000884734E0207C002848D1B069016B01A8AE
:1034300088470146072015E00120E06021460C3155
:1034400002222046FFF74BFB3BE000206060022099
:1034500030702046FFF700FB2CE0816A01A8884706
:1034600001460220487013E0706942690AE0706901
:10347000C26807E07069026904E07069826801E06F
:1034800070698269002A19D0207C01A99047014601
:1034900001A80288002A0AD0E888002807D08242C2
:1034A00000D3024601A802802046FFF718FBE888F7
:1034B000002806D12046FFF721FB02E02046FFF757
:1034C000E5FA00207CBD01203070FAE71C020020E4
:1034D00070B50A460446A720800020180B786021AA
:1034E00019404B095D1E022D05D280698368204674
:1034F000114698475DE0002B58D1202906D18069FC
:103500008368204611469847054653E01179537861
:10351000002B1CD0012B0BD0032B47D100780328A4
:1035200009D15088002847D02046FFF7E7FA40E04D
:103530000078032816D0022838D1480636D0204615
:10354000FFF73CFE80212046FFF738FE31E000788F
:10355000032814D0022829D1480627D1080649D5C6
:10356000142049E050880025002823D1480602D0C5
:103570002046FFF78CFC2046FFF7C0FA1AE00F2028
:10358000084014224243A018802903D22B22D200E3
:10359000805800E08069002808D01420802914D3C6
:1035A0007F220A4050432618143613E02046FFF7C6
:1035B0006DFA0025284670BD4806B5D0D088002891
:1035C000B2D12046FFF7FAFDAEE748432018552256
:1035D000920086188020084300258028284604D0C1
:1035E0002046FFF745FD411E8841306002222046FB
:1035F000314606E055208000002525502118022282
:103600002046FFF76CFAD5E7B0B50D4604460878BA
:103610006021014060290AD0A7208000201801788D
:10362000491E022903D8A9880906490E04D020465C
:10363000FFF72CFA0020B0BD806982682046294639
:103640009047E9880029F5D10028F3D12046FFF7FB
:1036500055FAEFE710B50446AD20800020584268C7
:103660002179204690472046FFF7BAFD002010BD83
:10367000704700000048704720040020F0B587B074
:103680000F78BB00C45A804A2240CD78032D06959E
:1036900012D800240594C0467D442D796D00AF44B6
:1036A00001030D07012404E0784C1219521C05E0B7
:1036B00003246402224301E001240594744D2A434B
:1036C000C252C25ACC4C22403A432A43C25201252C
:1036D000AA0204920E7B6F4A002E06D0069C022C92
:1036E00003953C4624D0164623E05026865B02967E
:1036F000CE88AE43FA0001922A463D464F78002F0D
:1037000074D004994118019A8918029D4E53C15AE8
:103710004906604A04D5C15A214051184031C1526E
:10372000C15A30340C40069901295DD02032A6E000
:10373000594EC75A594D3D403543C5525025465BF9
:10374000049A8718E200BA18039CE7431C460B89C9
:103750003B409353435BD2184B893B4093802546B3
:10376000035BB54E3246F1321A40497800291BD02E
:10377000002A2B46A04C04D0C15A2140754A0A4366
:10378000C252C15A4906434A069D04D5C15A214036
:1037900051184031C152C15A30340C40012D1FD054
:1037A000114620314C401CE0002A2B46924C04D09C
:1037B000C15A2140674A0A43C252C15A4906354D8F
:1037C00004D5C15A214069184031C152C15A314013
:1037D000334A4A40C252C15A30340C402C434FE065
:1037E0001443C452C45A3440144349E00392009530
:1037F00007465037049A1518019AAA180692029A99
:10380000069DAD18AE80069A921D3F88D55B1F4E6F
:103810002E40D653164609693F290BD3CA064909DB
:10382000002A1C4D00D1491E8902BA5B0A43803D23
:1038300015430EE00029174D08D0F55B039A0A40A6
:1038400049088918890229430D4602E0F15B803D51
:103850000D43F553C25A78490D46F1352A4204D03A
:10386000C25A22403B4C1443C452009A002A03D04F
:10387000C25A0A400B4C02E002880A40084C5440ED
:10388000C452059807B0F0BD8F89FFFFFF03000009
:103890008080FFFF808000008081FFFF0F0E00000E
:1038A00080B0FFFF80A0FFFFF0B50A789200855A34
:1038B0004C780E7B504B2649002E28D05E4F3E465A
:1038C000F1363540002C2BD04E4E002D03D0845ABB
:1038D0001C4034438452845A64061D463035002C03
:1038E0003C4603D5875A1F400F438752875A1F40D3
:1038F000374387520E46403E835A2B403343835210
:10390000835A2340C918403981520020F0BD002C51
:1039100016D01C4630346D061D460E46ECD4EFE73B
:10392000002D04D0845A1C400A4D25438552845AE8
:1039300065061C463034002D0E463D46D2D4D5E7F0
:103940003D4C2646F1363542DAD02E4E1D46D3E7A1
:10395000C080000080C0FFFF5821425A0123DB03D2
:1039600013434352002070475821425A024B1340E0
:10397000435200207047C046FF7F000040220121D3
:103980008152002181524030818001820846704777
:103990004021425A024B1340435200207047C04618
:1039A0007F400000B0B50A7B002A23D10A7892003C
:1039B000855A4B78002B0DD06B060F4B0F4C04D55E
:1039C000855A1D40651920358552C978012911D0C5
:1039D00030330BE0184B1946F131094C0D4205D03C
:1039E000815A054D0D40074969188152815A194085
:1039F000614081520020B0BD0F0F0000A080000088
:103A000080B0000080C0000010B54B78002B01D0C2
:103A1000084A00E0064A002B01D0084B00E0064BA4
:103A200009788900445A1C4054404452002010BD7B
:103A30008090FFFF9080FFFF0F3F00003F0F0000CE
:103A4000F0B585B00D4606464B78012B3FD1AC69E9
:103A500029698C4200D30C460123DF03287B002810
:103A600060D0286AEA78022A00D091E001AA98C2C0
:103A70002A789300F45A3746FA4E2640884200D8F6
:103A8000CEE0F9490E43FE52029E801B2862F95A8D
:103A900050203C5A4B06D100384650300090002B45
:103AA00004973846FA4A00D5DAE0BF1879180E5361
:103AB00069692A89B3B200F044FA686981196961B9
:103AC000286A2A69904200D9FBE00023FAE0287BAB
:103AD000002836D0E87801286CD0022800D094E085
:103AE0002878002B00D06CE15021715A7118F74AE8
:103AF0008F18C1007A5AF64B1A407A522B69324617
:103B0000503201240294E40303943F2B049600D224
:103B1000BEE0DC065E09002C00D1761EB402CE5B4E
:103B2000264329E1EA886969A3B2304600F009FA20
:103B3000E64830185021715A40182978C90044527B
:103B4000B3E15020305A04963018E0494018021D65
:103B50002878C300D15ADE4C0C40D4522969AE6992
:103B6000771A00D20027AF618E4200D30E46D549A6
:103B7000D54F3F2E4BD3F4067509002C00D16D1E96
:103B8000049EAC029D5A2543D34C2C439C5290E199
:103B9000001B286229788800325A5020305A520679
:103BA000C900002A50D4C94AB21851180C52696988
:103BB0002A8950E02869AA69111A00D20021A96156
:103BC000824200D302462878BE49BF4F002B00D066
:103BD0006FE15023F35AF318BC4C1F19C300FC5A71
:103BE000BB4D2C40FC523546503501240294E40371
:103BF00003943F2A049657D3D4065609002C00D1CB
:103C0000761EB402DE5B2643F4E0012057E1002E6D
:103C100038D0D45A0125354076087519AD0233E005
:103C2000039CA1198031F952A8497918D20089184A
:103C30005022BA5A885269692A8983B2384600F0FC
:103C400080F93E46274630E1A04A921951180818DB
:103C5000848069696A89A3B2304600F072F924E170
:103C6000D719791809198E8069696A89B3B200F089
:103C700068F9686981196961286A2A69904246D899
:103C8000002345E0D45A944D2543D552049E10E1BB
:103C9000002B70D07C5A01941E46029C26405C0882
:103CA000A419A602019C68E0002A00D1A1E0FC5AF8
:103CB00001941646029C26405408A419A602019CB1
:103CC00099E0831B2B62904200D806466878012851
:103CD00042D0002800D0D8E0009800883818001D95
:103CE0002A78D200835A7A4C1C40845234463F2EA4
:103CF00000D2ABE02346E4065B09002C00D15B1E3A
:103D00009B02145A1C43039B1C431452BDE0831BAB
:103D10002B62904200D806466878012824D00028FB
:103D200000D0BBE00098008838182A78D200835A67
:103D3000674C1C40845234463F2E00D296E0234606
:103D4000E4065B09002C00D15B1E9B02145A1C4345
:103D5000039B1C431452A1E00098008838182A786D
:103D6000D2008018868090E00098008838182A7861
:103D7000D200865292E07E5A039C26437E52049ED5
:103D8000524CA4191288A218121D545A504F3C408C
:103D900054523F2B08D3DC065B09002C00D15B1E7C
:103DA0009C028B5A234309E0002B06D0545A029FF1
:103DB0001F405B08DB199B0201E0535A039C23431D
:103DC0005352EA693F49404F002A72D08200B45AE8
:103DD00040232340640402D4002B02D069E0002B6E
:103DE00067D0B35A3B4C1C403B4BE318C033B35233
:103DF0005FE0FE5A039C2643FE52049E334CA419F6
:103E00002D886419251DEC5A314F3C40EC523F2A55
:103E10000CD3D4065209002C2B4F00D1521E920213
:103E20005C5B1443039A14435C5342E0002A264F20
:103E300007D0EC5A0394029C1440520812199202C3
:103E400000E0EA5A039C2243EA5232E0002C18D0E8
:103E5000835A019F27407408E419A4021C4384522A
:103E600013E0C0460F0E000080810000002C11D02E
:103E7000835A019F27407408E419A4021C4384520A
:103E80000CE0835A039C234383526A8907E0C046AF
:103E900002040000835A039C234383522A89B3B24D
:103EA000049E304600F04DF8039FB0370949303189
:103EB00028788000325A0A407A403252002005B0F9
:103EC000F0BDC0460F3F000080B0000002040000BB
:103ED000FF0300000F0F00000080FFFF024640328A
:103EE000002191804022024B835208467047C04611
:103EF00080BF000080B50248FCF722FD80BDC046AF
:103F00009C0800204421405A704710B580180122B7
:103F1000920280185A08002A07D004880C70240ADC
:103F20004C70521E891C801CF5E7DA0701D000880E
:103F3000087010BD002902D14C218022425200207D
:103F4000704710B580180122920280185A1C52083E
:103F5000002A08D00B784C782402E3180380521E04
:103F6000891C801CF4E710BD002805D403220346F9
:103F700093430A4A9A1803E00C220240064BD218D7
:103F80008007C00E8901C9B28140FF2383401068B9
:103F9000984308431060704714ED00E000E400E02F
:103FA00010B501464239162912D8C046794409791C
:103FB00049008F440B75217575751B1D2517151943
:103FC000237575751375751F7575270007201CE01F
:103FD0002D2819D02B2863D1012016E0052014E0EC
:103FE000042012E00B2010E00D200EE008200CE071
:103FF00009200AE0022008E0032006E0062004E091
:104000000A2002E00C2000E0002000017B49081893
:10401000AA490979491E032906D8C0467944097975
:1040200049008F440114060DC21C022101240346DD
:1040300011E00346083302460B320A2109240AE044
:1040400003460C3302460F320E210D2403E0031DFC
:10405000C21D062105241278002A0BD03522BE4B42
:1040600000249C541A463532D47094705470405CCD
:10407000D87510BD005D19780022F02903D0F12910
:1040800004D1492300E03923114602E0002403460D
:104090002046E94CA263E2753434E070A37061708D
:1040A00010BDC046B0B5EF484478601E8441EC4D69
:1040B000E879002800D0A41CE878002800D0241D4E
:1040C000287C002800D00834286A002801D010205D
:1040D00004430920C0060221FCF7AEFA012801D1F1
:1040E000202004432879002801D040200443687927
:1040F000002801D080200443E0B2B0BDF8B5CD4E19
:104100007089E54AD080307A411E88411070707AFB
:10411000411E8841DF4FF870307B002801D0052810
:1041200001D301203073D070717B002903D00429A2
:1041300001D8814201D901217173117101210091CE
:104140004840B17BC9B20143481E8141B97100208A
:104150002A4DC4B20E2C0DD20E20021B022A00D30F
:1041600002222101681871181C311201FBF7EFFFC0
:10417000A01CEEE7F07B022801D90220F073C64CA8
:10418000A070707E3875307C0025022800D3284648
:10419000307478717069642800D864207061F862A6
:1041A000307E0F2101403176F974707C411E8841C8
:1041B00070747874F07E411E8841F076B874B07ED9
:1041C0007875FCF745FA38633D62FD713D712278E0
:1041D0006270501E8241009C2102B048FCF731FA07
:1041E0000920C0062146FCF727FA411E48424841F3
:1041F00000F024F901F00EF8F8BDC046D80B0020FD
:1042000010B58C484289A449CA80027A531E9A414B
:104210000A70427A531E9A419E4CE270027B002A39
:1042200001D0052A01D301220273CA70437B002BFF
:1042300003D0042B01D8934201D9012343730B719E
:1042400001235A40837BDBB213435A1E9341A3716F
:10425000C27B032A01D30222C2738A70017C022925
:1042600001D3002101746171417E2175817E6175E8
:104270004169642900D86421E162017E0F220A406D
:10428000E274417C4A1E91416174C07E411E8841A6
:10429000A074FCF7DDF9206300202062E07120713A
:1042A0000920C0060121FCF7C7F9411E48424841D8
:1042B00000F0C4F800F0AEFF10BDC04600000020C2
:1042C00057218A000021002A04D00378C918401C15
:1042D000521EF8E70846704770B5564C204610301D
:1042E00015210901FBF74CFF002017496161A0610E
:1042F00060741649164A174B4C4D25606360A260E6
:10430000E160164DC6B20E2E0DD20E20821B022A7F
:1043100000D302223001291820181C301201FBF7AB
:1043200016FFB01CEEE72046FC306021FBF728FFAB
:104330002046FFF7C5FF572189006050FFF7DEFEDA
:1043400054480121017470BD88130000010100026E
:10435000010088130A006001A0010020CA52000871
:10436000F8B5314C2268002030498A425AD1A288DF
:104370000A2A57D10B225201E388934252D1572582
:10438000AB0000202646002B04D03778C019761CDD
:104390005B1EF8E7264B1B68984229D1E068254F41
:1043A000F860A068B860FA800A20B8803960207C84
:1043B0003874607C787460697861207E3876607EBD
:1043C0007876A07EB876E07EF8760020C6B20E2E13
:1043D00010D20E20821B022A00D30222310178184B
:1043E0001C3061181C311201FBF7B1FEB01CEDE767
:1043F0000020F8BD5F20C643002E09D0B819A900DF
:104400004018A21951181822FBF7A1FE1836F3E73D
:1044100007480068A9007850FFF770FE1D4800218A
:1044200001740120F8BDC046007C0008EFBEFFC04B
:104430005C7D000878040020A001002080B51549AB
:104440000979002900D080BD13498A78022A00D357
:1044500002460920C0060221FCF7F3F880BDC046E1
:10446000A001002000000020B0B50A4CE07900282F
:104470000ED1E07800280BD0074D01226A7011029E
:104480000648FCF7DEF8FCF7E3F8E98840182062FC
:10449000B0BDC046A001002000000020000400487C
:1044A000B0B50B485721C9004558002D0FD0A721A2
:1044B0008900405C03280AD1FCF7CAF80446287B2F
:1044C000012804D1FCF7C4F8001B3328F7D3B0BD92
:1044D000D805002000B5A3B0FCF7C8F8FEF73BF9FB
:1044E0000DA809901421FBF74BFE0120810503461E
:1044F000D94802680A43026002680A401592159979
:10450000590402680A43026002680A40159215992C
:1045100099041E460C9302680A4302600068084032
:10452000159015980920C406CC490027CC4D20468B
:104530003A46A84731020591F831CA483A46A84799
:10454000C94803210A913A46A8470F970E970D963E
:104550002046099D2946C54A90470F960E9704208C
:104560000B900D9020462946C04A904710970F9710
:104570000E96BA480D9020462E462946BB4A9047D3
:1045800002250F950E97C0200D90069420463146C7
:10459000B64A90470F950E970C980D90B14C204657
:1045A0003146B24A90470F970E9708950D950C9D8E
:1045B00020463146AD4A904710970F970E95FF243D
:1045C0005E3420469B300D90A6483146A74A90475E
:1045D00010970F970E950A980D90A3483146A34A5D
:1045E0009047A348A3493022A34B036042608760F1
:1045F000C1600761476187612297219720971D97C6
:104600001C971397FDF7A4FA002803D0EFF310804E
:1046100072B6FEE7089E07940C9F38031F909448DB
:104620001FA9FDF7CDFA002803D0EFF3108072B672
:10463000FEE78F48FDF7CCFB002803D0EFF3108096
:1046400072B6FEE78A481CA9FDF75AFA002803D083
:10465000EFF3108072B6FEE7884816906020159040
:1046600015AC204608301421FBF78AFD8048002550
:1046700021462A46FDF74CFB002803D0EFF31080BB
:1046800072B6FEE70DAC14212046FBF779FD1495B8
:104690007803129076482146FDF704FA002803D0EB
:1046A000EFF3108072B6FEE7FC037148FDF708FBDC
:1046B0003420734903900F548D810D70CD618E7538
:1046C000069821462A46664EB047082165483A4674
:1046D000B0473446644E304639463A46A0473046E5
:1046E00008993A46A0475F48059908952A46A04789
:1046F000FEF700F80A9FA72081006248405C03286B
:1047000003D00A20FBF70CFEF5E70491FFF728FE23
:10471000002802D0FFF7F2FC01E0FFF7DDFD069E66
:104720000B9A574BEFF31080EFF3108172B6197AA2
:104730000029089C08D0597A0029089C04D11C7AC9
:104740000021197201215972002800D162B6002C93
:1047500000D1C6E00025322C4DD0312C51D0302C68
:10476000294600D0ABE002950A20474DA880474873
:10477000286005986030E8802846FFF7A1FD5721A2
:104780008900685000261596EFF310876D58FBF7E7
:1047900077FE03983E49086001200F903D480E9037
:1047A00001960D96EFF3108072B60DA815A9FBF7D0
:1047B000C7FD0997002F00D162B6002827D11598B0
:1047C000401C24D1009558252F4F324E002D2AD061
:1047D000EFF3108072B63A68022000233146FBF7EF
:1047E00001FE0999002900D162B6002856D16D1E3C
:1047F0003F1D361DEAE7FFF76FFD214B0B9A0C9921
:104800005DE0FFF7ADFD1E4B0B9A014657E00398A4
:104810001F490860FBF7DEFD0B9A194B029D0199B9
:10482000069E0A9F4BE00A20FBF77AFD1A480568AE
:104830001848FFF745FD0646FBF7CCFDB54235D1DC
:104840000098854232D100200D4B18740C99069EB9
:104850000A9F0B9A029D32E0141002400280000071
:10486000430600080004004800140048A90400089A
:10487000900B00200F270000002C01408713000040
:10488000A0010020D805002078040020EFBEFFC062
:104890000C200240007C00085C7D00080398E3497E
:1048A00008600A20FBF73CFDFBF794FD0398DF4905
:1048B0000860069E0A9F0B9ADD4B029D01993C20E1
:1048C0001A541F830C98414018463C308170447044
:1048D000EFF31080EFF3108172B65D72002800D103
:1048E00062B6EFF31080EFF3108172B6997A002967
:1048F00003D09C7A0021997200E0002400280C9FCC
:1049000000D162B6002C3CD0042C39D8F048C078D5
:10491000844235D8EE480079844231D0411E0329C3
:1049200018D818214143E9484018F03000F0E6FB60
:10493000E44D284635300721FBF722FC0020E875BE
:10494000FFF7AEFD294634310822DF48FEF7F1F9C2
:10495000FFF7A6FDDD484473DD4D2C7100F05AFCD5
:104960003220FBF7DDFC2879411E0329D54B07D8FF
:1049700018214143D5480818E43000F0BFFBD14B63
:104980001F74EFF31080EFF3108172B6D97A00290B
:10499000394604D0DA7A0021D972514251410028B7
:1049A000079C00D162B6002902D1FFF729FCC54B54
:1049B000587C00282DD0D86A00282AD0C2480499F3
:1049C000405C032825D1FBF743FEBE4BD96A1A6B26
:1049D000821A8A421DD31863987C002807D05C7D18
:1049E0001846353007211D46FBF7CAFB0CE0184678
:1049F0003430D97C4170197D8170184637300521DB
:104A00001D46FBF7BDFB0024EC7500F047FB079C3F
:104A10002B46587900281D460FD000F045FA07466E
:104A2000A87B874224D1E87BC1B2032926D2401C4F
:104A3000E873A87802291FD121E000F04BF96873D0
:104A4000002860D04D2848D1A148C178012952D80A
:104A50004D20FFF7A5FA0A20FBF762FC00F01EFBD1
:104A6000984DA87900284ED0FFF7FEFC954D4AE0FE
:104A70000120E873AF73A878074600E0A878002803
:104A80000ED1002F0CD0AF704D2F13D19048C078AD
:104A900002280FD38E490979814229D3012028E0C9
:104AA000002810D0002F0ED100F0DAFA854D00203A
:104AB000A87030E03846FFF773FA00F0BBFAFFF752
:104AC000D3FC804D27E0002825D0002F23D087423B
:104AD00021D000F0C5FA7B4DD5E7FFF761FA012040
:104AE000784D28730A20FBF71BFCFFF7BDFC0AE09A
:104AF000481CA8720FE00079401CC2B28A4200D95B
:104B00000120704DA872287B012804D100F0C6FA5C
:104B10006C4D002028732879002809D101213046E6
:104B2000FBF78AFD411E48424841FFF787FC654D6F
:104B3000E87900283ED1012730463946FBF77CFD55
:104B40000646FBF785FDE97800290AD02A6A002A83
:104B500007D0801A1ED4012E1FD15D4847700C9AD1
:104B600022E05B484078002909D0012E07D10128B6
:104B7000069E544D1ED0564847700C9A15E0544975
:104B80000A789042069E4F4D14D051484270501EF4
:104B900082410AE04E48427804E0002028624C48F6
:104BA00002784270501E8241069EBE480599FBF76E
:104BB00048FD444DFBF74CFD6862E969411A6429E0
:104BC0000A9F0B9A2B4600D2ACE5D86118780128D1
:104BD00030D0002850D101213046FBF72DFD0028B0
:104BE0004AD0FBF735FD3749886201273046394600
:104BF000FBF722FD01283FD1FBF72AFD3149896AE5
:104C0000401AA042F1D94A20FFF7CAF90C98FFF7E1
:104C100015FC2C49C87800282AD0C879002827D14B
:104C200001222B48427017461EE0C0460C2002406D
:104C3000A001002001213046FBF7FEFC00281BD11B
:104C40004B20FFF7ADF900273846FFF7F7FB1D496A
:104C5000C87800280CD0C879002809D11C480278EF
:104C60004270501E82410027F0480599FBF7E9FC8D
:104C700000F014FAF9480770F84844780221EB482C
:104C8000FBF7DAFC002C07D001280A9F0B9AF34BA4
:104C900000D047E5002012E000280A9F0B9AEF4B56
:104CA00000D03FE55820FFF77BF90A20FBF738FBDF
:104CB00000F0F4F9FFF7D8FBF74B0B9A012058707E
:104CC00030E5C046A0010020D8050020780400206F
:104CD00000000020F8B5D54C10210122D44F204609
:104CE000B8472021002520462A46B84740262046BE
:104CF00031462A46B847802120462A46B84709202F
:104D0000C50628463146FBF797FC002807D040210E
:104D10002846FBF791FC0028F9D14D26B3E080210D
:104D20002846FBF789FC002807D080212846FBF79E
:104D300083FC0028F9D12D26A5E001212046FBF7B0
:104D40007BFC002807D001212046FBF775FC0028DA
:104D5000F9D12B2697E010210026204632460096F6
:104D6000B847202101222046B8474021204632463C
:104D7000B847802620463146009AB8472846314633
:104D8000FBF75AFC002807D080212846FBF754FC8B
:104D90000028F9D1552676E001212046FBF74CFC8E
:104DA000002807D001212046FBF746FC4E260028AC
:104DB000F8D168E01021002620463246B84720216D
:104DC00020463246B8474021009101222046B8478C
:104DD000802120463246B84728460099FBF72CFC34
:104DE000002807D040212846FBF726FC4C26002847
:104DF000F8D148E080212846FBF71EFC002807D0A8
:104E000080212846FBF718FC44260028F8D13AE018
:104E100001212046FBF710FC002807D00121204685
:104E2000FBF70AFC52260028F8D12CE010210026BE
:104E300020463246B847202120463246B847402116
:104E4000009120463246B847802101222046B847CB
:104E500028460099FBF7F0FB002807D040212846A0
:104E6000FBF7EAFB42260028F8D10CE08021284617
:104E7000FBF7E2FB002808D080212846FBF7DCFB8B
:104E800048260028F8D13046F8BD01212046FBF71E
:104E9000D3FB0028F7D001212046FBF7CDFB4926A4
:104EA000F7E7C04600040048FEB5F84F1021029114
:104EB0000025F54C38462A46A04720210191384666
:104EC0002A46A0474026384631462A46A047802138
:104ED000009138462A46A047012238460299A04749
:104EE000384601992A46A047384631462A46A04707
:104EF000384600992A46A0470920C506284631466B
:104F0000FBF79AFB002801D04D20FEBDDF4F80212A
:104F10002846FBF791FB002801D02D20FEBD012182
:104F20003846FBF789FB002801D02B20FEBD10215D
:104F3000002438462246D44B984720210122384687
:104F4000D14B9847402138462246CF4B9847802680
:104F5000384631462246CC4B984728463146FBF727
:104F60006BFB002801D05520FEBD01213846FBF720
:104F700063FB002801D04E20FEBD102100243846DE
:104F80002246C14B9847202138462246BE4B9847BF
:104F90004026012238463146BB4B9847802138468F
:104FA0002246B94FB84728463146FBF745FB002853
:104FB00001D04C20FEBD80212846FBF73DFB002898
:104FC00001D04420FEBD0121B04E3046FBF734FB3A
:104FD000002801D05220FEBD102100243046224678
:104FE000B847202130462246B84730464026314651
:104FF0002246B84780210122A448B84728463146B6
:10500000FBF71AFB002801D04220FEBD8021284674
:10501000FBF712FB002801D04820FEBD01219B4870
:10502000FBF70AFB002800D04920FEBD0004004821
:105030004306000880B5FFF733FA9649C87D00287B
:1050400003D016317148022202E034316F48082241
:10505000FDF76FFEFFF724FA80BDC046A0010020D7
:1050600070B58C4C0020E075674EB0472146163174
:10507000664D02222846FDF75CFEB04720463530DB
:105080000721FBF77DF83434082228462146FDF736
:1050900050FEB04770BDC046A0010020F8B5FFF734
:1050A000FFF97C4CE07D254600280FD01635574E81
:1050B0000227304629463A46FDF73BFEFFF7F0F956
:1050C0000020E075304629463A4611E034354F4F0E
:1050D0000826384629463246FDF72BFEFFF7E0F951
:1050E000353407212046FBF74BF83846294632462F
:1050F000FDF71FFEFFF7D4F9F8BDC046F0B589B043
:1051000000287CD00178002979D04589067AC379B6
:105110008279417904794088002C11D100290FD17E
:10512000002A0DD1002B0BD1002E09D1002801D06F
:10513000FBF7F6F8002D62D02846FBF7F1F85EE0A9
:10514000039404960593069207910895002805D0CC
:105150002C49884200D30846FBF7E2F834204D4A38
:1051600001211154154614463435681C029007215C
:105170000191FBF705F80027E7752348804723488E
:105180000826234C29463246A0471F4880474149FC
:105190004F8704986871059828710698E8700798F9
:1051A000A87003986870CF75184829463246A04702
:1051B000154880473220FBF7B3F802980199FAF7B7
:1051C000DFFF3448C7751148294632462746A047B5
:1051D0000D4CA0470D4829463246B847A0470898CD
:1051E000002805D00749884200D30846FBF798F805
:1051F000064808222946FDF79CFDFFF751F909B042
:10520000F0BDC04688130000A1440008D805002066
:10521000332D0008F8B50920C0060126F5031A4F02
:10522000009029463246B847184808213246B84708
:10523000174C204631463246B847022120463246B6
:10524000B8471548C178012904D112498979002944
:1052500000D1F8BD0079401E0328FAD878440079BF
:1052600040008744010B050700220098294608E00A
:10527000012100E002210022054802E0082100226D
:105280000248FBF7DEF9F8BD4306000800040048B9
:1052900000140048A00100200000002002E008C81F
:1052A000121F08C1002AFAD170477047002001E0A0
:1052B00001C1121F002AFBD170470000000000004E
:1052C0000000010203040607080900008001000035
:1052D000800100008001000080010000400100000A
:1052E0004001000040010000400100520000005257
:1052F0000000005200000052000000510000005168
:10530000000000510000005100000050000000505B
:1053100000000050000000500000004F0000004F4F
:105320000000004F0000004F00000028000000288F
:1053300000000028000000280000002900000029CB
:1053400000000029000000290000004A0000004A77
:105350000000004A0000004A0000003A0000003A45
:105360000000003A0000003A000000420000004245
:105370000000004200000042000000430000004323
:10538000000000430000004300000044000000440F
:1053900000000044000000440000004500000045FB
:1053A000000000450000004500000000D053000848
:1053B00000000020A001000004020008D8540008EA
:1053C000A0010020A00F0000AC5200080000000067
:1053D00016010102010134881301320413392B1B19
:1053E0000869041A75041A99041AD1041A19041ABE
:1053F0004504101405010906A10185010507750181
:10540000950819E029E7151809250181029503750A
:10541000080A1564050719142973811EC0050C09B3
:1054200001292C02050C21292D381609B509B609C8
:10543000B709B809CD09E209E909EA8102C00508FE
:10544000251A03343A012710080895019102C00675
:105450003AFF181B0409161326FF1917153FB1024E
:10546000C013127A1312013202164083042B571D07
:1054700002010203B513FD2C1B086D04135D2D42C0
:10548000081A910C1A610401101AE5141AD9041AA9
:10549000F1041ACD041409022219F91CE03209F6AC
:1054A000130103120115092111011401227C1607B1
:1054B00005810305220AD924EB0102241A07246975
:1054C00012314B0A06A0199709203C1960071E04E7
:0854D0000309041A03000000A7
:04000005080000C12E
:00000001FF
